{
  "_format": "hh-sol-artifact-1",
  "contractName": "EquitiesKeeper",
  "sourceName": "contracts/EquitiesKeeper.sol",
  "abi": [
    {
      "inputs": [],
      "stateMutability": "nonpayable",
      "type": "constructor"
    },
    {
      "anonymous": false,
      "inputs": [
        {
          "indexed": true,
          "internalType": "bytes32",
          "name": "id",
          "type": "bytes32"
        }
      ],
      "name": "ChainlinkCancelled",
      "type": "event"
    },
    {
      "anonymous": false,
      "inputs": [
        {
          "indexed": true,
          "internalType": "bytes32",
          "name": "id",
          "type": "bytes32"
        }
      ],
      "name": "ChainlinkFulfilled",
      "type": "event"
    },
    {
      "anonymous": false,
      "inputs": [
        {
          "indexed": true,
          "internalType": "bytes32",
          "name": "id",
          "type": "bytes32"
        }
      ],
      "name": "ChainlinkRequested",
      "type": "event"
    },
    {
      "anonymous": false,
      "inputs": [
        {
          "indexed": true,
          "internalType": "address",
          "name": "previousOwner",
          "type": "address"
        },
        {
          "indexed": true,
          "internalType": "address",
          "name": "newOwner",
          "type": "address"
        }
      ],
      "name": "OwnershipTransferred",
      "type": "event"
    },
    {
      "inputs": [],
      "name": "EquityFee",
      "outputs": [
        {
          "internalType": "uint256",
          "name": "",
          "type": "uint256"
        }
      ],
      "stateMutability": "view",
      "type": "function"
    },
    {
      "inputs": [
        {
          "internalType": "string",
          "name": "_equity",
          "type": "string"
        }
      ],
      "name": "addEquity",
      "outputs": [],
      "stateMutability": "payable",
      "type": "function"
    },
    {
      "inputs": [
        {
          "internalType": "string",
          "name": "_equity",
          "type": "string"
        }
      ],
      "name": "adminAddEquity",
      "outputs": [],
      "stateMutability": "nonpayable",
      "type": "function"
    },
    {
      "inputs": [
        {
          "internalType": "bytes",
          "name": "",
          "type": "bytes"
        }
      ],
      "name": "checkUpkeep",
      "outputs": [
        {
          "internalType": "bool",
          "name": "upkeepNeeded",
          "type": "bool"
        },
        {
          "internalType": "bytes",
          "name": "",
          "type": "bytes"
        }
      ],
      "stateMutability": "view",
      "type": "function"
    },
    {
      "inputs": [],
      "name": "counter",
      "outputs": [
        {
          "internalType": "uint256",
          "name": "",
          "type": "uint256"
        }
      ],
      "stateMutability": "view",
      "type": "function"
    },
    {
      "inputs": [
        {
          "internalType": "uint256",
          "name": "",
          "type": "uint256"
        }
      ],
      "name": "equities",
      "outputs": [
        {
          "internalType": "string",
          "name": "",
          "type": "string"
        }
      ],
      "stateMutability": "view",
      "type": "function"
    },
    {
      "inputs": [],
      "name": "interval",
      "outputs": [
        {
          "internalType": "uint256",
          "name": "",
          "type": "uint256"
        }
      ],
      "stateMutability": "view",
      "type": "function"
    },
    {
      "inputs": [],
      "name": "isActive",
      "outputs": [
        {
          "internalType": "bool",
          "name": "",
          "type": "bool"
        }
      ],
      "stateMutability": "view",
      "type": "function"
    },
    {
      "inputs": [
        {
          "internalType": "address",
          "name": "_requester",
          "type": "address"
        }
      ],
      "name": "isRequester",
      "outputs": [
        {
          "internalType": "bool",
          "name": "",
          "type": "bool"
        }
      ],
      "stateMutability": "view",
      "type": "function"
    },
    {
      "inputs": [],
      "name": "lastTimeStamp",
      "outputs": [
        {
          "internalType": "uint256",
          "name": "",
          "type": "uint256"
        }
      ],
      "stateMutability": "view",
      "type": "function"
    },
    {
      "inputs": [],
      "name": "numEquities",
      "outputs": [
        {
          "internalType": "uint256",
          "name": "",
          "type": "uint256"
        }
      ],
      "stateMutability": "view",
      "type": "function"
    },
    {
      "inputs": [],
      "name": "owner",
      "outputs": [
        {
          "internalType": "address",
          "name": "",
          "type": "address"
        }
      ],
      "stateMutability": "view",
      "type": "function"
    },
    {
      "inputs": [
        {
          "internalType": "bytes",
          "name": "",
          "type": "bytes"
        }
      ],
      "name": "performUpkeep",
      "outputs": [],
      "stateMutability": "nonpayable",
      "type": "function"
    },
    {
      "inputs": [],
      "name": "renounceOwnership",
      "outputs": [],
      "stateMutability": "nonpayable",
      "type": "function"
    },
    {
      "inputs": [
        {
          "internalType": "bool",
          "name": "newValue",
          "type": "bool"
        }
      ],
      "name": "setActive",
      "outputs": [],
      "stateMutability": "nonpayable",
      "type": "function"
    },
    {
      "inputs": [
        {
          "internalType": "uint256",
          "name": "_interval",
          "type": "uint256"
        }
      ],
      "name": "setInterval",
      "outputs": [],
      "stateMutability": "nonpayable",
      "type": "function"
    },
    {
      "inputs": [
        {
          "internalType": "address",
          "name": "_priceFeedContract",
          "type": "address"
        }
      ],
      "name": "setPriceFeedContract",
      "outputs": [],
      "stateMutability": "nonpayable",
      "type": "function"
    },
    {
      "inputs": [
        {
          "internalType": "address",
          "name": "_requester",
          "type": "address"
        }
      ],
      "name": "setRequester",
      "outputs": [],
      "stateMutability": "nonpayable",
      "type": "function"
    },
    {
      "inputs": [
        {
          "internalType": "address",
          "name": "newOwner",
          "type": "address"
        }
      ],
      "name": "transferOwnership",
      "outputs": [],
      "stateMutability": "nonpayable",
      "type": "function"
    },
    {
      "inputs": [],
      "name": "volume",
      "outputs": [
        {
          "internalType": "uint256",
          "name": "",
          "type": "uint256"
        }
      ],
      "stateMutability": "view",
      "type": "function"
    }
  ],
  "bytecode": "0x608060405260016004556000600e5567016345785d8a0000600f5561025860125534801561002c57600080fd5b5061004961003e6100a660201b60201c565b6100ae60201b60201c565b6001600c60003373ffffffffffffffffffffffffffffffffffffffff1673ffffffffffffffffffffffffffffffffffffffff16815260200190815260200160002060006101000a81548160ff021916908315150217905550610174565b600033905090565b6000600660009054906101000a900473ffffffffffffffffffffffffffffffffffffffff16905081600660006101000a81548173ffffffffffffffffffffffffffffffffffffffff021916908373ffffffffffffffffffffffffffffffffffffffff1602179055508173ffffffffffffffffffffffffffffffffffffffff168173ffffffffffffffffffffffffffffffffffffffff167f8be0079c531659141344cd1fd0a4f28419497f9722a3daafe3b4186f6b6457e060405160405180910390a35050565b61193c806101836000396000f3fe60806040526004361061011f5760003560e01c8063715018a6116100a0578063c618a1e411610064578063c618a1e4146103a1578063d10fc6f8146103cc578063d7457f8c14610409578063e9add90714610434578063f2fde38b1461045d5761011f565b8063715018a6146102e257806374626404146102f95780638da5cb5b14610322578063947a36fb1461034d578063acec338a146103785761011f565b80633f3b3b27116100e75780633f3b3b27146101fa5780634585e33b146102255780634d9f8b741461024e57806361bc221a146102795780636e04ff0d146102a45761011f565b80630252917714610124578063227a30c51461016157806322a900821461018a57806322f3e2d4146101b35780633f067679146101de575b600080fd5b34801561013057600080fd5b5061014b60048036038101906101469190611028565b610486565b6040516101589190611338565b60405180910390f35b34801561016d57600080fd5b5061018860048036038101906101839190611028565b6104dc565b005b34801561019657600080fd5b506101b160048036038101906101ac9190611145565b6105b3565b005b3480156101bf57600080fd5b506101c8610639565b6040516101d59190611338565b60405180910390f35b6101f860048036038101906101f391906110fc565b61064c565b005b34801561020657600080fd5b5061020f6106e4565b60405161021c9190611447565b60405180910390f35b34801561023157600080fd5b5061024c600480360381019061024791906110af565b6106ea565b005b34801561025a57600080fd5b506102636108c9565b6040516102709190611447565b60405180910390f35b34801561028557600080fd5b5061028e6108cf565b60405161029b9190611447565b60405180910390f35b3480156102b057600080fd5b506102cb60048036038101906102c691906110af565b6108d5565b6040516102d9929190611353565b60405180910390f35b3480156102ee57600080fd5b506102f761090c565b005b34801561030557600080fd5b50610320600480360381019061031b9190611028565b610994565b005b34801561032e57600080fd5b50610337610a54565b604051610344919061131d565b60405180910390f35b34801561035957600080fd5b50610362610a7e565b60405161036f9190611447565b60405180910390f35b34801561038457600080fd5b5061039f600480360381019061039a9190611055565b610a84565b005b3480156103ad57600080fd5b506103b6610b1d565b6040516103c39190611447565b60405180910390f35b3480156103d857600080fd5b506103f360048036038101906103ee9190611145565b610b23565b6040516104009190611383565b60405180910390f35b34801561041557600080fd5b5061041e610bcf565b60405161042b9190611447565b60405180910390f35b34801561044057600080fd5b5061045b600480360381019061045691906110fc565b610bd5565b005b34801561046957600080fd5b50610484600480360381019061047f9190611028565b610ca5565b005b6000600c60008373ffffffffffffffffffffffffffffffffffffffff1673ffffffffffffffffffffffffffffffffffffffff16815260200190815260200160002060009054906101000a900460ff169050919050565b6104e4610d9d565b73ffffffffffffffffffffffffffffffffffffffff16610502610a54565b73ffffffffffffffffffffffffffffffffffffffff1614610558576040517f08c379a000000000000000000000000000000000000000000000000000000000815260040161054f90611407565b60405180910390fd5b6001600c60008373ffffffffffffffffffffffffffffffffffffffff1673ffffffffffffffffffffffffffffffffffffffff16815260200190815260200160002060006101000a81548160ff02191690831515021790555050565b6105bb610d9d565b73ffffffffffffffffffffffffffffffffffffffff166105d9610a54565b73ffffffffffffffffffffffffffffffffffffffff161461062f576040517f08c379a000000000000000000000000000000000000000000000000000000000815260040161062690611407565b60405180910390fd5b8060128190555050565b600b60009054906101000a900460ff1681565b600f543414610690576040517f08c379a000000000000000000000000000000000000000000000000000000000815260040161068790611427565b60405180910390fd5b600d819080600181540180825580915050600190039060005260206000200160009091909190915090805190602001906106cb929190610e6b565b506001600e546106db9190611505565b600e8190555050565b60135481565b60011515600c60006106fa610d9d565b73ffffffffffffffffffffffffffffffffffffffff1673ffffffffffffffffffffffffffffffffffffffff16815260200190815260200160002060009054906101000a900460ff16151514610784576040517f08c379a000000000000000000000000000000000000000000000000000000000815260040161077b906113c7565b60405180910390fd5b600b60009054906101000a900460ff1680156107ae5750601254601354426107ac919061155b565b115b156108c5574260138190555060016010546107c99190611505565b6010819055506000601160009054906101000a900473ffffffffffffffffffffffffffffffffffffffff16905060005b600d805490508110156108c2578173ffffffffffffffffffffffffffffffffffffffff1663d4fe6bd0600d83815481106108365761083561172d565b5b906000526020600020016040518263ffffffff1660e01b815260040161085c91906113a5565b602060405180830381600087803b15801561087657600080fd5b505af115801561088a573d6000803e3d6000fd5b505050506040513d601f19601f820116820180604052508101906108ae9190611082565b5080806108ba90611686565b9150506107f9565b50505b5050565b600e5481565b60105481565b60006060600b60009054906101000a900460ff168015610903575060125460135442610901919061155b565b115b91509250929050565b610914610d9d565b73ffffffffffffffffffffffffffffffffffffffff16610932610a54565b73ffffffffffffffffffffffffffffffffffffffff1614610988576040517f08c379a000000000000000000000000000000000000000000000000000000000815260040161097f90611407565b60405180910390fd5b6109926000610da5565b565b61099c610d9d565b73ffffffffffffffffffffffffffffffffffffffff166109ba610a54565b73ffffffffffffffffffffffffffffffffffffffff1614610a10576040517f08c379a0000000000000000000000000000000000000000000000000000000008152600401610a0790611407565b60405180910390fd5b80601160006101000a81548173ffffffffffffffffffffffffffffffffffffffff021916908373ffffffffffffffffffffffffffffffffffffffff16021790555050565b6000600660009054906101000a900473ffffffffffffffffffffffffffffffffffffffff16905090565b60125481565b610a8c610d9d565b73ffffffffffffffffffffffffffffffffffffffff16610aaa610a54565b73ffffffffffffffffffffffffffffffffffffffff1614610b00576040517f08c379a0000000000000000000000000000000000000000000000000000000008152600401610af790611407565b60405180910390fd5b80600b60006101000a81548160ff02191690831515021790555050565b60075481565b600d8181548110610b3357600080fd5b906000526020600020016000915090508054610b4e90611623565b80601f0160208091040260200160405190810160405280929190818152602001828054610b7a90611623565b8015610bc75780601f10610b9c57610100808354040283529160200191610bc7565b820191906000526020600020905b815481529060010190602001808311610baa57829003601f168201915b505050505081565b600f5481565b610bdd610d9d565b73ffffffffffffffffffffffffffffffffffffffff16610bfb610a54565b73ffffffffffffffffffffffffffffffffffffffff1614610c51576040517f08c379a0000000000000000000000000000000000000000000000000000000008152600401610c4890611407565b60405180910390fd5b600d81908060018154018082558091505060019003906000526020600020016000909190919091509080519060200190610c8c929190610e6b565b506001600e54610c9c9190611505565b600e8190555050565b610cad610d9d565b73ffffffffffffffffffffffffffffffffffffffff16610ccb610a54565b73ffffffffffffffffffffffffffffffffffffffff1614610d21576040517f08c379a0000000000000000000000000000000000000000000000000000000008152600401610d1890611407565b60405180910390fd5b600073ffffffffffffffffffffffffffffffffffffffff168173ffffffffffffffffffffffffffffffffffffffff161415610d91576040517f08c379a0000000000000000000000000000000000000000000000000000000008152600401610d88906113e7565b60405180910390fd5b610d9a81610da5565b50565b600033905090565b6000600660009054906101000a900473ffffffffffffffffffffffffffffffffffffffff16905081600660006101000a81548173ffffffffffffffffffffffffffffffffffffffff021916908373ffffffffffffffffffffffffffffffffffffffff1602179055508173ffffffffffffffffffffffffffffffffffffffff168173ffffffffffffffffffffffffffffffffffffffff167f8be0079c531659141344cd1fd0a4f28419497f9722a3daafe3b4186f6b6457e060405160405180910390a35050565b828054610e7790611623565b90600052602060002090601f016020900481019282610e995760008555610ee0565b82601f10610eb257805160ff1916838001178555610ee0565b82800160010185558215610ee0579182015b82811115610edf578251825591602001919060010190610ec4565b5b509050610eed9190610ef1565b5090565b5b80821115610f0a576000816000905550600101610ef2565b5090565b6000610f21610f1c84611487565b611462565b905082815260208101848484011115610f3d57610f3c61179a565b5b610f488482856115e1565b509392505050565b600081359050610f5f816118aa565b92915050565b600081359050610f74816118c1565b92915050565b600081519050610f89816118d8565b92915050565b60008083601f840112610fa557610fa4611790565b5b8235905067ffffffffffffffff811115610fc257610fc161178b565b5b602083019150836001820283011115610fde57610fdd611795565b5b9250929050565b600082601f830112610ffa57610ff9611790565b5b813561100a848260208601610f0e565b91505092915050565b600081359050611022816118ef565b92915050565b60006020828403121561103e5761103d6117a4565b5b600061104c84828501610f50565b91505092915050565b60006020828403121561106b5761106a6117a4565b5b600061107984828501610f65565b91505092915050565b600060208284031215611098576110976117a4565b5b60006110a684828501610f7a565b91505092915050565b600080602083850312156110c6576110c56117a4565b5b600083013567ffffffffffffffff8111156110e4576110e361179f565b5b6110f085828601610f8f565b92509250509250929050565b600060208284031215611112576111116117a4565b5b600082013567ffffffffffffffff8111156111305761112f61179f565b5b61113c84828501610fe5565b91505092915050565b60006020828403121561115b5761115a6117a4565b5b600061116984828501611013565b91505092915050565b61117b8161158f565b82525050565b61118a816115a1565b82525050565b600061119b826114cd565b6111a581856114e3565b93506111b58185602086016115f0565b6111be816117a9565b840191505092915050565b60006111d4826114d8565b6111de81856114f4565b93506111ee8185602086016115f0565b6111f7816117a9565b840191505092915050565b6000815461120f81611623565b61121981866114f4565b94506001821660008114611234576001811461124657611279565b60ff1983168652602086019350611279565b61124f856114b8565b60005b8381101561127157815481890152600182019150602081019050611252565b808801955050505b50505092915050565b600061128f6029836114f4565b915061129a826117ba565b604082019050919050565b60006112b26026836114f4565b91506112bd82611809565b604082019050919050565b60006112d56020836114f4565b91506112e082611858565b602082019050919050565b60006112f86016836114f4565b915061130382611881565b602082019050919050565b611317816115d7565b82525050565b60006020820190506113326000830184611172565b92915050565b600060208201905061134d6000830184611181565b92915050565b60006040820190506113686000830185611181565b818103602083015261137a8184611190565b90509392505050565b6000602082019050818103600083015261139d81846111c9565b905092915050565b600060208201905081810360008301526113bf8184611202565b905092915050565b600060208201905081810360008301526113e081611282565b9050919050565b60006020820190508181036000830152611400816112a5565b9050919050565b60006020820190508181036000830152611420816112c8565b9050919050565b60006020820190508181036000830152611440816112eb565b9050919050565b600060208201905061145c600083018461130e565b92915050565b600061146c61147d565b90506114788282611655565b919050565b6000604051905090565b600067ffffffffffffffff8211156114a2576114a161175c565b5b6114ab826117a9565b9050602081019050919050565b60008190508160005260206000209050919050565b600081519050919050565b600081519050919050565b600082825260208201905092915050565b600082825260208201905092915050565b6000611510826115d7565b915061151b836115d7565b9250827fffffffffffffffffffffffffffffffffffffffffffffffffffffffffffffffff038211156115505761154f6116cf565b5b828201905092915050565b6000611566826115d7565b9150611571836115d7565b925082821015611584576115836116cf565b5b828203905092915050565b600061159a826115b7565b9050919050565b60008115159050919050565b6000819050919050565b600073ffffffffffffffffffffffffffffffffffffffff82169050919050565b6000819050919050565b82818337600083830152505050565b60005b8381101561160e5780820151818401526020810190506115f3565b8381111561161d576000848401525b50505050565b6000600282049050600182168061163b57607f821691505b6020821081141561164f5761164e6116fe565b5b50919050565b61165e826117a9565b810181811067ffffffffffffffff8211171561167d5761167c61175c565b5b80604052505050565b6000611691826115d7565b91507fffffffffffffffffffffffffffffffffffffffffffffffffffffffffffffffff8214156116c4576116c36116cf565b5b600182019050919050565b7f4e487b7100000000000000000000000000000000000000000000000000000000600052601160045260246000fd5b7f4e487b7100000000000000000000000000000000000000000000000000000000600052602260045260246000fd5b7f4e487b7100000000000000000000000000000000000000000000000000000000600052603260045260246000fd5b7f4e487b7100000000000000000000000000000000000000000000000000000000600052604160045260246000fd5b600080fd5b600080fd5b600080fd5b600080fd5b600080fd5b600080fd5b6000601f19601f8301169050919050565b7f4f6e6c79205265717565737465723a2043616c6c6572206973206e6f7420612060008201527f7265717565737465720000000000000000000000000000000000000000000000602082015250565b7f4f776e61626c653a206e6577206f776e657220697320746865207a65726f206160008201527f6464726573730000000000000000000000000000000000000000000000000000602082015250565b7f4f776e61626c653a2063616c6c6572206973206e6f7420746865206f776e6572600082015250565b7f45717569747920466565206973206e6f74207061696400000000000000000000600082015250565b6118b38161158f565b81146118be57600080fd5b50565b6118ca816115a1565b81146118d557600080fd5b50565b6118e1816115ad565b81146118ec57600080fd5b50565b6118f8816115d7565b811461190357600080fd5b5056fea2646970667358221220846e14b14d1565ab2f851bf1d78844294f1e12d2cb0dc1afdbc6bf2b9a87db1d64736f6c63430008070033",
  "linkReferences": {},
  "deployedLinkReferences": {}
}