{
  "_format": "hh-sol-artifact-1",
  "contractName": "EquitiesKeeper",
  "sourceName": "contracts/EquitiesKeeper.sol",
  "abi": [
    {
      "inputs": [],
      "stateMutability": "nonpayable",
      "type": "constructor"
    },
    {
      "anonymous": false,
      "inputs": [
        {
          "indexed": true,
          "internalType": "bytes32",
          "name": "id",
          "type": "bytes32"
        }
      ],
      "name": "ChainlinkCancelled",
      "type": "event"
    },
    {
      "anonymous": false,
      "inputs": [
        {
          "indexed": true,
          "internalType": "bytes32",
          "name": "id",
          "type": "bytes32"
        }
      ],
      "name": "ChainlinkFulfilled",
      "type": "event"
    },
    {
      "anonymous": false,
      "inputs": [
        {
          "indexed": true,
          "internalType": "bytes32",
          "name": "id",
          "type": "bytes32"
        }
      ],
      "name": "ChainlinkRequested",
      "type": "event"
    },
    {
      "anonymous": false,
      "inputs": [
        {
          "indexed": true,
          "internalType": "address",
          "name": "previousOwner",
          "type": "address"
        },
        {
          "indexed": true,
          "internalType": "address",
          "name": "newOwner",
          "type": "address"
        }
      ],
      "name": "OwnershipTransferred",
      "type": "event"
    },
    {
      "inputs": [
        {
          "internalType": "string",
          "name": "_equity",
          "type": "string"
        }
      ],
      "name": "addEquity",
      "outputs": [],
      "stateMutability": "nonpayable",
      "type": "function"
    },
    {
      "inputs": [
        {
          "internalType": "bytes",
          "name": "",
          "type": "bytes"
        }
      ],
      "name": "checkUpkeep",
      "outputs": [
        {
          "internalType": "bool",
          "name": "upkeepNeeded",
          "type": "bool"
        },
        {
          "internalType": "bytes",
          "name": "",
          "type": "bytes"
        }
      ],
      "stateMutability": "view",
      "type": "function"
    },
    {
      "inputs": [],
      "name": "counter",
      "outputs": [
        {
          "internalType": "uint256",
          "name": "",
          "type": "uint256"
        }
      ],
      "stateMutability": "view",
      "type": "function"
    },
    {
      "inputs": [
        {
          "internalType": "uint256",
          "name": "",
          "type": "uint256"
        }
      ],
      "name": "equities",
      "outputs": [
        {
          "internalType": "string",
          "name": "",
          "type": "string"
        }
      ],
      "stateMutability": "view",
      "type": "function"
    },
    {
      "inputs": [],
      "name": "interval",
      "outputs": [
        {
          "internalType": "uint256",
          "name": "",
          "type": "uint256"
        }
      ],
      "stateMutability": "view",
      "type": "function"
    },
    {
      "inputs": [],
      "name": "isActive",
      "outputs": [
        {
          "internalType": "bool",
          "name": "",
          "type": "bool"
        }
      ],
      "stateMutability": "view",
      "type": "function"
    },
    {
      "inputs": [
        {
          "internalType": "address",
          "name": "_requester",
          "type": "address"
        }
      ],
      "name": "isRequester",
      "outputs": [
        {
          "internalType": "bool",
          "name": "",
          "type": "bool"
        }
      ],
      "stateMutability": "view",
      "type": "function"
    },
    {
      "inputs": [],
      "name": "lastTimeStamp",
      "outputs": [
        {
          "internalType": "uint256",
          "name": "",
          "type": "uint256"
        }
      ],
      "stateMutability": "view",
      "type": "function"
    },
    {
      "inputs": [],
      "name": "owner",
      "outputs": [
        {
          "internalType": "address",
          "name": "",
          "type": "address"
        }
      ],
      "stateMutability": "view",
      "type": "function"
    },
    {
      "inputs": [
        {
          "internalType": "bytes",
          "name": "",
          "type": "bytes"
        }
      ],
      "name": "performUpkeep",
      "outputs": [],
      "stateMutability": "nonpayable",
      "type": "function"
    },
    {
      "inputs": [],
      "name": "renounceOwnership",
      "outputs": [],
      "stateMutability": "nonpayable",
      "type": "function"
    },
    {
      "inputs": [
        {
          "internalType": "bool",
          "name": "newValue",
          "type": "bool"
        }
      ],
      "name": "setActive",
      "outputs": [],
      "stateMutability": "nonpayable",
      "type": "function"
    },
    {
      "inputs": [
        {
          "internalType": "address",
          "name": "_priceFeedContract",
          "type": "address"
        }
      ],
      "name": "setPriceFeedContract",
      "outputs": [],
      "stateMutability": "nonpayable",
      "type": "function"
    },
    {
      "inputs": [
        {
          "internalType": "address",
          "name": "_requester",
          "type": "address"
        }
      ],
      "name": "setRequester",
      "outputs": [],
      "stateMutability": "nonpayable",
      "type": "function"
    },
    {
      "inputs": [
        {
          "internalType": "address",
          "name": "newOwner",
          "type": "address"
        }
      ],
      "name": "transferOwnership",
      "outputs": [],
      "stateMutability": "nonpayable",
      "type": "function"
    },
    {
      "inputs": [],
      "name": "volume",
      "outputs": [
        {
          "internalType": "uint256",
          "name": "",
          "type": "uint256"
        }
      ],
      "stateMutability": "view",
      "type": "function"
    }
  ],
  "bytecode": "0x60a06040526001600455600a60809081525034801561001d57600080fd5b5061003a61002f61009760201b60201c565b61009f60201b60201c565b6001600c60003373ffffffffffffffffffffffffffffffffffffffff1673ffffffffffffffffffffffffffffffffffffffff16815260200190815260200160002060006101000a81548160ff021916908315150217905550610165565b600033905090565b6000600660009054906101000a900473ffffffffffffffffffffffffffffffffffffffff16905081600660006101000a81548173ffffffffffffffffffffffffffffffffffffffff021916908373ffffffffffffffffffffffffffffffffffffffff1602179055508173ffffffffffffffffffffffffffffffffffffffff168173ffffffffffffffffffffffffffffffffffffffff167f8be0079c531659141344cd1fd0a4f28419497f9722a3daafe3b4186f6b6457e060405160405180910390a35050565b60805161166161018e600039600081816105b00152818161071d01526108c901526116616000f3fe608060405234801561001057600080fd5b50600436106101005760003560e01c8063715018a611610097578063acec338a11610066578063acec338a14610276578063c618a1e414610292578063d10fc6f8146102b0578063f2fde38b146102e057610100565b8063715018a614610214578063746264041461021e5780638da5cb5b1461023a578063947a36fb1461025857610100565b80633f3b3b27116100d35780633f3b3b271461018b5780634585e33b146101a957806361bc221a146101c55780636e04ff0d146101e357610100565b80630252917714610105578063227a30c51461013557806322f3e2d4146101515780633f0676791461016f575b600080fd5b61011f600480360381019061011a9190610db9565b6102fc565b60405161012c91906110a6565b60405180910390f35b61014f600480360381019061014a9190610db9565b610352565b005b610159610429565b60405161016691906110a6565b60405180910390f35b61018960048036038101906101849190610e8d565b61043c565b005b6101936104f7565b6040516101a09190611195565b60405180910390f35b6101c360048036038101906101be9190610e40565b6104fd565b005b6101cd6106fa565b6040516101da9190611195565b60405180910390f35b6101fd60048036038101906101f89190610e40565b610700565b60405161020b9291906110c1565b60405180910390f35b61021c610755565b005b61023860048036038101906102339190610db9565b6107dd565b005b61024261089d565b60405161024f919061108b565b60405180910390f35b6102606108c7565b60405161026d9190611195565b60405180910390f35b610290600480360381019061028b9190610de6565b6108eb565b005b61029a610984565b6040516102a79190611195565b60405180910390f35b6102ca60048036038101906102c59190610ed6565b61098a565b6040516102d791906110f1565b60405180910390f35b6102fa60048036038101906102f59190610db9565b610a36565b005b6000600c60008373ffffffffffffffffffffffffffffffffffffffff1673ffffffffffffffffffffffffffffffffffffffff16815260200190815260200160002060009054906101000a900460ff169050919050565b61035a610b2e565b73ffffffffffffffffffffffffffffffffffffffff1661037861089d565b73ffffffffffffffffffffffffffffffffffffffff16146103ce576040517f08c379a00000000000000000000000000000000000000000000000000000000081526004016103c590611175565b60405180910390fd5b6001600c60008373ffffffffffffffffffffffffffffffffffffffff1673ffffffffffffffffffffffffffffffffffffffff16815260200190815260200160002060006101000a81548160ff02191690831515021790555050565b600b60009054906101000a900460ff1681565b610444610b2e565b73ffffffffffffffffffffffffffffffffffffffff1661046261089d565b73ffffffffffffffffffffffffffffffffffffffff16146104b8576040517f08c379a00000000000000000000000000000000000000000000000000000000081526004016104af90611175565b60405180910390fd5b600d819080600181540180825580915050600190039060005260206000200160009091909190915090805190602001906104f3929190610bfc565b5050565b60105481565b60011515600c600061050d610b2e565b73ffffffffffffffffffffffffffffffffffffffff1673ffffffffffffffffffffffffffffffffffffffff16815260200190815260200160002060009054906101000a900460ff16151514610597576040517f08c379a000000000000000000000000000000000000000000000000000000000815260040161058e90611135565b60405180910390fd5b600b60009054906101000a900460ff1680156105df57507f0000000000000000000000000000000000000000000000000000000000000000601054426105dd91906112a9565b115b156106f657426010819055506001600e546105fa9190611253565b600e819055506000600f60009054906101000a900473ffffffffffffffffffffffffffffffffffffffff16905060005b600d805490508110156106f3578173ffffffffffffffffffffffffffffffffffffffff1663d4fe6bd0600d83815481106106675761066661147b565b5b906000526020600020016040518263ffffffff1660e01b815260040161068d9190611113565b602060405180830381600087803b1580156106a757600080fd5b505af11580156106bb573d6000803e3d6000fd5b505050506040513d601f19601f820116820180604052508101906106df9190610e13565b5080806106eb906113d4565b91505061062a565b50505b5050565b600e5481565b60006060600b60009054906101000a900460ff16801561074c57507f00000000000000000000000000000000000000000000000000000000000000006010544261074a91906112a9565b115b91509250929050565b61075d610b2e565b73ffffffffffffffffffffffffffffffffffffffff1661077b61089d565b73ffffffffffffffffffffffffffffffffffffffff16146107d1576040517f08c379a00000000000000000000000000000000000000000000000000000000081526004016107c890611175565b60405180910390fd5b6107db6000610b36565b565b6107e5610b2e565b73ffffffffffffffffffffffffffffffffffffffff1661080361089d565b73ffffffffffffffffffffffffffffffffffffffff1614610859576040517f08c379a000000000000000000000000000000000000000000000000000000000815260040161085090611175565b60405180910390fd5b80600f60006101000a81548173ffffffffffffffffffffffffffffffffffffffff021916908373ffffffffffffffffffffffffffffffffffffffff16021790555050565b6000600660009054906101000a900473ffffffffffffffffffffffffffffffffffffffff16905090565b7f000000000000000000000000000000000000000000000000000000000000000081565b6108f3610b2e565b73ffffffffffffffffffffffffffffffffffffffff1661091161089d565b73ffffffffffffffffffffffffffffffffffffffff1614610967576040517f08c379a000000000000000000000000000000000000000000000000000000000815260040161095e90611175565b60405180910390fd5b80600b60006101000a81548160ff02191690831515021790555050565b60075481565b600d818154811061099a57600080fd5b9060005260206000200160009150905080546109b590611371565b80601f01602080910402602001604051908101604052809291908181526020018280546109e190611371565b8015610a2e5780601f10610a0357610100808354040283529160200191610a2e565b820191906000526020600020905b815481529060010190602001808311610a1157829003601f168201915b505050505081565b610a3e610b2e565b73ffffffffffffffffffffffffffffffffffffffff16610a5c61089d565b73ffffffffffffffffffffffffffffffffffffffff1614610ab2576040517f08c379a0000000000000000000000000000000000000000000000000000000008152600401610aa990611175565b60405180910390fd5b600073ffffffffffffffffffffffffffffffffffffffff168173ffffffffffffffffffffffffffffffffffffffff161415610b22576040517f08c379a0000000000000000000000000000000000000000000000000000000008152600401610b1990611155565b60405180910390fd5b610b2b81610b36565b50565b600033905090565b6000600660009054906101000a900473ffffffffffffffffffffffffffffffffffffffff16905081600660006101000a81548173ffffffffffffffffffffffffffffffffffffffff021916908373ffffffffffffffffffffffffffffffffffffffff1602179055508173ffffffffffffffffffffffffffffffffffffffff168173ffffffffffffffffffffffffffffffffffffffff167f8be0079c531659141344cd1fd0a4f28419497f9722a3daafe3b4186f6b6457e060405160405180910390a35050565b828054610c0890611371565b90600052602060002090601f016020900481019282610c2a5760008555610c71565b82601f10610c4357805160ff1916838001178555610c71565b82800160010185558215610c71579182015b82811115610c70578251825591602001919060010190610c55565b5b509050610c7e9190610c82565b5090565b5b80821115610c9b576000816000905550600101610c83565b5090565b6000610cb2610cad846111d5565b6111b0565b905082815260208101848484011115610cce57610ccd6114e8565b5b610cd984828561132f565b509392505050565b600081359050610cf0816115cf565b92915050565b600081359050610d05816115e6565b92915050565b600081519050610d1a816115fd565b92915050565b60008083601f840112610d3657610d356114de565b5b8235905067ffffffffffffffff811115610d5357610d526114d9565b5b602083019150836001820283011115610d6f57610d6e6114e3565b5b9250929050565b600082601f830112610d8b57610d8a6114de565b5b8135610d9b848260208601610c9f565b91505092915050565b600081359050610db381611614565b92915050565b600060208284031215610dcf57610dce6114f2565b5b6000610ddd84828501610ce1565b91505092915050565b600060208284031215610dfc57610dfb6114f2565b5b6000610e0a84828501610cf6565b91505092915050565b600060208284031215610e2957610e286114f2565b5b6000610e3784828501610d0b565b91505092915050565b60008060208385031215610e5757610e566114f2565b5b600083013567ffffffffffffffff811115610e7557610e746114ed565b5b610e8185828601610d20565b92509250509250929050565b600060208284031215610ea357610ea26114f2565b5b600082013567ffffffffffffffff811115610ec157610ec06114ed565b5b610ecd84828501610d76565b91505092915050565b600060208284031215610eec57610eeb6114f2565b5b6000610efa84828501610da4565b91505092915050565b610f0c816112dd565b82525050565b610f1b816112ef565b82525050565b6000610f2c8261121b565b610f368185611231565b9350610f4681856020860161133e565b610f4f816114f7565b840191505092915050565b6000610f6582611226565b610f6f8185611242565b9350610f7f81856020860161133e565b610f88816114f7565b840191505092915050565b60008154610fa081611371565b610faa8186611242565b94506001821660008114610fc55760018114610fd75761100a565b60ff198316865260208601935061100a565b610fe085611206565b60005b8381101561100257815481890152600182019150602081019050610fe3565b808801955050505b50505092915050565b6000611020602983611242565b915061102b82611508565b604082019050919050565b6000611043602683611242565b915061104e82611557565b604082019050919050565b6000611066602083611242565b9150611071826115a6565b602082019050919050565b61108581611325565b82525050565b60006020820190506110a06000830184610f03565b92915050565b60006020820190506110bb6000830184610f12565b92915050565b60006040820190506110d66000830185610f12565b81810360208301526110e88184610f21565b90509392505050565b6000602082019050818103600083015261110b8184610f5a565b905092915050565b6000602082019050818103600083015261112d8184610f93565b905092915050565b6000602082019050818103600083015261114e81611013565b9050919050565b6000602082019050818103600083015261116e81611036565b9050919050565b6000602082019050818103600083015261118e81611059565b9050919050565b60006020820190506111aa600083018461107c565b92915050565b60006111ba6111cb565b90506111c682826113a3565b919050565b6000604051905090565b600067ffffffffffffffff8211156111f0576111ef6114aa565b5b6111f9826114f7565b9050602081019050919050565b60008190508160005260206000209050919050565b600081519050919050565b600081519050919050565b600082825260208201905092915050565b600082825260208201905092915050565b600061125e82611325565b915061126983611325565b9250827fffffffffffffffffffffffffffffffffffffffffffffffffffffffffffffffff0382111561129e5761129d61141d565b5b828201905092915050565b60006112b482611325565b91506112bf83611325565b9250828210156112d2576112d161141d565b5b828203905092915050565b60006112e882611305565b9050919050565b60008115159050919050565b6000819050919050565b600073ffffffffffffffffffffffffffffffffffffffff82169050919050565b6000819050919050565b82818337600083830152505050565b60005b8381101561135c578082015181840152602081019050611341565b8381111561136b576000848401525b50505050565b6000600282049050600182168061138957607f821691505b6020821081141561139d5761139c61144c565b5b50919050565b6113ac826114f7565b810181811067ffffffffffffffff821117156113cb576113ca6114aa565b5b80604052505050565b60006113df82611325565b91507fffffffffffffffffffffffffffffffffffffffffffffffffffffffffffffffff8214156114125761141161141d565b5b600182019050919050565b7f4e487b7100000000000000000000000000000000000000000000000000000000600052601160045260246000fd5b7f4e487b7100000000000000000000000000000000000000000000000000000000600052602260045260246000fd5b7f4e487b7100000000000000000000000000000000000000000000000000000000600052603260045260246000fd5b7f4e487b7100000000000000000000000000000000000000000000000000000000600052604160045260246000fd5b600080fd5b600080fd5b600080fd5b600080fd5b600080fd5b600080fd5b6000601f19601f8301169050919050565b7f4f6e6c79205265717565737465723a2043616c6c6572206973206e6f7420612060008201527f7265717565737465720000000000000000000000000000000000000000000000602082015250565b7f4f776e61626c653a206e6577206f776e657220697320746865207a65726f206160008201527f6464726573730000000000000000000000000000000000000000000000000000602082015250565b7f4f776e61626c653a2063616c6c6572206973206e6f7420746865206f776e6572600082015250565b6115d8816112dd565b81146115e357600080fd5b50565b6115ef816112ef565b81146115fa57600080fd5b50565b611606816112fb565b811461161157600080fd5b50565b61161d81611325565b811461162857600080fd5b5056fea2646970667358221220aa0c02867b3eb9c1edcd82fb01134fd9d1f33b59d995a3172cddf953e9d941b164736f6c63430008070033",
  "linkReferences": {},
  "deployedLinkReferences": {}
}