{
  "_format": "hh-sol-artifact-1",
  "contractName": "EquitiesKeeper",
  "sourceName": "contracts/EquitiesKeeper.sol",
  "abi": [
    {
      "inputs": [],
      "stateMutability": "nonpayable",
      "type": "constructor"
    },
    {
      "anonymous": false,
      "inputs": [
        {
          "indexed": true,
          "internalType": "bytes32",
          "name": "id",
          "type": "bytes32"
        }
      ],
      "name": "ChainlinkCancelled",
      "type": "event"
    },
    {
      "anonymous": false,
      "inputs": [
        {
          "indexed": true,
          "internalType": "bytes32",
          "name": "id",
          "type": "bytes32"
        }
      ],
      "name": "ChainlinkFulfilled",
      "type": "event"
    },
    {
      "anonymous": false,
      "inputs": [
        {
          "indexed": true,
          "internalType": "bytes32",
          "name": "id",
          "type": "bytes32"
        }
      ],
      "name": "ChainlinkRequested",
      "type": "event"
    },
    {
      "anonymous": false,
      "inputs": [
        {
          "indexed": true,
          "internalType": "address",
          "name": "previousOwner",
          "type": "address"
        },
        {
          "indexed": true,
          "internalType": "address",
          "name": "newOwner",
          "type": "address"
        }
      ],
      "name": "OwnershipTransferred",
      "type": "event"
    },
    {
      "inputs": [],
      "name": "EquityFee",
      "outputs": [
        {
          "internalType": "uint256",
          "name": "",
          "type": "uint256"
        }
      ],
      "stateMutability": "view",
      "type": "function"
    },
    {
      "inputs": [
        {
          "internalType": "string",
          "name": "_equity",
          "type": "string"
        }
      ],
      "name": "addEquity",
      "outputs": [],
      "stateMutability": "payable",
      "type": "function"
    },
    {
      "inputs": [
        {
          "internalType": "string",
          "name": "_equity",
          "type": "string"
        }
      ],
      "name": "adminAddEquity",
      "outputs": [],
      "stateMutability": "nonpayable",
      "type": "function"
    },
    {
      "inputs": [
        {
          "internalType": "bytes",
          "name": "",
          "type": "bytes"
        }
      ],
      "name": "checkUpkeep",
      "outputs": [
        {
          "internalType": "bool",
          "name": "upkeepNeeded",
          "type": "bool"
        },
        {
          "internalType": "bytes",
          "name": "",
          "type": "bytes"
        }
      ],
      "stateMutability": "view",
      "type": "function"
    },
    {
      "inputs": [],
      "name": "counter",
      "outputs": [
        {
          "internalType": "uint256",
          "name": "",
          "type": "uint256"
        }
      ],
      "stateMutability": "view",
      "type": "function"
    },
    {
      "inputs": [
        {
          "internalType": "uint256",
          "name": "",
          "type": "uint256"
        }
      ],
      "name": "equities",
      "outputs": [
        {
          "internalType": "string",
          "name": "",
          "type": "string"
        }
      ],
      "stateMutability": "view",
      "type": "function"
    },
    {
      "inputs": [],
      "name": "interval",
      "outputs": [
        {
          "internalType": "uint256",
          "name": "",
          "type": "uint256"
        }
      ],
      "stateMutability": "view",
      "type": "function"
    },
    {
      "inputs": [],
      "name": "isActive",
      "outputs": [
        {
          "internalType": "bool",
          "name": "",
          "type": "bool"
        }
      ],
      "stateMutability": "view",
      "type": "function"
    },
    {
      "inputs": [
        {
          "internalType": "address",
          "name": "_requester",
          "type": "address"
        }
      ],
      "name": "isRequester",
      "outputs": [
        {
          "internalType": "bool",
          "name": "",
          "type": "bool"
        }
      ],
      "stateMutability": "view",
      "type": "function"
    },
    {
      "inputs": [],
      "name": "lastTimeStamp",
      "outputs": [
        {
          "internalType": "uint256",
          "name": "",
          "type": "uint256"
        }
      ],
      "stateMutability": "view",
      "type": "function"
    },
    {
      "inputs": [],
      "name": "numEquities",
      "outputs": [
        {
          "internalType": "uint256",
          "name": "",
          "type": "uint256"
        }
      ],
      "stateMutability": "view",
      "type": "function"
    },
    {
      "inputs": [],
      "name": "owner",
      "outputs": [
        {
          "internalType": "address",
          "name": "",
          "type": "address"
        }
      ],
      "stateMutability": "view",
      "type": "function"
    },
    {
      "inputs": [
        {
          "internalType": "bytes",
          "name": "",
          "type": "bytes"
        }
      ],
      "name": "performUpkeep",
      "outputs": [],
      "stateMutability": "nonpayable",
      "type": "function"
    },
    {
      "inputs": [],
      "name": "renounceOwnership",
      "outputs": [],
      "stateMutability": "nonpayable",
      "type": "function"
    },
    {
      "inputs": [
        {
          "internalType": "bool",
          "name": "newValue",
          "type": "bool"
        }
      ],
      "name": "setActive",
      "outputs": [],
      "stateMutability": "nonpayable",
      "type": "function"
    },
    {
      "inputs": [
        {
          "internalType": "uint256",
          "name": "_EquityFee",
          "type": "uint256"
        }
      ],
      "name": "setEquityFee",
      "outputs": [],
      "stateMutability": "nonpayable",
      "type": "function"
    },
    {
      "inputs": [
        {
          "internalType": "uint256",
          "name": "_interval",
          "type": "uint256"
        }
      ],
      "name": "setInterval",
      "outputs": [],
      "stateMutability": "nonpayable",
      "type": "function"
    },
    {
      "inputs": [
        {
          "internalType": "address",
          "name": "_priceFeedContract",
          "type": "address"
        }
      ],
      "name": "setPriceFeedContract",
      "outputs": [],
      "stateMutability": "nonpayable",
      "type": "function"
    },
    {
      "inputs": [
        {
          "internalType": "address",
          "name": "_requester",
          "type": "address"
        }
      ],
      "name": "setRequester",
      "outputs": [],
      "stateMutability": "nonpayable",
      "type": "function"
    },
    {
      "inputs": [
        {
          "internalType": "address",
          "name": "newOwner",
          "type": "address"
        }
      ],
      "name": "transferOwnership",
      "outputs": [],
      "stateMutability": "nonpayable",
      "type": "function"
    },
    {
      "inputs": [],
      "name": "volume",
      "outputs": [
        {
          "internalType": "uint256",
          "name": "",
          "type": "uint256"
        }
      ],
      "stateMutability": "view",
      "type": "function"
    },
    {
      "inputs": [],
      "name": "withdrawLink",
      "outputs": [],
      "stateMutability": "nonpayable",
      "type": "function"
    }
  ],
  "bytecode": "0x608060405260016004556000600e55671bc16d674ec80000600f5561025860125534801561002c57600080fd5b5061004961003e6100a660201b60201c565b6100ae60201b60201c565b6001600c60003373ffffffffffffffffffffffffffffffffffffffff1673ffffffffffffffffffffffffffffffffffffffff16815260200190815260200160002060006101000a81548160ff021916908315150217905550610174565b600033905090565b6000600660009054906101000a900473ffffffffffffffffffffffffffffffffffffffff16905081600660006101000a81548173ffffffffffffffffffffffffffffffffffffffff021916908373ffffffffffffffffffffffffffffffffffffffff1602179055508173ffffffffffffffffffffffffffffffffffffffff168173ffffffffffffffffffffffffffffffffffffffff167f8be0079c531659141344cd1fd0a4f28419497f9722a3daafe3b4186f6b6457e060405160405180910390a35050565b611c79806101836000396000f3fe6080604052600436106101355760003560e01c8063715018a6116100ab578063acec338a1161006f578063acec338a146103ce578063c618a1e4146103f7578063d10fc6f814610422578063d7457f8c1461045f578063e9add9071461048a578063f2fde38b146104b357610135565b8063715018a61461032157806374626404146103385780638da5cb5b146103615780638dc654a21461038c578063947a36fb146103a357610135565b80633f067679116100fd5780633f0676791461021d5780633f3b3b27146102395780634585e33b146102645780634d9f8b741461028d57806361bc221a146102b85780636e04ff0d146102e357610135565b8063025291771461013a578063227a30c51461017757806322a90082146101a057806322f3e2d4146101c9578063331e049a146101f4575b600080fd5b34801561014657600080fd5b50610161600480360381019061015c91906112e2565b6104dc565b60405161016e9190611675565b60405180910390f35b34801561018357600080fd5b5061019e600480360381019061019991906112e2565b610532565b005b3480156101ac57600080fd5b506101c760048036038101906101c2919061142c565b610609565b005b3480156101d557600080fd5b506101de61068f565b6040516101eb9190611675565b60405180910390f35b34801561020057600080fd5b5061021b6004803603810190610216919061142c565b6106a2565b005b610237600480360381019061023291906113e3565b610728565b005b34801561024557600080fd5b5061024e6107c0565b60405161025b9190611784565b60405180910390f35b34801561027057600080fd5b5061028b60048036038101906102869190611396565b6107c6565b005b34801561029957600080fd5b506102a26109a5565b6040516102af9190611784565b60405180910390f35b3480156102c457600080fd5b506102cd6109ab565b6040516102da9190611784565b60405180910390f35b3480156102ef57600080fd5b5061030a60048036038101906103059190611396565b6109b1565b604051610318929190611690565b60405180910390f35b34801561032d57600080fd5b506103366109e8565b005b34801561034457600080fd5b5061035f600480360381019061035a91906112e2565b610a70565b005b34801561036d57600080fd5b50610376610b30565b6040516103839190611631565b60405180910390f35b34801561039857600080fd5b506103a1610b5a565b005b3480156103af57600080fd5b506103b8610d0e565b6040516103c59190611784565b60405180910390f35b3480156103da57600080fd5b506103f560048036038101906103f0919061130f565b610d14565b005b34801561040357600080fd5b5061040c610dad565b6040516104199190611784565b60405180910390f35b34801561042e57600080fd5b506104496004803603810190610444919061142c565b610db3565b60405161045691906116c0565b60405180910390f35b34801561046b57600080fd5b50610474610e5f565b6040516104819190611784565b60405180910390f35b34801561049657600080fd5b506104b160048036038101906104ac91906113e3565b610e65565b005b3480156104bf57600080fd5b506104da60048036038101906104d591906112e2565b610f35565b005b6000600c60008373ffffffffffffffffffffffffffffffffffffffff1673ffffffffffffffffffffffffffffffffffffffff16815260200190815260200160002060009054906101000a900460ff169050919050565b61053a61102d565b73ffffffffffffffffffffffffffffffffffffffff16610558610b30565b73ffffffffffffffffffffffffffffffffffffffff16146105ae576040517f08c379a00000000000000000000000000000000000000000000000000000000081526004016105a590611744565b60405180910390fd5b6001600c60008373ffffffffffffffffffffffffffffffffffffffff1673ffffffffffffffffffffffffffffffffffffffff16815260200190815260200160002060006101000a81548160ff02191690831515021790555050565b61061161102d565b73ffffffffffffffffffffffffffffffffffffffff1661062f610b30565b73ffffffffffffffffffffffffffffffffffffffff1614610685576040517f08c379a000000000000000000000000000000000000000000000000000000000815260040161067c90611744565b60405180910390fd5b8060128190555050565b600b60009054906101000a900460ff1681565b6106aa61102d565b73ffffffffffffffffffffffffffffffffffffffff166106c8610b30565b73ffffffffffffffffffffffffffffffffffffffff161461071e576040517f08c379a000000000000000000000000000000000000000000000000000000000815260040161071590611744565b60405180910390fd5b80600f8190555050565b600f54341461076c576040517f08c379a000000000000000000000000000000000000000000000000000000000815260040161076390611764565b60405180910390fd5b600d819080600181540180825580915050600190039060005260206000200160009091909190915090805190602001906107a79291906110fb565b506001600e546107b79190611842565b600e8190555050565b60135481565b60011515600c60006107d661102d565b73ffffffffffffffffffffffffffffffffffffffff1673ffffffffffffffffffffffffffffffffffffffff16815260200190815260200160002060009054906101000a900460ff16151514610860576040517f08c379a000000000000000000000000000000000000000000000000000000000815260040161085790611704565b60405180910390fd5b600b60009054906101000a900460ff16801561088a5750601254601354426108889190611898565b115b156109a1574260138190555060016010546108a59190611842565b6010819055506000601160009054906101000a900473ffffffffffffffffffffffffffffffffffffffff16905060005b600d8054905081101561099e578173ffffffffffffffffffffffffffffffffffffffff1663d4fe6bd0600d838154811061091257610911611a6a565b5b906000526020600020016040518263ffffffff1660e01b815260040161093891906116e2565b602060405180830381600087803b15801561095257600080fd5b505af1158015610966573d6000803e3d6000fd5b505050506040513d601f19601f8201168201806040525081019061098a9190611369565b508080610996906119c3565b9150506108d5565b50505b5050565b600e5481565b60105481565b60006060600b60009054906101000a900460ff1680156109df5750601254601354426109dd9190611898565b115b91509250929050565b6109f061102d565b73ffffffffffffffffffffffffffffffffffffffff16610a0e610b30565b73ffffffffffffffffffffffffffffffffffffffff1614610a64576040517f08c379a0000000000000000000000000000000000000000000000000000000008152600401610a5b90611744565b60405180910390fd5b610a6e6000611035565b565b610a7861102d565b73ffffffffffffffffffffffffffffffffffffffff16610a96610b30565b73ffffffffffffffffffffffffffffffffffffffff1614610aec576040517f08c379a0000000000000000000000000000000000000000000000000000000008152600401610ae390611744565b60405180910390fd5b80601160006101000a81548173ffffffffffffffffffffffffffffffffffffffff021916908373ffffffffffffffffffffffffffffffffffffffff16021790555050565b6000600660009054906101000a900473ffffffffffffffffffffffffffffffffffffffff16905090565b610b6261102d565b73ffffffffffffffffffffffffffffffffffffffff16610b80610b30565b73ffffffffffffffffffffffffffffffffffffffff1614610bd6576040517f08c379a0000000000000000000000000000000000000000000000000000000008152600401610bcd90611744565b60405180910390fd5b600073326c977e6efc84e512bb9c30f76e30c160ed06fb905060008173ffffffffffffffffffffffffffffffffffffffff166370a08231306040518263ffffffff1660e01b8152600401610c2a9190611631565b60206040518083038186803b158015610c4257600080fd5b505afa158015610c56573d6000803e3d6000fd5b505050506040513d601f19601f82011682018060405250810190610c7a9190611459565b90508173ffffffffffffffffffffffffffffffffffffffff1663a9059cbb33836040518363ffffffff1660e01b8152600401610cb792919061164c565b602060405180830381600087803b158015610cd157600080fd5b505af1158015610ce5573d6000803e3d6000fd5b505050506040513d601f19601f82011682018060405250810190610d09919061133c565b505050565b60125481565b610d1c61102d565b73ffffffffffffffffffffffffffffffffffffffff16610d3a610b30565b73ffffffffffffffffffffffffffffffffffffffff1614610d90576040517f08c379a0000000000000000000000000000000000000000000000000000000008152600401610d8790611744565b60405180910390fd5b80600b60006101000a81548160ff02191690831515021790555050565b60075481565b600d8181548110610dc357600080fd5b906000526020600020016000915090508054610dde90611960565b80601f0160208091040260200160405190810160405280929190818152602001828054610e0a90611960565b8015610e575780601f10610e2c57610100808354040283529160200191610e57565b820191906000526020600020905b815481529060010190602001808311610e3a57829003601f168201915b505050505081565b600f5481565b610e6d61102d565b73ffffffffffffffffffffffffffffffffffffffff16610e8b610b30565b73ffffffffffffffffffffffffffffffffffffffff1614610ee1576040517f08c379a0000000000000000000000000000000000000000000000000000000008152600401610ed890611744565b60405180910390fd5b600d81908060018154018082558091505060019003906000526020600020016000909190919091509080519060200190610f1c9291906110fb565b506001600e54610f2c9190611842565b600e8190555050565b610f3d61102d565b73ffffffffffffffffffffffffffffffffffffffff16610f5b610b30565b73ffffffffffffffffffffffffffffffffffffffff1614610fb1576040517f08c379a0000000000000000000000000000000000000000000000000000000008152600401610fa890611744565b60405180910390fd5b600073ffffffffffffffffffffffffffffffffffffffff168173ffffffffffffffffffffffffffffffffffffffff161415611021576040517f08c379a000000000000000000000000000000000000000000000000000000000815260040161101890611724565b60405180910390fd5b61102a81611035565b50565b600033905090565b6000600660009054906101000a900473ffffffffffffffffffffffffffffffffffffffff16905081600660006101000a81548173ffffffffffffffffffffffffffffffffffffffff021916908373ffffffffffffffffffffffffffffffffffffffff1602179055508173ffffffffffffffffffffffffffffffffffffffff168173ffffffffffffffffffffffffffffffffffffffff167f8be0079c531659141344cd1fd0a4f28419497f9722a3daafe3b4186f6b6457e060405160405180910390a35050565b82805461110790611960565b90600052602060002090601f0160209004810192826111295760008555611170565b82601f1061114257805160ff1916838001178555611170565b82800160010185558215611170579182015b8281111561116f578251825591602001919060010190611154565b5b50905061117d9190611181565b5090565b5b8082111561119a576000816000905550600101611182565b5090565b60006111b16111ac846117c4565b61179f565b9050828152602081018484840111156111cd576111cc611ad7565b5b6111d884828561191e565b509392505050565b6000813590506111ef81611be7565b92915050565b60008135905061120481611bfe565b92915050565b60008151905061121981611bfe565b92915050565b60008151905061122e81611c15565b92915050565b60008083601f84011261124a57611249611acd565b5b8235905067ffffffffffffffff81111561126757611266611ac8565b5b60208301915083600182028301111561128357611282611ad2565b5b9250929050565b600082601f83011261129f5761129e611acd565b5b81356112af84826020860161119e565b91505092915050565b6000813590506112c781611c2c565b92915050565b6000815190506112dc81611c2c565b92915050565b6000602082840312156112f8576112f7611ae1565b5b6000611306848285016111e0565b91505092915050565b60006020828403121561132557611324611ae1565b5b6000611333848285016111f5565b91505092915050565b60006020828403121561135257611351611ae1565b5b60006113608482850161120a565b91505092915050565b60006020828403121561137f5761137e611ae1565b5b600061138d8482850161121f565b91505092915050565b600080602083850312156113ad576113ac611ae1565b5b600083013567ffffffffffffffff8111156113cb576113ca611adc565b5b6113d785828601611234565b92509250509250929050565b6000602082840312156113f9576113f8611ae1565b5b600082013567ffffffffffffffff81111561141757611416611adc565b5b6114238482850161128a565b91505092915050565b60006020828403121561144257611441611ae1565b5b6000611450848285016112b8565b91505092915050565b60006020828403121561146f5761146e611ae1565b5b600061147d848285016112cd565b91505092915050565b61148f816118cc565b82525050565b61149e816118de565b82525050565b60006114af8261180a565b6114b98185611820565b93506114c981856020860161192d565b6114d281611ae6565b840191505092915050565b60006114e882611815565b6114f28185611831565b935061150281856020860161192d565b61150b81611ae6565b840191505092915050565b6000815461152381611960565b61152d8186611831565b94506001821660008114611548576001811461155a5761158d565b60ff198316865260208601935061158d565b611563856117f5565b60005b8381101561158557815481890152600182019150602081019050611566565b808801955050505b50505092915050565b60006115a3602983611831565b91506115ae82611af7565b604082019050919050565b60006115c6602683611831565b91506115d182611b46565b604082019050919050565b60006115e9602083611831565b91506115f482611b95565b602082019050919050565b600061160c601683611831565b915061161782611bbe565b602082019050919050565b61162b81611914565b82525050565b60006020820190506116466000830184611486565b92915050565b60006040820190506116616000830185611486565b61166e6020830184611622565b9392505050565b600060208201905061168a6000830184611495565b92915050565b60006040820190506116a56000830185611495565b81810360208301526116b781846114a4565b90509392505050565b600060208201905081810360008301526116da81846114dd565b905092915050565b600060208201905081810360008301526116fc8184611516565b905092915050565b6000602082019050818103600083015261171d81611596565b9050919050565b6000602082019050818103600083015261173d816115b9565b9050919050565b6000602082019050818103600083015261175d816115dc565b9050919050565b6000602082019050818103600083015261177d816115ff565b9050919050565b60006020820190506117996000830184611622565b92915050565b60006117a96117ba565b90506117b58282611992565b919050565b6000604051905090565b600067ffffffffffffffff8211156117df576117de611a99565b5b6117e882611ae6565b9050602081019050919050565b60008190508160005260206000209050919050565b600081519050919050565b600081519050919050565b600082825260208201905092915050565b600082825260208201905092915050565b600061184d82611914565b915061185883611914565b9250827fffffffffffffffffffffffffffffffffffffffffffffffffffffffffffffffff0382111561188d5761188c611a0c565b5b828201905092915050565b60006118a382611914565b91506118ae83611914565b9250828210156118c1576118c0611a0c565b5b828203905092915050565b60006118d7826118f4565b9050919050565b60008115159050919050565b6000819050919050565b600073ffffffffffffffffffffffffffffffffffffffff82169050919050565b6000819050919050565b82818337600083830152505050565b60005b8381101561194b578082015181840152602081019050611930565b8381111561195a576000848401525b50505050565b6000600282049050600182168061197857607f821691505b6020821081141561198c5761198b611a3b565b5b50919050565b61199b82611ae6565b810181811067ffffffffffffffff821117156119ba576119b9611a99565b5b80604052505050565b60006119ce82611914565b91507fffffffffffffffffffffffffffffffffffffffffffffffffffffffffffffffff821415611a0157611a00611a0c565b5b600182019050919050565b7f4e487b7100000000000000000000000000000000000000000000000000000000600052601160045260246000fd5b7f4e487b7100000000000000000000000000000000000000000000000000000000600052602260045260246000fd5b7f4e487b7100000000000000000000000000000000000000000000000000000000600052603260045260246000fd5b7f4e487b7100000000000000000000000000000000000000000000000000000000600052604160045260246000fd5b600080fd5b600080fd5b600080fd5b600080fd5b600080fd5b600080fd5b6000601f19601f8301169050919050565b7f4f6e6c79205265717565737465723a2043616c6c6572206973206e6f7420612060008201527f7265717565737465720000000000000000000000000000000000000000000000602082015250565b7f4f776e61626c653a206e6577206f776e657220697320746865207a65726f206160008201527f6464726573730000000000000000000000000000000000000000000000000000602082015250565b7f4f776e61626c653a2063616c6c6572206973206e6f7420746865206f776e6572600082015250565b7f45717569747920466565206973206e6f74207061696400000000000000000000600082015250565b611bf0816118cc565b8114611bfb57600080fd5b50565b611c07816118de565b8114611c1257600080fd5b50565b611c1e816118ea565b8114611c2957600080fd5b50565b611c3581611914565b8114611c4057600080fd5b5056fea2646970667358221220e164c928fae71c854e122a0089019dd795c668eccbe4b764b819bad34e54418964736f6c63430008070033",
  "linkReferences": {},
  "deployedLinkReferences": {}
}