{
  "_format": "hh-sol-artifact-1",
  "contractName": "CryptoPriceFeed",
  "sourceName": "contracts/CryptoPriceFeed.sol",
  "abi": [
    {
      "inputs": [],
      "stateMutability": "nonpayable",
      "type": "constructor"
    },
    {
      "anonymous": false,
      "inputs": [
        {
          "indexed": true,
          "internalType": "bytes32",
          "name": "id",
          "type": "bytes32"
        }
      ],
      "name": "ChainlinkCancelled",
      "type": "event"
    },
    {
      "anonymous": false,
      "inputs": [
        {
          "indexed": true,
          "internalType": "bytes32",
          "name": "id",
          "type": "bytes32"
        }
      ],
      "name": "ChainlinkFulfilled",
      "type": "event"
    },
    {
      "anonymous": false,
      "inputs": [
        {
          "indexed": true,
          "internalType": "bytes32",
          "name": "id",
          "type": "bytes32"
        }
      ],
      "name": "ChainlinkRequested",
      "type": "event"
    },
    {
      "inputs": [
        {
          "internalType": "string",
          "name": "",
          "type": "string"
        }
      ],
      "name": "blocks",
      "outputs": [
        {
          "internalType": "uint256",
          "name": "",
          "type": "uint256"
        }
      ],
      "stateMutability": "view",
      "type": "function"
    },
    {
      "inputs": [
        {
          "internalType": "bytes32",
          "name": "_requestId",
          "type": "bytes32"
        },
        {
          "internalType": "uint256",
          "name": "_returnedPrice",
          "type": "uint256"
        }
      ],
      "name": "fulfill",
      "outputs": [],
      "stateMutability": "nonpayable",
      "type": "function"
    },
    {
      "inputs": [
        {
          "internalType": "string",
          "name": "",
          "type": "string"
        }
      ],
      "name": "prices",
      "outputs": [
        {
          "internalType": "uint256",
          "name": "",
          "type": "uint256"
        }
      ],
      "stateMutability": "view",
      "type": "function"
    },
    {
      "inputs": [
        {
          "internalType": "string",
          "name": "_symbol",
          "type": "string"
        },
        {
          "internalType": "string",
          "name": "_exchange",
          "type": "string"
        }
      ],
      "name": "requestPrice",
      "outputs": [
        {
          "internalType": "bytes32",
          "name": "requestId",
          "type": "bytes32"
        }
      ],
      "stateMutability": "nonpayable",
      "type": "function"
    }
  ],
  "bytecode": "0x6080604052600160045534801561001557600080fd5b5061003973326c977e6efc84e512bb9c30f76e30c160ed06fb6100c960201b60201c565b73e3a98d9faab4a4b338b40a6df6273ab520152b8c600660006101000a81548173ffffffffffffffffffffffffffffffffffffffff021916908373ffffffffffffffffffffffffffffffffffffffff1602179055507f663264333766353562373232343531323865663264346561343231636437363660078190555067016345785d8a000060088190555061010d565b80600260006101000a81548173ffffffffffffffffffffffffffffffffffffffff021916908373ffffffffffffffffffffffffffffffffffffffff16021790555050565b6118c28061011c6000396000f3fe608060405234801561001057600080fd5b506004361061004c5760003560e01c80632faffd8d146100515780634357855e14610081578063b312ded31461009d578063c3825f4b146100cd575b600080fd5b61006b60048036038101906100669190610efa565b6100fd565b6040516100789190611192565b60405180910390f35b61009b60048036038101906100969190610e71565b61020e565b005b6100b760048036038101906100b29190610eb1565b6103ff565b6040516100c491906111ed565b60405180910390f35b6100e760048036038101906100e29190610eb1565b61042d565b6040516100f491906111ed565b60405180910390f35b60008061011460075430634357855e60e01b61045b565b90506101606040518060400160405280600681526020017f73796d626f6c0000000000000000000000000000000000000000000000000000815250858361048c9092919063ffffffff16565b6101aa6040518060400160405280600881526020017f65786368616e6765000000000000000000000000000000000000000000000000815250848361048c9092919063ffffffff16565b83600b60008360000151815260200190815260200160002090805190602001906101d5929190610c6b565b50610205600660009054906101000a900473ffffffffffffffffffffffffffffffffffffffff16826008546104bf565b91505092915050565b816005600082815260200190815260200160002060009054906101000a900473ffffffffffffffffffffffffffffffffffffffff1673ffffffffffffffffffffffffffffffffffffffff163373ffffffffffffffffffffffffffffffffffffffff16146102b0576040517f08c379a00000000000000000000000000000000000000000000000000000000081526004016102a7906111cd565b60405180910390fd5b6005600082815260200190815260200160002060006101000a81549073ffffffffffffffffffffffffffffffffffffffff0219169055807f7cc135e0cebb02c3480ae5d74d377283180a2601f8f644edf7987b009316c63a60405160405180910390a26000600b60008581526020019081526020016000208054610333906115ec565b80601f016020809104026020016040519081016040528092919081815260200182805461035f906115ec565b80156103ac5780601f10610381576101008083540402835291602001916103ac565b820191906000526020600020905b81548152906001019060200180831161038f57829003601f168201915b50505050509050826009826040516103c491906110b8565b90815260200160405180910390208190555043600a826040516103e791906110b8565b90815260200160405180910390208190555050505050565b600a818051602081018201805184825260208301602085012081835280955050505050506000915090505481565b6009818051602081018201805184825260208301602085012081835280955050505050506000915090505481565b610463610cf1565b61046b610cf1565b6104828585858461058b909392919063ffffffff16565b9150509392505050565b6104a382846080015161063b90919063ffffffff16565b6104ba81846080015161063b90919063ffffffff16565b505050565b60008060045490506001816104d491906112a1565b6004819055506000634042994660e01b60008087600001513089604001518760018c60800151600001516040516024016105159897969594939291906110cf565b604051602081830303815290604052907bffffffffffffffffffffffffffffffffffffffffffffffffffffffff19166020820180517bffffffffffffffffffffffffffffffffffffffffffffffffffffffff8381831617835250505050905061058086838684610660565b925050509392505050565b610593610cf1565b6105a38560800151610100610804565b508385600001818152505082856020019073ffffffffffffffffffffffffffffffffffffffff16908173ffffffffffffffffffffffffffffffffffffffff16815250508185604001907bffffffffffffffffffffffffffffffffffffffffffffffffffffffff191690817bffffffffffffffffffffffffffffffffffffffffffffffffffffffff191681525050849050949350505050565b610648826003835161086e565b61065b81836109f390919063ffffffff16565b505050565b6000308460405160200161067592919061108c565b604051602081830303815290604052805190602001209050846005600083815260200190815260200160002060006101000a81548173ffffffffffffffffffffffffffffffffffffffff021916908373ffffffffffffffffffffffffffffffffffffffff160217905550807fb5e6e01e79f91267dc17b4e6314d5d4d03593d2ceee0fbb452b750bd70ea5af960405160405180910390a2600260009054906101000a900473ffffffffffffffffffffffffffffffffffffffff1673ffffffffffffffffffffffffffffffffffffffff16634000aea08685856040518463ffffffff1660e01b815260040161076b93929190611154565b602060405180830381600087803b15801561078557600080fd5b505af1158015610799573d6000803e3d6000fd5b505050506040513d601f19601f820116820180604052508101906107bd9190610e44565b6107fc576040517f08c379a00000000000000000000000000000000000000000000000000000000081526004016107f3906111ad565b60405180910390fd5b949350505050565b61080c610d5e565b600060208361081b919061167d565b146108475760208261082d919061167d565b602061083991906114c2565b8261084491906112a1565b91505b81836020018181525050604051808452600081528281016020016040525082905092915050565b60178167ffffffffffffffff16116108a55761089f8160058460ff16901b60ff161784610a1590919063ffffffff16565b506109ee565b60ff8167ffffffffffffffff16116108fb576108d4601860058460ff16901b1784610a1590919063ffffffff16565b506108f58167ffffffffffffffff16600185610a359092919063ffffffff16565b506109ed565b61ffff8167ffffffffffffffff16116109525761092b601960058460ff16901b1784610a1590919063ffffffff16565b5061094c8167ffffffffffffffff16600285610a359092919063ffffffff16565b506109ec565b63ffffffff8167ffffffffffffffff16116109ab57610984601a60058460ff16901b1784610a1590919063ffffffff16565b506109a58167ffffffffffffffff16600485610a359092919063ffffffff16565b506109eb565b6109c8601b60058460ff16901b1784610a1590919063ffffffff16565b506109e98167ffffffffffffffff16600885610a359092919063ffffffff16565b505b5b5b5b505050565b6109fb610d5e565b610a0d83846000015151848551610a57565b905092915050565b610a1d610d5e565b610a2d8384600001515184610b46565b905092915050565b610a3d610d5e565b610a4e848560000151518585610b9d565b90509392505050565b610a5f610d5e565b8251821115610a6d57600080fd5b84602001518285610a7e91906112a1565b1115610ab357610ab2856002610aa388602001518887610a9e91906112a1565b610c2b565b610aad9190611468565b610c47565b5b600080865180518760208301019350808887011115610ad25787860182525b60208701925050505b60208410610b195780518252602082610af491906112a1565b9150602081610b0391906112a1565b9050602084610b1291906114c2565b9350610adb565b60006001856020036101000a03905080198251168184511681811785525050508692505050949350505050565b610b4e610d5e565b83602001518310610b7457610b738460028660200151610b6e9190611468565b610c47565b5b8351805160208583010184815381861415610b90576001820183525b5050508390509392505050565b610ba5610d5e565b84602001518483610bb691906112a1565b1115610bde57610bdd8560028685610bce91906112a1565b610bd89190611468565b610c47565b5b6000600183610100610bf0919061134a565b610bfa91906114c2565b90508551838682010185831982511617815281518588011115610c1d5784870182525b505085915050949350505050565b600081831115610c3d57829050610c41565b8190505b92915050565b600082600001519050610c5a8383610804565b50610c6583826109f3565b50505050565b828054610c77906115ec565b90600052602060002090601f016020900481019282610c995760008555610ce0565b82601f10610cb257805160ff1916838001178555610ce0565b82800160010185558215610ce0579182015b82811115610cdf578251825591602001919060010190610cc4565b5b509050610ced9190610d78565b5090565b6040518060a0016040528060008019168152602001600073ffffffffffffffffffffffffffffffffffffffff16815260200160007bffffffffffffffffffffffffffffffffffffffffffffffffffffffff1916815260200160008152602001610d58610d5e565b81525090565b604051806040016040528060608152602001600081525090565b5b80821115610d91576000816000905550600101610d79565b5090565b6000610da8610da38461122d565b611208565b905082815260208101848484011115610dc457610dc361176f565b5b610dcf8482856115aa565b509392505050565b600081519050610de681611847565b92915050565b600081359050610dfb8161185e565b92915050565b600082601f830112610e1657610e1561176a565b5b8135610e26848260208601610d95565b91505092915050565b600081359050610e3e81611875565b92915050565b600060208284031215610e5a57610e59611779565b5b6000610e6884828501610dd7565b91505092915050565b60008060408385031215610e8857610e87611779565b5b6000610e9685828601610dec565b9250506020610ea785828601610e2f565b9150509250929050565b600060208284031215610ec757610ec6611779565b5b600082013567ffffffffffffffff811115610ee557610ee4611774565b5b610ef184828501610e01565b91505092915050565b60008060408385031215610f1157610f10611779565b5b600083013567ffffffffffffffff811115610f2f57610f2e611774565b5b610f3b85828601610e01565b925050602083013567ffffffffffffffff811115610f5c57610f5b611774565b5b610f6885828601610e01565b9150509250929050565b610f7b816114f6565b82525050565b610f8a81611514565b82525050565b610f998161151e565b82525050565b6000610faa8261125e565b610fb48185611274565b9350610fc48185602086016115b9565b610fcd8161177e565b840191505092915050565b610fe9610fe482611574565b61164f565b82525050565b6000610ffa82611269565b6110048185611296565b93506110148185602086016115b9565b80840191505092915050565b600061102d602383611285565b9150611038826117a9565b604082019050919050565b6000611050602883611285565b915061105b826117f8565b604082019050919050565b61106f8161156a565b82525050565b6110866110818261156a565b611673565b82525050565b60006110988285610fd8565b6014820191506110a88284611075565b6020820191508190509392505050565b60006110c48284610fef565b915081905092915050565b6000610100820190506110e5600083018b610f72565b6110f2602083018a611066565b6110ff6040830189610f81565b61110c6060830188610f72565b6111196080830187610f90565b61112660a0830186611066565b61113360c0830185611066565b81810360e08301526111458184610f9f565b90509998505050505050505050565b60006060820190506111696000830186610f72565b6111766020830185611066565b81810360408301526111888184610f9f565b9050949350505050565b60006020820190506111a76000830184610f81565b92915050565b600060208201905081810360008301526111c681611020565b9050919050565b600060208201905081810360008301526111e681611043565b9050919050565b60006020820190506112026000830184611066565b92915050565b6000611212611223565b905061121e828261161e565b919050565b6000604051905090565b600067ffffffffffffffff8211156112485761124761173b565b5b6112518261177e565b9050602081019050919050565b600081519050919050565b600081519050919050565b600082825260208201905092915050565b600082825260208201905092915050565b600081905092915050565b60006112ac8261156a565b91506112b78361156a565b9250827fffffffffffffffffffffffffffffffffffffffffffffffffffffffffffffffff038211156112ec576112eb6116ae565b5b828201905092915050565b6000808291508390505b60018511156113415780860481111561131d5761131c6116ae565b5b600185161561132c5780820291505b808102905061133a8561179c565b9450611301565b94509492505050565b60006113558261156a565b91506113608361156a565b925061138d7fffffffffffffffffffffffffffffffffffffffffffffffffffffffffffffffff8484611395565b905092915050565b6000826113a55760019050611461565b816113b35760009050611461565b81600181146113c957600281146113d357611402565b6001915050611461565b60ff8411156113e5576113e46116ae565b5b8360020a9150848211156113fc576113fb6116ae565b5b50611461565b5060208310610133831016604e8410600b84101617156114375782820a905083811115611432576114316116ae565b5b611461565b61144484848460016112f7565b9250905081840481111561145b5761145a6116ae565b5b81810290505b9392505050565b60006114738261156a565b915061147e8361156a565b9250817fffffffffffffffffffffffffffffffffffffffffffffffffffffffffffffffff04831182151516156114b7576114b66116ae565b5b828202905092915050565b60006114cd8261156a565b91506114d88361156a565b9250828210156114eb576114ea6116ae565b5b828203905092915050565b60006115018261154a565b9050919050565b60008115159050919050565b6000819050919050565b60007fffffffff0000000000000000000000000000000000000000000000000000000082169050919050565b600073ffffffffffffffffffffffffffffffffffffffff82169050919050565b6000819050919050565b600061157f82611586565b9050919050565b600061159182611598565b9050919050565b60006115a38261154a565b9050919050565b82818337600083830152505050565b60005b838110156115d75780820151818401526020810190506115bc565b838111156115e6576000848401525b50505050565b6000600282049050600182168061160457607f821691505b602082108114156116185761161761170c565b5b50919050565b6116278261177e565b810181811067ffffffffffffffff821117156116465761164561173b565b5b80604052505050565b600061165a82611661565b9050919050565b600061166c8261178f565b9050919050565b6000819050919050565b60006116888261156a565b91506116938361156a565b9250826116a3576116a26116dd565b5b828206905092915050565b7f4e487b7100000000000000000000000000000000000000000000000000000000600052601160045260246000fd5b7f4e487b7100000000000000000000000000000000000000000000000000000000600052601260045260246000fd5b7f4e487b7100000000000000000000000000000000000000000000000000000000600052602260045260246000fd5b7f4e487b7100000000000000000000000000000000000000000000000000000000600052604160045260246000fd5b600080fd5b600080fd5b600080fd5b600080fd5b6000601f19601f8301169050919050565b60008160601b9050919050565b60008160011c9050919050565b7f756e61626c6520746f207472616e73666572416e6443616c6c20746f206f726160008201527f636c650000000000000000000000000000000000000000000000000000000000602082015250565b7f536f75726365206d75737420626520746865206f7261636c65206f662074686560008201527f2072657175657374000000000000000000000000000000000000000000000000602082015250565b61185081611508565b811461185b57600080fd5b50565b61186781611514565b811461187257600080fd5b50565b61187e8161156a565b811461188957600080fd5b5056fea264697066735822122088d4f729f2e730ad0103a4c083f14b5472cf0703b10c5c6a7dd06a3300feb41d64736f6c63430008070033",
  "linkReferences": {},
  "deployedLinkReferences": {}
}