{
  "_format": "hh-sol-artifact-1",
  "contractName": "EquitiesPriceFeed",
  "sourceName": "contracts/EquitiesPriceFeed.sol",
  "abi": [
    {
      "inputs": [],
      "stateMutability": "nonpayable",
      "type": "constructor"
    },
    {
      "anonymous": false,
      "inputs": [
        {
          "indexed": true,
          "internalType": "bytes32",
          "name": "id",
          "type": "bytes32"
        }
      ],
      "name": "ChainlinkCancelled",
      "type": "event"
    },
    {
      "anonymous": false,
      "inputs": [
        {
          "indexed": true,
          "internalType": "bytes32",
          "name": "id",
          "type": "bytes32"
        }
      ],
      "name": "ChainlinkFulfilled",
      "type": "event"
    },
    {
      "anonymous": false,
      "inputs": [
        {
          "indexed": true,
          "internalType": "bytes32",
          "name": "id",
          "type": "bytes32"
        }
      ],
      "name": "ChainlinkRequested",
      "type": "event"
    },
    {
      "anonymous": false,
      "inputs": [
        {
          "indexed": true,
          "internalType": "address",
          "name": "previousOwner",
          "type": "address"
        },
        {
          "indexed": true,
          "internalType": "address",
          "name": "newOwner",
          "type": "address"
        }
      ],
      "name": "OwnershipTransferred",
      "type": "event"
    },
    {
      "inputs": [
        {
          "internalType": "string",
          "name": "",
          "type": "string"
        }
      ],
      "name": "blocks",
      "outputs": [
        {
          "internalType": "uint256",
          "name": "",
          "type": "uint256"
        }
      ],
      "stateMutability": "view",
      "type": "function"
    },
    {
      "inputs": [
        {
          "internalType": "bytes32",
          "name": "_requestId",
          "type": "bytes32"
        },
        {
          "internalType": "uint256",
          "name": "_returnedPrice",
          "type": "uint256"
        }
      ],
      "name": "fulfill",
      "outputs": [],
      "stateMutability": "nonpayable",
      "type": "function"
    },
    {
      "inputs": [
        {
          "internalType": "string",
          "name": "_symbol",
          "type": "string"
        }
      ],
      "name": "getPriceandBlock",
      "outputs": [
        {
          "internalType": "uint256",
          "name": "",
          "type": "uint256"
        },
        {
          "internalType": "uint256",
          "name": "",
          "type": "uint256"
        }
      ],
      "stateMutability": "view",
      "type": "function"
    },
    {
      "inputs": [
        {
          "internalType": "address",
          "name": "_requester",
          "type": "address"
        }
      ],
      "name": "isRequester",
      "outputs": [
        {
          "internalType": "bool",
          "name": "",
          "type": "bool"
        }
      ],
      "stateMutability": "view",
      "type": "function"
    },
    {
      "inputs": [],
      "name": "owner",
      "outputs": [
        {
          "internalType": "address",
          "name": "",
          "type": "address"
        }
      ],
      "stateMutability": "view",
      "type": "function"
    },
    {
      "inputs": [
        {
          "internalType": "string",
          "name": "",
          "type": "string"
        }
      ],
      "name": "prices",
      "outputs": [
        {
          "internalType": "uint256",
          "name": "",
          "type": "uint256"
        }
      ],
      "stateMutability": "view",
      "type": "function"
    },
    {
      "inputs": [],
      "name": "renounceOwnership",
      "outputs": [],
      "stateMutability": "nonpayable",
      "type": "function"
    },
    {
      "inputs": [
        {
          "internalType": "string",
          "name": "_symbol",
          "type": "string"
        }
      ],
      "name": "requestPrice",
      "outputs": [
        {
          "internalType": "bytes32",
          "name": "requestId",
          "type": "bytes32"
        }
      ],
      "stateMutability": "nonpayable",
      "type": "function"
    },
    {
      "inputs": [
        {
          "internalType": "address",
          "name": "_requester",
          "type": "address"
        }
      ],
      "name": "setRequester",
      "outputs": [],
      "stateMutability": "nonpayable",
      "type": "function"
    },
    {
      "inputs": [
        {
          "internalType": "address",
          "name": "newOwner",
          "type": "address"
        }
      ],
      "name": "transferOwnership",
      "outputs": [],
      "stateMutability": "nonpayable",
      "type": "function"
    }
  ],
  "bytecode": "0x608060405260016004553480156200001657600080fd5b50620000376200002b6200014560201b60201c565b6200014d60201b60201c565b6001600d60003373ffffffffffffffffffffffffffffffffffffffff1673ffffffffffffffffffffffffffffffffffffffff16815260200190815260200160002060006101000a81548160ff021916908315150217905550620000b473326c977e6efc84e512bb9c30f76e30c160ed06fb6200021360201b60201c565b73e3a98d9faab4a4b338b40a6df6273ab520152b8c600760006101000a81548173ffffffffffffffffffffffffffffffffffffffff021916908373ffffffffffffffffffffffffffffffffffffffff1602179055507f65393463633265363238313534353035386434353437306262336139616531366008819055506704c9afac0f82800060098190555062000257565b600033905090565b6000600660009054906101000a900473ffffffffffffffffffffffffffffffffffffffff16905081600660006101000a81548173ffffffffffffffffffffffffffffffffffffffff021916908373ffffffffffffffffffffffffffffffffffffffff1602179055508173ffffffffffffffffffffffffffffffffffffffff168173ffffffffffffffffffffffffffffffffffffffff167f8be0079c531659141344cd1fd0a4f28419497f9722a3daafe3b4186f6b6457e060405160405180910390a35050565b80600260006101000a81548173ffffffffffffffffffffffffffffffffffffffff021916908373ffffffffffffffffffffffffffffffffffffffff16021790555050565b61201780620002676000396000f3fe608060405234801561001057600080fd5b506004361061009e5760003560e01c80638da5cb5b116100665780638da5cb5b14610146578063b312ded314610164578063c3825f4b14610194578063d4fe6bd0146101c4578063f2fde38b146101f45761009e565b80630191b9e4146100a357806302529177146100d4578063227a30c5146101045780634357855e14610120578063715018a61461013c575b600080fd5b6100bd60048036038101906100b891906113be565b610210565b6040516100cb929190611841565b60405180910390f35b6100ee60048036038101906100e99190611324565b61025a565b6040516100fb9190611750565b60405180910390f35b61011e60048036038101906101199190611324565b6102b0565b005b61013a6004803603810190610135919061137e565b610387565b005b6101446104ef565b005b61014e610577565b60405161015b9190611672565b60405180910390f35b61017e600480360381019061017991906113be565b6105a1565b60405161018b9190611826565b60405180910390f35b6101ae60048036038101906101a991906113be565b6105cf565b6040516101bb9190611826565b60405180910390f35b6101de60048036038101906101d991906113be565b6105fd565b6040516101eb919061176b565b60405180910390f35b61020e60048036038101906102099190611324565b610760565b005b600080600a836040516102239190611644565b908152602001604051809103902054600b846040516102429190611644565b90815260200160405180910390205491509150915091565b6000600d60008373ffffffffffffffffffffffffffffffffffffffff1673ffffffffffffffffffffffffffffffffffffffff16815260200190815260200160002060009054906101000a900460ff169050919050565b6102b8610858565b73ffffffffffffffffffffffffffffffffffffffff166102d6610577565b73ffffffffffffffffffffffffffffffffffffffff161461032c576040517f08c379a0000000000000000000000000000000000000000000000000000000008152600401610323906117e6565b60405180910390fd5b6001600d60008373ffffffffffffffffffffffffffffffffffffffff1673ffffffffffffffffffffffffffffffffffffffff16815260200190815260200160002060006101000a81548160ff02191690831515021790555050565b816005600082815260200190815260200160002060009054906101000a900473ffffffffffffffffffffffffffffffffffffffff1673ffffffffffffffffffffffffffffffffffffffff163373ffffffffffffffffffffffffffffffffffffffff1614610429576040517f08c379a000000000000000000000000000000000000000000000000000000000815260040161042090611806565b60405180910390fd5b6005600082815260200190815260200160002060006101000a81549073ffffffffffffffffffffffffffffffffffffffff0219169055807f7cc135e0cebb02c3480ae5d74d377283180a2601f8f644edf7987b009316c63a60405160405180910390a26000600c6000858152602001908152602001600020905082600a826040516104b4919061165b565b90815260200160405180910390208190555043600b826040516104d7919061165b565b90815260200160405180910390208190555050505050565b6104f7610858565b73ffffffffffffffffffffffffffffffffffffffff16610515610577565b73ffffffffffffffffffffffffffffffffffffffff161461056b576040517f08c379a0000000000000000000000000000000000000000000000000000000008152600401610562906117e6565b60405180910390fd5b6105756000610860565b565b6000600660009054906101000a900473ffffffffffffffffffffffffffffffffffffffff16905090565b600b818051602081018201805184825260208301602085012081835280955050505050506000915090505481565b600a818051602081018201805184825260208301602085012081835280955050505050506000915090505481565b600060011515600d600061060f610858565b73ffffffffffffffffffffffffffffffffffffffff1673ffffffffffffffffffffffffffffffffffffffff16815260200190815260200160002060009054906101000a900460ff16151514610699576040517f08c379a000000000000000000000000000000000000000000000000000000000815260040161069090611786565b60405180910390fd5b60006106af60085430634357855e60e01b610926565b90506106fb6040518060400160405280600681526020017f7469636b6572000000000000000000000000000000000000000000000000000081525084836109579092919063ffffffff16565b600061072c600760009054906101000a900473ffffffffffffffffffffffffffffffffffffffff168360095461098a565b905083600c60008381526020019081526020016000209080519060200190610755929190611136565b508092505050919050565b610768610858565b73ffffffffffffffffffffffffffffffffffffffff16610786610577565b73ffffffffffffffffffffffffffffffffffffffff16146107dc576040517f08c379a00000000000000000000000000000000000000000000000000000000081526004016107d3906117e6565b60405180910390fd5b600073ffffffffffffffffffffffffffffffffffffffff168173ffffffffffffffffffffffffffffffffffffffff16141561084c576040517f08c379a0000000000000000000000000000000000000000000000000000000008152600401610843906117a6565b60405180910390fd5b61085581610860565b50565b600033905090565b6000600660009054906101000a900473ffffffffffffffffffffffffffffffffffffffff16905081600660006101000a81548173ffffffffffffffffffffffffffffffffffffffff021916908373ffffffffffffffffffffffffffffffffffffffff1602179055508173ffffffffffffffffffffffffffffffffffffffff168173ffffffffffffffffffffffffffffffffffffffff167f8be0079c531659141344cd1fd0a4f28419497f9722a3daafe3b4186f6b6457e060405160405180910390a35050565b61092e6111bc565b6109366111bc565b61094d85858584610a56909392919063ffffffff16565b9150509392505050565b61096e828460800151610b0690919063ffffffff16565b610985818460800151610b0690919063ffffffff16565b505050565b600080600454905060018161099f9190611918565b6004819055506000634042994660e01b60008087600001513089604001518760018c60800151600001516040516024016109e098979695949392919061168d565b604051602081830303815290604052907bffffffffffffffffffffffffffffffffffffffffffffffffffffffff19166020820180517bffffffffffffffffffffffffffffffffffffffffffffffffffffffff83818316178352505050509050610a4b86838684610b2b565b925050509392505050565b610a5e6111bc565b610a6e8560800151610100610ccf565b508385600001818152505082856020019073ffffffffffffffffffffffffffffffffffffffff16908173ffffffffffffffffffffffffffffffffffffffff16815250508185604001907bffffffffffffffffffffffffffffffffffffffffffffffffffffffff191690817bffffffffffffffffffffffffffffffffffffffffffffffffffffffff191681525050849050949350505050565b610b138260038351610d39565b610b268183610ebe90919063ffffffff16565b505050565b60003084604051602001610b40929190611618565b604051602081830303815290604052805190602001209050846005600083815260200190815260200160002060006101000a81548173ffffffffffffffffffffffffffffffffffffffff021916908373ffffffffffffffffffffffffffffffffffffffff160217905550807fb5e6e01e79f91267dc17b4e6314d5d4d03593d2ceee0fbb452b750bd70ea5af960405160405180910390a2600260009054906101000a900473ffffffffffffffffffffffffffffffffffffffff1673ffffffffffffffffffffffffffffffffffffffff16634000aea08685856040518463ffffffff1660e01b8152600401610c3693929190611712565b602060405180830381600087803b158015610c5057600080fd5b505af1158015610c64573d6000803e3d6000fd5b505050506040513d601f19601f82011682018060405250810190610c889190611351565b610cc7576040517f08c379a0000000000000000000000000000000000000000000000000000000008152600401610cbe906117c6565b60405180910390fd5b949350505050565b610cd7611229565b6000602083610ce69190611cf4565b14610d1257602082610cf89190611cf4565b6020610d049190611b39565b82610d0f9190611918565b91505b81836020018181525050604051808452600081528281016020016040525082905092915050565b60178167ffffffffffffffff1611610d7057610d6a8160058460ff16901b60ff161784610ee090919063ffffffff16565b50610eb9565b60ff8167ffffffffffffffff1611610dc657610d9f601860058460ff16901b1784610ee090919063ffffffff16565b50610dc08167ffffffffffffffff16600185610f009092919063ffffffff16565b50610eb8565b61ffff8167ffffffffffffffff1611610e1d57610df6601960058460ff16901b1784610ee090919063ffffffff16565b50610e178167ffffffffffffffff16600285610f009092919063ffffffff16565b50610eb7565b63ffffffff8167ffffffffffffffff1611610e7657610e4f601a60058460ff16901b1784610ee090919063ffffffff16565b50610e708167ffffffffffffffff16600485610f009092919063ffffffff16565b50610eb6565b610e93601b60058460ff16901b1784610ee090919063ffffffff16565b50610eb48167ffffffffffffffff16600885610f009092919063ffffffff16565b505b5b5b5b505050565b610ec6611229565b610ed883846000015151848551610f22565b905092915050565b610ee8611229565b610ef88384600001515184611011565b905092915050565b610f08611229565b610f19848560000151518585611068565b90509392505050565b610f2a611229565b8251821115610f3857600080fd5b84602001518285610f499190611918565b1115610f7e57610f7d856002610f6e88602001518887610f699190611918565b6110f6565b610f789190611adf565b611112565b5b600080865180518760208301019350808887011115610f9d5787860182525b60208701925050505b60208410610fe45780518252602082610fbf9190611918565b9150602081610fce9190611918565b9050602084610fdd9190611b39565b9350610fa6565b60006001856020036101000a03905080198251168184511681811785525050508692505050949350505050565b611019611229565b8360200151831061103f5761103e84600286602001516110399190611adf565b611112565b5b835180516020858301018481538186141561105b576001820183525b5050508390509392505050565b611070611229565b846020015184836110819190611918565b11156110a9576110a885600286856110999190611918565b6110a39190611adf565b611112565b5b60006001836101006110bb91906119c1565b6110c59190611b39565b905085518386820101858319825116178152815185880111156110e85784870182525b505085915050949350505050565b6000818311156111085782905061110c565b8190505b92915050565b6000826000015190506111258383610ccf565b506111308382610ebe565b50505050565b82805461114290611c63565b90600052602060002090601f01602090048101928261116457600085556111ab565b82601f1061117d57805160ff19168380011785556111ab565b828001600101855582156111ab579182015b828111156111aa57825182559160200191906001019061118f565b5b5090506111b89190611243565b5090565b6040518060a0016040528060008019168152602001600073ffffffffffffffffffffffffffffffffffffffff16815260200160007bffffffffffffffffffffffffffffffffffffffffffffffffffffffff1916815260200160008152602001611223611229565b81525090565b604051806040016040528060608152602001600081525090565b5b8082111561125c576000816000905550600101611244565b5090565b600061127361126e8461188f565b61186a565b90508281526020810184848401111561128f5761128e611de6565b5b61129a848285611c21565b509392505050565b6000813590506112b181611f85565b92915050565b6000815190506112c681611f9c565b92915050565b6000813590506112db81611fb3565b92915050565b600082601f8301126112f6576112f5611de1565b5b8135611306848260208601611260565b91505092915050565b60008135905061131e81611fca565b92915050565b60006020828403121561133a57611339611df0565b5b6000611348848285016112a2565b91505092915050565b60006020828403121561136757611366611df0565b5b6000611375848285016112b7565b91505092915050565b6000806040838503121561139557611394611df0565b5b60006113a3858286016112cc565b92505060206113b48582860161130f565b9150509250929050565b6000602082840312156113d4576113d3611df0565b5b600082013567ffffffffffffffff8111156113f2576113f1611deb565b5b6113fe848285016112e1565b91505092915050565b61141081611b6d565b82525050565b61141f81611b7f565b82525050565b61142e81611b8b565b82525050565b61143d81611b95565b82525050565b600061144e826118d5565b61145881856118eb565b9350611468818560208601611c30565b61147181611df5565b840191505092915050565b61148d61148882611beb565b611cc6565b82525050565b600061149e826118e0565b6114a8818561190d565b93506114b8818560208601611c30565b80840191505092915050565b600081546114d181611c63565b6114db818661190d565b945060018216600081146114f657600181146115075761153a565b60ff1983168652818601935061153a565b611510856118c0565b60005b8381101561153257815481890152600182019150602081019050611513565b838801955050505b50505092915050565b60006115506029836118fc565b915061155b82611e20565b604082019050919050565b60006115736026836118fc565b915061157e82611e6f565b604082019050919050565b60006115966023836118fc565b91506115a182611ebe565b604082019050919050565b60006115b96020836118fc565b91506115c482611f0d565b602082019050919050565b60006115dc6028836118fc565b91506115e782611f36565b604082019050919050565b6115fb81611be1565b82525050565b61161261160d82611be1565b611cea565b82525050565b6000611624828561147c565b6014820191506116348284611601565b6020820191508190509392505050565b60006116508284611493565b915081905092915050565b600061166782846114c4565b915081905092915050565b60006020820190506116876000830184611407565b92915050565b6000610100820190506116a3600083018b611407565b6116b0602083018a6115f2565b6116bd6040830189611425565b6116ca6060830188611407565b6116d76080830187611434565b6116e460a08301866115f2565b6116f160c08301856115f2565b81810360e08301526117038184611443565b90509998505050505050505050565b60006060820190506117276000830186611407565b61173460208301856115f2565b81810360408301526117468184611443565b9050949350505050565b60006020820190506117656000830184611416565b92915050565b60006020820190506117806000830184611425565b92915050565b6000602082019050818103600083015261179f81611543565b9050919050565b600060208201905081810360008301526117bf81611566565b9050919050565b600060208201905081810360008301526117df81611589565b9050919050565b600060208201905081810360008301526117ff816115ac565b9050919050565b6000602082019050818103600083015261181f816115cf565b9050919050565b600060208201905061183b60008301846115f2565b92915050565b600060408201905061185660008301856115f2565b61186360208301846115f2565b9392505050565b6000611874611885565b90506118808282611c95565b919050565b6000604051905090565b600067ffffffffffffffff8211156118aa576118a9611db2565b5b6118b382611df5565b9050602081019050919050565b60008190508160005260206000209050919050565b600081519050919050565b600081519050919050565b600082825260208201905092915050565b600082825260208201905092915050565b600081905092915050565b600061192382611be1565b915061192e83611be1565b9250827fffffffffffffffffffffffffffffffffffffffffffffffffffffffffffffffff0382111561196357611962611d25565b5b828201905092915050565b6000808291508390505b60018511156119b85780860481111561199457611993611d25565b5b60018516156119a35780820291505b80810290506119b185611e13565b9450611978565b94509492505050565b60006119cc82611be1565b91506119d783611be1565b9250611a047fffffffffffffffffffffffffffffffffffffffffffffffffffffffffffffffff8484611a0c565b905092915050565b600082611a1c5760019050611ad8565b81611a2a5760009050611ad8565b8160018114611a405760028114611a4a57611a79565b6001915050611ad8565b60ff841115611a5c57611a5b611d25565b5b8360020a915084821115611a7357611a72611d25565b5b50611ad8565b5060208310610133831016604e8410600b8410161715611aae5782820a905083811115611aa957611aa8611d25565b5b611ad8565b611abb848484600161196e565b92509050818404811115611ad257611ad1611d25565b5b81810290505b9392505050565b6000611aea82611be1565b9150611af583611be1565b9250817fffffffffffffffffffffffffffffffffffffffffffffffffffffffffffffffff0483118215151615611b2e57611b2d611d25565b5b828202905092915050565b6000611b4482611be1565b9150611b4f83611be1565b925082821015611b6257611b61611d25565b5b828203905092915050565b6000611b7882611bc1565b9050919050565b60008115159050919050565b6000819050919050565b60007fffffffff0000000000000000000000000000000000000000000000000000000082169050919050565b600073ffffffffffffffffffffffffffffffffffffffff82169050919050565b6000819050919050565b6000611bf682611bfd565b9050919050565b6000611c0882611c0f565b9050919050565b6000611c1a82611bc1565b9050919050565b82818337600083830152505050565b60005b83811015611c4e578082015181840152602081019050611c33565b83811115611c5d576000848401525b50505050565b60006002820490506001821680611c7b57607f821691505b60208210811415611c8f57611c8e611d83565b5b50919050565b611c9e82611df5565b810181811067ffffffffffffffff82111715611cbd57611cbc611db2565b5b80604052505050565b6000611cd182611cd8565b9050919050565b6000611ce382611e06565b9050919050565b6000819050919050565b6000611cff82611be1565b9150611d0a83611be1565b925082611d1a57611d19611d54565b5b828206905092915050565b7f4e487b7100000000000000000000000000000000000000000000000000000000600052601160045260246000fd5b7f4e487b7100000000000000000000000000000000000000000000000000000000600052601260045260246000fd5b7f4e487b7100000000000000000000000000000000000000000000000000000000600052602260045260246000fd5b7f4e487b7100000000000000000000000000000000000000000000000000000000600052604160045260246000fd5b600080fd5b600080fd5b600080fd5b600080fd5b6000601f19601f8301169050919050565b60008160601b9050919050565b60008160011c9050919050565b7f4f6e6c79205265717565737465723a2043616c6c6572206973206e6f7420612060008201527f7265717565737465720000000000000000000000000000000000000000000000602082015250565b7f4f776e61626c653a206e6577206f776e657220697320746865207a65726f206160008201527f6464726573730000000000000000000000000000000000000000000000000000602082015250565b7f756e61626c6520746f207472616e73666572416e6443616c6c20746f206f726160008201527f636c650000000000000000000000000000000000000000000000000000000000602082015250565b7f4f776e61626c653a2063616c6c6572206973206e6f7420746865206f776e6572600082015250565b7f536f75726365206d75737420626520746865206f7261636c65206f662074686560008201527f2072657175657374000000000000000000000000000000000000000000000000602082015250565b611f8e81611b6d565b8114611f9957600080fd5b50565b611fa581611b7f565b8114611fb057600080fd5b50565b611fbc81611b8b565b8114611fc757600080fd5b50565b611fd381611be1565b8114611fde57600080fd5b5056fea2646970667358221220fd9cec8cb8a125f15ebc29c7691358708cc068f19988dc956189b50ff4e2d72364736f6c63430008070033",
  "linkReferences": {},
  "deployedLinkReferences": {}
}