{
  "_format": "hh-sol-artifact-1",
  "contractName": "KeepersCounterPolygon",
  "sourceName": "contracts/KeepersCounterPolygon.sol",
  "abi": [
    {
      "inputs": [],
      "stateMutability": "nonpayable",
      "type": "constructor"
    },
    {
      "anonymous": false,
      "inputs": [
        {
          "indexed": true,
          "internalType": "bytes32",
          "name": "id",
          "type": "bytes32"
        }
      ],
      "name": "ChainlinkCancelled",
      "type": "event"
    },
    {
      "anonymous": false,
      "inputs": [
        {
          "indexed": true,
          "internalType": "bytes32",
          "name": "id",
          "type": "bytes32"
        }
      ],
      "name": "ChainlinkFulfilled",
      "type": "event"
    },
    {
      "anonymous": false,
      "inputs": [
        {
          "indexed": true,
          "internalType": "bytes32",
          "name": "id",
          "type": "bytes32"
        }
      ],
      "name": "ChainlinkRequested",
      "type": "event"
    },
    {
      "inputs": [
        {
          "internalType": "bytes",
          "name": "",
          "type": "bytes"
        }
      ],
      "name": "checkUpkeep",
      "outputs": [
        {
          "internalType": "bool",
          "name": "upkeepNeeded",
          "type": "bool"
        },
        {
          "internalType": "bytes",
          "name": "",
          "type": "bytes"
        }
      ],
      "stateMutability": "view",
      "type": "function"
    },
    {
      "inputs": [],
      "name": "counter",
      "outputs": [
        {
          "internalType": "uint256",
          "name": "",
          "type": "uint256"
        }
      ],
      "stateMutability": "view",
      "type": "function"
    },
    {
      "inputs": [],
      "name": "fee",
      "outputs": [
        {
          "internalType": "uint256",
          "name": "",
          "type": "uint256"
        }
      ],
      "stateMutability": "view",
      "type": "function"
    },
    {
      "inputs": [
        {
          "internalType": "bytes32",
          "name": "_requestId",
          "type": "bytes32"
        },
        {
          "internalType": "uint256",
          "name": "_volume",
          "type": "uint256"
        }
      ],
      "name": "fulfill",
      "outputs": [],
      "stateMutability": "nonpayable",
      "type": "function"
    },
    {
      "inputs": [],
      "name": "interval",
      "outputs": [
        {
          "internalType": "uint256",
          "name": "",
          "type": "uint256"
        }
      ],
      "stateMutability": "view",
      "type": "function"
    },
    {
      "inputs": [],
      "name": "isActive",
      "outputs": [
        {
          "internalType": "bool",
          "name": "",
          "type": "bool"
        }
      ],
      "stateMutability": "view",
      "type": "function"
    },
    {
      "inputs": [],
      "name": "jobId",
      "outputs": [
        {
          "internalType": "bytes32",
          "name": "",
          "type": "bytes32"
        }
      ],
      "stateMutability": "view",
      "type": "function"
    },
    {
      "inputs": [],
      "name": "lastTimeStamp",
      "outputs": [
        {
          "internalType": "uint256",
          "name": "",
          "type": "uint256"
        }
      ],
      "stateMutability": "view",
      "type": "function"
    },
    {
      "inputs": [],
      "name": "oracle",
      "outputs": [
        {
          "internalType": "address",
          "name": "",
          "type": "address"
        }
      ],
      "stateMutability": "view",
      "type": "function"
    },
    {
      "inputs": [
        {
          "internalType": "bytes",
          "name": "",
          "type": "bytes"
        }
      ],
      "name": "performUpkeep",
      "outputs": [],
      "stateMutability": "nonpayable",
      "type": "function"
    },
    {
      "inputs": [],
      "name": "requestVolumeData",
      "outputs": [
        {
          "internalType": "bytes32",
          "name": "requestId",
          "type": "bytes32"
        }
      ],
      "stateMutability": "nonpayable",
      "type": "function"
    },
    {
      "inputs": [
        {
          "internalType": "bool",
          "name": "newValue",
          "type": "bool"
        }
      ],
      "name": "setActive",
      "outputs": [],
      "stateMutability": "nonpayable",
      "type": "function"
    },
    {
      "inputs": [
        {
          "internalType": "uint256",
          "name": "newValue_Fee",
          "type": "uint256"
        }
      ],
      "name": "setFee",
      "outputs": [],
      "stateMutability": "nonpayable",
      "type": "function"
    },
    {
      "inputs": [
        {
          "internalType": "bytes32",
          "name": "newValue_JobId",
          "type": "bytes32"
        }
      ],
      "name": "setJobId",
      "outputs": [],
      "stateMutability": "nonpayable",
      "type": "function"
    },
    {
      "inputs": [
        {
          "internalType": "address",
          "name": "newValue_Oracle",
          "type": "address"
        }
      ],
      "name": "setOracle",
      "outputs": [],
      "stateMutability": "nonpayable",
      "type": "function"
    },
    {
      "inputs": [],
      "name": "volume",
      "outputs": [
        {
          "internalType": "uint256",
          "name": "",
          "type": "uint256"
        }
      ],
      "stateMutability": "view",
      "type": "function"
    }
  ],
  "bytecode": "0x60a06040526001600455600a60809081525034801561001d57600080fd5b506100417353e0bca35ec356bd5dddfebbd1fc0fd03fabad396100d060201b60201c565b730a31078cd57d23bf9e8e8f1ba78356ca2090569e600760006101000a81548173ffffffffffffffffffffffffffffffffffffffff021916908373ffffffffffffffffffffffffffffffffffffffff1602179055507f323363393432626639613862343666626130366264316131353136313230356160088190555066b1a2bc2ec50000600981905550610114565b80600260006101000a81548173ffffffffffffffffffffffffffffffffffffffff021916908373ffffffffffffffffffffffffffffffffffffffff16021790555050565b608051611d2361013d6000396000818161042f0152818161065e01526107020152611d236000f3fe608060405234801561001057600080fd5b50600436106101005760003560e01c80636e04ff0d11610097578063acec338a11610066578063acec338a14610276578063c2939d9714610292578063c618a1e4146102b0578063ddca3f43146102ce57610100565b80636e04ff0d146101ed5780637adbf9731461021e5780637dc0d1d01461023a578063947a36fb1461025857610100565b8063508954f8116100d3578063508954f8146101795780636021abac1461019557806361bc221a146101b357806369fe0e2d146101d157610100565b806322f3e2d4146101055780633f3b3b27146101235780634357855e146101415780634585e33b1461015d575b600080fd5b61010d6102ec565b60405161011a91906115e1565b60405180910390f35b61012b6102ff565b6040516101389190611687565b60405180910390f35b61015b60048036038101906101569190611325565b610305565b005b61017760048036038101906101729190611365565b610416565b005b610193600480360381019061018e91906112f8565b61048d565b005b61019d610497565b6040516101aa919061162c565b60405180910390f35b6101bb61061e565b6040516101c89190611687565b60405180910390f35b6101eb60048036038101906101e691906113b2565b610624565b005b61020760048036038101906102029190611365565b610641565b6040516102159291906115fc565b60405180910390f35b61023860048036038101906102339190611271565b610696565b005b6102426106da565b60405161024f9190611503565b60405180910390f35b610260610700565b60405161026d9190611687565b60405180910390f35b610290600480360381019061028b919061129e565b610724565b005b61029a610741565b6040516102a7919061162c565b60405180910390f35b6102b8610747565b6040516102c59190611687565b60405180910390f35b6102d661074d565b6040516102e39190611687565b60405180910390f35b600a60009054906101000a900460ff1681565b600c5481565b816005600082815260200190815260200160002060009054906101000a900473ffffffffffffffffffffffffffffffffffffffff1673ffffffffffffffffffffffffffffffffffffffff163373ffffffffffffffffffffffffffffffffffffffff16146103a7576040517f08c379a000000000000000000000000000000000000000000000000000000000815260040161039e90611667565b60405180910390fd5b6005600082815260200190815260200160002060006101000a81549073ffffffffffffffffffffffffffffffffffffffff0219169055807f7cc135e0cebb02c3480ae5d74d377283180a2601f8f644edf7987b009316c63a60405160405180910390a281600681905550505050565b600a60009054906101000a900460ff16801561045e57507f0000000000000000000000000000000000000000000000000000000000000000600c544261045c9190611984565b115b156104895742600c819055506001600b5461047991906116cf565b600b81905550610487610497565b505b5050565b8060088190555050565b6000806104ae60085430634357855e60e01b610753565b90506105126040518060400160405280600381526020017f6765740000000000000000000000000000000000000000000000000000000000815250604051806080016040528060498152602001611ca560499139836107849092919063ffffffff16565b6105916040518060400160405280600481526020017f70617468000000000000000000000000000000000000000000000000000000008152506040518060400160405280601881526020017f5241572c4554482c5553442c564f4c554d453234484f55520000000000000000815250836107849092919063ffffffff16565b6000670de0b6b3a764000090506105e86040518060400160405280600581526020017f74696d657300000000000000000000000000000000000000000000000000000081525082846107b79092919063ffffffff16565b610617600760009054906101000a900473ffffffffffffffffffffffffffffffffffffffff16836009546107ea565b9250505090565b600b5481565b670de0b6b3a7640000816106389190611896565b60098190555050565b60006060600a60009054906101000a900460ff16801561068d57507f0000000000000000000000000000000000000000000000000000000000000000600c544261068b9190611984565b115b91509250929050565b80600760006101000a81548173ffffffffffffffffffffffffffffffffffffffff021916908373ffffffffffffffffffffffffffffffffffffffff16021790555050565b600760009054906101000a900473ffffffffffffffffffffffffffffffffffffffff1681565b7f000000000000000000000000000000000000000000000000000000000000000081565b80600a60006101000a81548160ff02191690831515021790555050565b60085481565b60065481565b60095481565b61075b61112b565b61076361112b565b61077a858585846108b6909392919063ffffffff16565b9150509392505050565b61079b82846080015161096690919063ffffffff16565b6107b281846080015161096690919063ffffffff16565b505050565b6107ce82846080015161096690919063ffffffff16565b6107e581846080015161098b90919063ffffffff16565b505050565b60008060045490506001816107ff91906116cf565b6004819055506000634042994660e01b60008087600001513089604001518760018c608001516000015160405160240161084098979695949392919061151e565b604051602081830303815290604052907bffffffffffffffffffffffffffffffffffffffffffffffffffffffff19166020820180517bffffffffffffffffffffffffffffffffffffffffffffffffffffffff838183161783525050505090506108ab86838684610a38565b925050509392505050565b6108be61112b565b6108ce8560800151610100610bdc565b508385600001818152505082856020019073ffffffffffffffffffffffffffffffffffffffff16908173ffffffffffffffffffffffffffffffffffffffff16815250508185604001907bffffffffffffffffffffffffffffffffffffffffffffffffffffffff191690817bffffffffffffffffffffffffffffffffffffffffffffffffffffffff191681525050849050949350505050565b6109738260038351610c46565b6109868183610dcb90919063ffffffff16565b505050565b7fffffffffffffffffffffffffffffffffffffffffffffffff00000000000000008112156109c2576109bd8282610ded565b610a34565b67ffffffffffffffff8113156109e1576109dc8282610e64565b610a33565b600081126109fa576109f582600083610c46565b610a32565b610a31826001837fffffffffffffffffffffffffffffffffffffffffffffffffffffffffffffffff610a2c91906118f0565b610c46565b5b5b5b5050565b60003084604051602001610a4d9291906114d7565b604051602081830303815290604052805190602001209050846005600083815260200190815260200160002060006101000a81548173ffffffffffffffffffffffffffffffffffffffff021916908373ffffffffffffffffffffffffffffffffffffffff160217905550807fb5e6e01e79f91267dc17b4e6314d5d4d03593d2ceee0fbb452b750bd70ea5af960405160405180910390a2600260009054906101000a900473ffffffffffffffffffffffffffffffffffffffff1673ffffffffffffffffffffffffffffffffffffffff16634000aea08685856040518463ffffffff1660e01b8152600401610b43939291906115a3565b602060405180830381600087803b158015610b5d57600080fd5b505af1158015610b71573d6000803e3d6000fd5b505050506040513d601f19601f82011682018060405250810190610b9591906112cb565b610bd4576040517f08c379a0000000000000000000000000000000000000000000000000000000008152600401610bcb90611647565b60405180910390fd5b949350505050565b610be4611198565b6000602083610bf39190611ad7565b14610c1f57602082610c059190611ad7565b6020610c119190611984565b82610c1c91906116cf565b91505b81836020018181525050604051808452600081528281016020016040525082905092915050565b60178167ffffffffffffffff1611610c7d57610c778160058460ff16901b60ff161784610eb090919063ffffffff16565b50610dc6565b60ff8167ffffffffffffffff1611610cd357610cac601860058460ff16901b1784610eb090919063ffffffff16565b50610ccd8167ffffffffffffffff16600185610ed09092919063ffffffff16565b50610dc5565b61ffff8167ffffffffffffffff1611610d2a57610d03601960058460ff16901b1784610eb090919063ffffffff16565b50610d248167ffffffffffffffff16600285610ed09092919063ffffffff16565b50610dc4565b63ffffffff8167ffffffffffffffff1611610d8357610d5c601a60058460ff16901b1784610eb090919063ffffffff16565b50610d7d8167ffffffffffffffff16600485610ed09092919063ffffffff16565b50610dc3565b610da0601b60058460ff16901b1784610eb090919063ffffffff16565b50610dc18167ffffffffffffffff16600885610ed09092919063ffffffff16565b505b5b5b5b505050565b610dd3611198565b610de583846000015151848551610ef2565b905092915050565b610e0b60036005600660ff16901b1783610eb090919063ffffffff16565b50610e6082827fffffffffffffffffffffffffffffffffffffffffffffffffffffffffffffffff610e3c91906118f0565b604051602001610e4c9190611687565b604051602081830303815290604052610fe1565b5050565b610e8260026005600660ff16901b1783610eb090919063ffffffff16565b50610eac8282604051602001610e989190611687565b604051602081830303815290604052610fe1565b5050565b610eb8611198565b610ec88384600001515184611006565b905092915050565b610ed8611198565b610ee984856000015151858561105d565b90509392505050565b610efa611198565b8251821115610f0857600080fd5b84602001518285610f1991906116cf565b1115610f4e57610f4d856002610f3e88602001518887610f3991906116cf565b6110eb565b610f489190611896565b611107565b5b600080865180518760208301019350808887011115610f6d5787860182525b60208701925050505b60208410610fb45780518252602082610f8f91906116cf565b9150602081610f9e91906116cf565b9050602084610fad9190611984565b9350610f76565b60006001856020036101000a03905080198251168184511681811785525050508692505050949350505050565b610fee8260028351610c46565b6110018183610dcb90919063ffffffff16565b505050565b61100e611198565b8360200151831061103457611033846002866020015161102e9190611896565b611107565b5b8351805160208583010184815381861415611050576001820183525b5050508390509392505050565b611065611198565b8460200151848361107691906116cf565b111561109e5761109d856002868561108e91906116cf565b6110989190611896565b611107565b5b60006001836101006110b09190611778565b6110ba9190611984565b905085518386820101858319825116178152815185880111156110dd5784870182525b505085915050949350505050565b6000818311156110fd57829050611101565b8190505b92915050565b60008260000151905061111a8383610bdc565b506111258382610dcb565b50505050565b6040518060a0016040528060008019168152602001600073ffffffffffffffffffffffffffffffffffffffff16815260200160007bffffffffffffffffffffffffffffffffffffffffffffffffffffffff1916815260200160008152602001611192611198565b81525090565b604051806040016040528060608152602001600081525090565b6000813590506111c181611c48565b92915050565b6000813590506111d681611c5f565b92915050565b6000815190506111eb81611c5f565b92915050565b60008135905061120081611c76565b92915050565b60008083601f84011261121c5761121b611b6b565b5b8235905067ffffffffffffffff81111561123957611238611b66565b5b60208301915083600182028301111561125557611254611b70565b5b9250929050565b60008135905061126b81611c8d565b92915050565b60006020828403121561128757611286611b7a565b5b6000611295848285016111b2565b91505092915050565b6000602082840312156112b4576112b3611b7a565b5b60006112c2848285016111c7565b91505092915050565b6000602082840312156112e1576112e0611b7a565b5b60006112ef848285016111dc565b91505092915050565b60006020828403121561130e5761130d611b7a565b5b600061131c848285016111f1565b91505092915050565b6000806040838503121561133c5761133b611b7a565b5b600061134a858286016111f1565b925050602061135b8582860161125c565b9150509250929050565b6000806020838503121561137c5761137b611b7a565b5b600083013567ffffffffffffffff81111561139a57611399611b75565b5b6113a685828601611206565b92509250509250929050565b6000602082840312156113c8576113c7611b7a565b5b60006113d68482850161125c565b91505092915050565b6113e8816119b8565b82525050565b6113f7816119ca565b82525050565b611406816119d6565b82525050565b611415816119e0565b82525050565b6000611426826116a2565b61143081856116ad565b9350611440818560208601611a76565b61144981611b7f565b840191505092915050565b61146561146082611a40565b611aa9565b82525050565b60006114786023836116be565b915061148382611baa565b604082019050919050565b600061149b6028836116be565b91506114a682611bf9565b604082019050919050565b6114ba81611a36565b82525050565b6114d16114cc82611a36565b611acd565b82525050565b60006114e38285611454565b6014820191506114f382846114c0565b6020820191508190509392505050565b600060208201905061151860008301846113df565b92915050565b600061010082019050611534600083018b6113df565b611541602083018a6114b1565b61154e60408301896113fd565b61155b60608301886113df565b611568608083018761140c565b61157560a08301866114b1565b61158260c08301856114b1565b81810360e0830152611594818461141b565b90509998505050505050505050565b60006060820190506115b860008301866113df565b6115c560208301856114b1565b81810360408301526115d7818461141b565b9050949350505050565b60006020820190506115f660008301846113ee565b92915050565b600060408201905061161160008301856113ee565b8181036020830152611623818461141b565b90509392505050565b600060208201905061164160008301846113fd565b92915050565b600060208201905081810360008301526116608161146b565b9050919050565b600060208201905081810360008301526116808161148e565b9050919050565b600060208201905061169c60008301846114b1565b92915050565b600081519050919050565b600082825260208201905092915050565b600082825260208201905092915050565b60006116da82611a36565b91506116e583611a36565b9250827fffffffffffffffffffffffffffffffffffffffffffffffffffffffffffffffff0382111561171a57611719611b08565b5b828201905092915050565b6000808291508390505b600185111561176f5780860481111561174b5761174a611b08565b5b600185161561175a5780820291505b808102905061176885611b9d565b945061172f565b94509492505050565b600061178382611a36565b915061178e83611a36565b92506117bb7fffffffffffffffffffffffffffffffffffffffffffffffffffffffffffffffff84846117c3565b905092915050565b6000826117d3576001905061188f565b816117e1576000905061188f565b81600181146117f7576002811461180157611830565b600191505061188f565b60ff84111561181357611812611b08565b5b8360020a91508482111561182a57611829611b08565b5b5061188f565b5060208310610133831016604e8410600b84101617156118655782820a9050838111156118605761185f611b08565b5b61188f565b6118728484846001611725565b9250905081840481111561188957611888611b08565b5b81810290505b9392505050565b60006118a182611a36565b91506118ac83611a36565b9250817fffffffffffffffffffffffffffffffffffffffffffffffffffffffffffffffff04831182151516156118e5576118e4611b08565b5b828202905092915050565b60006118fb82611a0c565b915061190683611a0c565b9250827f80000000000000000000000000000000000000000000000000000000000000000182126000841215161561194157611940611b08565b5b827f7fffffffffffffffffffffffffffffffffffffffffffffffffffffffffffffff01821360008412161561197957611978611b08565b5b828203905092915050565b600061198f82611a36565b915061199a83611a36565b9250828210156119ad576119ac611b08565b5b828203905092915050565b60006119c382611a16565b9050919050565b60008115159050919050565b6000819050919050565b60007fffffffff0000000000000000000000000000000000000000000000000000000082169050919050565b6000819050919050565b600073ffffffffffffffffffffffffffffffffffffffff82169050919050565b6000819050919050565b6000611a4b82611a52565b9050919050565b6000611a5d82611a64565b9050919050565b6000611a6f82611a16565b9050919050565b60005b83811015611a94578082015181840152602081019050611a79565b83811115611aa3576000848401525b50505050565b6000611ab482611abb565b9050919050565b6000611ac682611b90565b9050919050565b6000819050919050565b6000611ae282611a36565b9150611aed83611a36565b925082611afd57611afc611b37565b5b828206905092915050565b7f4e487b7100000000000000000000000000000000000000000000000000000000600052601160045260246000fd5b7f4e487b7100000000000000000000000000000000000000000000000000000000600052601260045260246000fd5b600080fd5b600080fd5b600080fd5b600080fd5b600080fd5b6000601f19601f8301169050919050565b60008160601b9050919050565b60008160011c9050919050565b7f756e61626c6520746f207472616e73666572416e6443616c6c20746f206f726160008201527f636c650000000000000000000000000000000000000000000000000000000000602082015250565b7f536f75726365206d75737420626520746865206f7261636c65206f662074686560008201527f2072657175657374000000000000000000000000000000000000000000000000602082015250565b611c51816119b8565b8114611c5c57600080fd5b50565b611c68816119ca565b8114611c7357600080fd5b50565b611c7f816119d6565b8114611c8a57600080fd5b50565b611c9681611a36565b8114611ca157600080fd5b5056fe68747470733a2f2f6d696e2d6170692e63727970746f636f6d706172652e636f6d2f646174612f70726963656d756c746966756c6c3f6673796d733d455448267473796d733d555344a264697066735822122052aa0e3f18f57bbe2e5b27253b797f346f9f3729568d2e2955a08e9f154d6f5a64736f6c63430008070033",
  "linkReferences": {},
  "deployedLinkReferences": {}
}