{
  "_format": "hh-sol-artifact-1",
  "contractName": "KeepersCounter",
  "sourceName": "contracts/KeepersCounter.sol",
  "abi": [
    {
      "inputs": [],
      "stateMutability": "nonpayable",
      "type": "constructor"
    },
    {
      "anonymous": false,
      "inputs": [
        {
          "indexed": true,
          "internalType": "bytes32",
          "name": "id",
          "type": "bytes32"
        }
      ],
      "name": "ChainlinkCancelled",
      "type": "event"
    },
    {
      "anonymous": false,
      "inputs": [
        {
          "indexed": true,
          "internalType": "bytes32",
          "name": "id",
          "type": "bytes32"
        }
      ],
      "name": "ChainlinkFulfilled",
      "type": "event"
    },
    {
      "anonymous": false,
      "inputs": [
        {
          "indexed": true,
          "internalType": "bytes32",
          "name": "id",
          "type": "bytes32"
        }
      ],
      "name": "ChainlinkRequested",
      "type": "event"
    },
    {
      "inputs": [
        {
          "internalType": "bytes",
          "name": "",
          "type": "bytes"
        }
      ],
      "name": "checkUpkeep",
      "outputs": [
        {
          "internalType": "bool",
          "name": "upkeepNeeded",
          "type": "bool"
        },
        {
          "internalType": "bytes",
          "name": "",
          "type": "bytes"
        }
      ],
      "stateMutability": "view",
      "type": "function"
    },
    {
      "inputs": [],
      "name": "counter",
      "outputs": [
        {
          "internalType": "uint256",
          "name": "",
          "type": "uint256"
        }
      ],
      "stateMutability": "view",
      "type": "function"
    },
    {
      "inputs": [
        {
          "internalType": "bytes32",
          "name": "_requestId",
          "type": "bytes32"
        },
        {
          "internalType": "uint256",
          "name": "_volume",
          "type": "uint256"
        }
      ],
      "name": "fulfill",
      "outputs": [],
      "stateMutability": "nonpayable",
      "type": "function"
    },
    {
      "inputs": [],
      "name": "interval",
      "outputs": [
        {
          "internalType": "uint256",
          "name": "",
          "type": "uint256"
        }
      ],
      "stateMutability": "view",
      "type": "function"
    },
    {
      "inputs": [],
      "name": "isActive",
      "outputs": [
        {
          "internalType": "bool",
          "name": "",
          "type": "bool"
        }
      ],
      "stateMutability": "view",
      "type": "function"
    },
    {
      "inputs": [],
      "name": "lastTimeStamp",
      "outputs": [
        {
          "internalType": "uint256",
          "name": "",
          "type": "uint256"
        }
      ],
      "stateMutability": "view",
      "type": "function"
    },
    {
      "inputs": [
        {
          "internalType": "bytes",
          "name": "",
          "type": "bytes"
        }
      ],
      "name": "performUpkeep",
      "outputs": [],
      "stateMutability": "nonpayable",
      "type": "function"
    },
    {
      "inputs": [],
      "name": "requestVolumeData",
      "outputs": [
        {
          "internalType": "bytes32",
          "name": "requestId",
          "type": "bytes32"
        }
      ],
      "stateMutability": "nonpayable",
      "type": "function"
    },
    {
      "inputs": [
        {
          "internalType": "bool",
          "name": "newValue",
          "type": "bool"
        }
      ],
      "name": "setActive",
      "outputs": [],
      "stateMutability": "nonpayable",
      "type": "function"
    },
    {
      "inputs": [],
      "name": "volume",
      "outputs": [
        {
          "internalType": "uint256",
          "name": "",
          "type": "uint256"
        }
      ],
      "stateMutability": "view",
      "type": "function"
    }
  ],
  "bytecode": "0x60a06040526001600455600a60809081525034801561001d57600080fd5b5061004173326c977e6efc84e512bb9c30f76e30c160ed06fb6100d060201b60201c565b730bddcd124709acbf9bb3f824ebc61c87019888bb600760006101000a81548173ffffffffffffffffffffffffffffffffffffffff021916908373ffffffffffffffffffffffffffffffffffffffff1602179055507f6336613030366534663438343437353461363532343434356163646538346130600881905550662386f26fc10000600981905550610114565b80600260006101000a81548173ffffffffffffffffffffffffffffffffffffffff021916908373ffffffffffffffffffffffffffffffffffffffff16021790555050565b608051611aa861013d6000396000818161031f0152818161052701526105610152611aa86000f3fe608060405234801561001057600080fd5b506004361061009e5760003560e01c806361bc221a1161006657806361bc221a146101355780636e04ff0d14610153578063947a36fb14610184578063acec338a146101a2578063c618a1e4146101be5761009e565b806322f3e2d4146100a35780633f3b3b27146100c15780634357855e146100df5780634585e33b146100fb5780636021abac14610117575b600080fd5b6100ab6101dc565b6040516100b8919061137d565b60405180910390f35b6100c96101ef565b6040516100d69190611423565b60405180910390f35b6100f960048036038101906100f49190611109565b6101f5565b005b61011560048036038101906101109190611149565b610306565b005b61011f61037d565b60405161012c91906113c8565b60405180910390f35b61013d610504565b60405161014a9190611423565b60405180910390f35b61016d60048036038101906101689190611149565b61050a565b60405161017b929190611398565b60405180910390f35b61018c61055f565b6040516101999190611423565b60405180910390f35b6101bc60048036038101906101b791906110af565b610583565b005b6101c66105a0565b6040516101d39190611423565b60405180910390f35b600a60009054906101000a900460ff1681565b600c5481565b816005600082815260200190815260200160002060009054906101000a900473ffffffffffffffffffffffffffffffffffffffff1673ffffffffffffffffffffffffffffffffffffffff163373ffffffffffffffffffffffffffffffffffffffff1614610297576040517f08c379a000000000000000000000000000000000000000000000000000000000815260040161028e90611403565b60405180910390fd5b6005600082815260200190815260200160002060006101000a81549073ffffffffffffffffffffffffffffffffffffffff0219169055807f7cc135e0cebb02c3480ae5d74d377283180a2601f8f644edf7987b009316c63a60405160405180910390a281600681905550505050565b600a60009054906101000a900460ff16801561034e57507f0000000000000000000000000000000000000000000000000000000000000000600c544261034c9190611720565b115b156103795742600c819055506001600b54610369919061146b565b600b8190555061037761037d565b505b5050565b60008061039460085430634357855e60e01b6105a6565b90506103f86040518060400160405280600381526020017f6765740000000000000000000000000000000000000000000000000000000000815250604051806080016040528060498152602001611a2a60499139836105d79092919063ffffffff16565b6104776040518060400160405280600481526020017f70617468000000000000000000000000000000000000000000000000000000008152506040518060400160405280601881526020017f5241572c4554482c5553442c564f4c554d453234484f55520000000000000000815250836105d79092919063ffffffff16565b6000670de0b6b3a764000090506104ce6040518060400160405280600581526020017f74696d6573000000000000000000000000000000000000000000000000000000815250828461060a9092919063ffffffff16565b6104fd600760009054906101000a900473ffffffffffffffffffffffffffffffffffffffff168360095461063d565b9250505090565b600b5481565b60006060600a60009054906101000a900460ff16801561055657507f0000000000000000000000000000000000000000000000000000000000000000600c54426105549190611720565b115b91509250929050565b7f000000000000000000000000000000000000000000000000000000000000000081565b80600a60006101000a81548160ff02191690831515021790555050565b60065481565b6105ae610f7e565b6105b6610f7e565b6105cd85858584610709909392919063ffffffff16565b9150509392505050565b6105ee8284608001516107b990919063ffffffff16565b6106058184608001516107b990919063ffffffff16565b505050565b6106218284608001516107b990919063ffffffff16565b6106388184608001516107de90919063ffffffff16565b505050565b6000806004549050600181610652919061146b565b6004819055506000634042994660e01b60008087600001513089604001518760018c60800151600001516040516024016106939897969594939291906112ba565b604051602081830303815290604052907bffffffffffffffffffffffffffffffffffffffffffffffffffffffff19166020820180517bffffffffffffffffffffffffffffffffffffffffffffffffffffffff838183161783525050505090506106fe8683868461088b565b925050509392505050565b610711610f7e565b6107218560800151610100610a2f565b508385600001818152505082856020019073ffffffffffffffffffffffffffffffffffffffff16908173ffffffffffffffffffffffffffffffffffffffff16815250508185604001907bffffffffffffffffffffffffffffffffffffffffffffffffffffffff191690817bffffffffffffffffffffffffffffffffffffffffffffffffffffffff191681525050849050949350505050565b6107c68260038351610a99565b6107d98183610c1e90919063ffffffff16565b505050565b7fffffffffffffffffffffffffffffffffffffffffffffffff0000000000000000811215610815576108108282610c40565b610887565b67ffffffffffffffff8113156108345761082f8282610cb7565b610886565b6000811261084d5761084882600083610a99565b610885565b610884826001837fffffffffffffffffffffffffffffffffffffffffffffffffffffffffffffffff61087f919061168c565b610a99565b5b5b5b5050565b600030846040516020016108a092919061128e565b604051602081830303815290604052805190602001209050846005600083815260200190815260200160002060006101000a81548173ffffffffffffffffffffffffffffffffffffffff021916908373ffffffffffffffffffffffffffffffffffffffff160217905550807fb5e6e01e79f91267dc17b4e6314d5d4d03593d2ceee0fbb452b750bd70ea5af960405160405180910390a2600260009054906101000a900473ffffffffffffffffffffffffffffffffffffffff1673ffffffffffffffffffffffffffffffffffffffff16634000aea08685856040518463ffffffff1660e01b81526004016109969392919061133f565b602060405180830381600087803b1580156109b057600080fd5b505af11580156109c4573d6000803e3d6000fd5b505050506040513d601f19601f820116820180604052508101906109e891906110dc565b610a27576040517f08c379a0000000000000000000000000000000000000000000000000000000008152600401610a1e906113e3565b60405180910390fd5b949350505050565b610a37610feb565b6000602083610a469190611873565b14610a7257602082610a589190611873565b6020610a649190611720565b82610a6f919061146b565b91505b81836020018181525050604051808452600081528281016020016040525082905092915050565b60178167ffffffffffffffff1611610ad057610aca8160058460ff16901b60ff161784610d0390919063ffffffff16565b50610c19565b60ff8167ffffffffffffffff1611610b2657610aff601860058460ff16901b1784610d0390919063ffffffff16565b50610b208167ffffffffffffffff16600185610d239092919063ffffffff16565b50610c18565b61ffff8167ffffffffffffffff1611610b7d57610b56601960058460ff16901b1784610d0390919063ffffffff16565b50610b778167ffffffffffffffff16600285610d239092919063ffffffff16565b50610c17565b63ffffffff8167ffffffffffffffff1611610bd657610baf601a60058460ff16901b1784610d0390919063ffffffff16565b50610bd08167ffffffffffffffff16600485610d239092919063ffffffff16565b50610c16565b610bf3601b60058460ff16901b1784610d0390919063ffffffff16565b50610c148167ffffffffffffffff16600885610d239092919063ffffffff16565b505b5b5b5b505050565b610c26610feb565b610c3883846000015151848551610d45565b905092915050565b610c5e60036005600660ff16901b1783610d0390919063ffffffff16565b50610cb382827fffffffffffffffffffffffffffffffffffffffffffffffffffffffffffffffff610c8f919061168c565b604051602001610c9f9190611423565b604051602081830303815290604052610e34565b5050565b610cd560026005600660ff16901b1783610d0390919063ffffffff16565b50610cff8282604051602001610ceb9190611423565b604051602081830303815290604052610e34565b5050565b610d0b610feb565b610d1b8384600001515184610e59565b905092915050565b610d2b610feb565b610d3c848560000151518585610eb0565b90509392505050565b610d4d610feb565b8251821115610d5b57600080fd5b84602001518285610d6c919061146b565b1115610da157610da0856002610d9188602001518887610d8c919061146b565b610f3e565b610d9b9190611632565b610f5a565b5b600080865180518760208301019350808887011115610dc05787860182525b60208701925050505b60208410610e075780518252602082610de2919061146b565b9150602081610df1919061146b565b9050602084610e009190611720565b9350610dc9565b60006001856020036101000a03905080198251168184511681811785525050508692505050949350505050565b610e418260028351610a99565b610e548183610c1e90919063ffffffff16565b505050565b610e61610feb565b83602001518310610e8757610e868460028660200151610e819190611632565b610f5a565b5b8351805160208583010184815381861415610ea3576001820183525b5050508390509392505050565b610eb8610feb565b84602001518483610ec9919061146b565b1115610ef157610ef08560028685610ee1919061146b565b610eeb9190611632565b610f5a565b5b6000600183610100610f039190611514565b610f0d9190611720565b90508551838682010185831982511617815281518588011115610f305784870182525b505085915050949350505050565b600081831115610f5057829050610f54565b8190505b92915050565b600082600001519050610f6d8383610a2f565b50610f788382610c1e565b50505050565b6040518060a0016040528060008019168152602001600073ffffffffffffffffffffffffffffffffffffffff16815260200160007bffffffffffffffffffffffffffffffffffffffffffffffffffffffff1916815260200160008152602001610fe5610feb565b81525090565b604051806040016040528060608152602001600081525090565b600081359050611014816119e4565b92915050565b600081519050611029816119e4565b92915050565b60008135905061103e816119fb565b92915050565b60008083601f84011261105a57611059611907565b5b8235905067ffffffffffffffff81111561107757611076611902565b5b6020830191508360018202830111156110935761109261190c565b5b9250929050565b6000813590506110a981611a12565b92915050565b6000602082840312156110c5576110c4611916565b5b60006110d384828501611005565b91505092915050565b6000602082840312156110f2576110f1611916565b5b60006111008482850161101a565b91505092915050565b600080604083850312156111205761111f611916565b5b600061112e8582860161102f565b925050602061113f8582860161109a565b9150509250929050565b600080602083850312156111605761115f611916565b5b600083013567ffffffffffffffff81111561117e5761117d611911565b5b61118a85828601611044565b92509250509250929050565b61119f81611754565b82525050565b6111ae81611766565b82525050565b6111bd81611772565b82525050565b6111cc8161177c565b82525050565b60006111dd8261143e565b6111e78185611449565b93506111f7818560208601611812565b6112008161191b565b840191505092915050565b61121c611217826117dc565b611845565b82525050565b600061122f60238361145a565b915061123a82611946565b604082019050919050565b600061125260288361145a565b915061125d82611995565b604082019050919050565b611271816117d2565b82525050565b611288611283826117d2565b611869565b82525050565b600061129a828561120b565b6014820191506112aa8284611277565b6020820191508190509392505050565b6000610100820190506112d0600083018b611196565b6112dd602083018a611268565b6112ea60408301896111b4565b6112f76060830188611196565b61130460808301876111c3565b61131160a0830186611268565b61131e60c0830185611268565b81810360e083015261133081846111d2565b90509998505050505050505050565b60006060820190506113546000830186611196565b6113616020830185611268565b818103604083015261137381846111d2565b9050949350505050565b600060208201905061139260008301846111a5565b92915050565b60006040820190506113ad60008301856111a5565b81810360208301526113bf81846111d2565b90509392505050565b60006020820190506113dd60008301846111b4565b92915050565b600060208201905081810360008301526113fc81611222565b9050919050565b6000602082019050818103600083015261141c81611245565b9050919050565b60006020820190506114386000830184611268565b92915050565b600081519050919050565b600082825260208201905092915050565b600082825260208201905092915050565b6000611476826117d2565b9150611481836117d2565b9250827fffffffffffffffffffffffffffffffffffffffffffffffffffffffffffffffff038211156114b6576114b56118a4565b5b828201905092915050565b6000808291508390505b600185111561150b578086048111156114e7576114e66118a4565b5b60018516156114f65780820291505b808102905061150485611939565b94506114cb565b94509492505050565b600061151f826117d2565b915061152a836117d2565b92506115577fffffffffffffffffffffffffffffffffffffffffffffffffffffffffffffffff848461155f565b905092915050565b60008261156f576001905061162b565b8161157d576000905061162b565b8160018114611593576002811461159d576115cc565b600191505061162b565b60ff8411156115af576115ae6118a4565b5b8360020a9150848211156115c6576115c56118a4565b5b5061162b565b5060208310610133831016604e8410600b84101617156116015782820a9050838111156115fc576115fb6118a4565b5b61162b565b61160e84848460016114c1565b92509050818404811115611625576116246118a4565b5b81810290505b9392505050565b600061163d826117d2565b9150611648836117d2565b9250817fffffffffffffffffffffffffffffffffffffffffffffffffffffffffffffffff0483118215151615611681576116806118a4565b5b828202905092915050565b6000611697826117a8565b91506116a2836117a8565b9250827f8000000000000000000000000000000000000000000000000000000000000000018212600084121516156116dd576116dc6118a4565b5b827f7fffffffffffffffffffffffffffffffffffffffffffffffffffffffffffffff018213600084121615611715576117146118a4565b5b828203905092915050565b600061172b826117d2565b9150611736836117d2565b925082821015611749576117486118a4565b5b828203905092915050565b600061175f826117b2565b9050919050565b60008115159050919050565b6000819050919050565b60007fffffffff0000000000000000000000000000000000000000000000000000000082169050919050565b6000819050919050565b600073ffffffffffffffffffffffffffffffffffffffff82169050919050565b6000819050919050565b60006117e7826117ee565b9050919050565b60006117f982611800565b9050919050565b600061180b826117b2565b9050919050565b60005b83811015611830578082015181840152602081019050611815565b8381111561183f576000848401525b50505050565b600061185082611857565b9050919050565b60006118628261192c565b9050919050565b6000819050919050565b600061187e826117d2565b9150611889836117d2565b925082611899576118986118d3565b5b828206905092915050565b7f4e487b7100000000000000000000000000000000000000000000000000000000600052601160045260246000fd5b7f4e487b7100000000000000000000000000000000000000000000000000000000600052601260045260246000fd5b600080fd5b600080fd5b600080fd5b600080fd5b600080fd5b6000601f19601f8301169050919050565b60008160601b9050919050565b60008160011c9050919050565b7f756e61626c6520746f207472616e73666572416e6443616c6c20746f206f726160008201527f636c650000000000000000000000000000000000000000000000000000000000602082015250565b7f536f75726365206d75737420626520746865206f7261636c65206f662074686560008201527f2072657175657374000000000000000000000000000000000000000000000000602082015250565b6119ed81611766565b81146119f857600080fd5b50565b611a0481611772565b8114611a0f57600080fd5b50565b611a1b816117d2565b8114611a2657600080fd5b5056fe68747470733a2f2f6d696e2d6170692e63727970746f636f6d706172652e636f6d2f646174612f70726963656d756c746966756c6c3f6673796d733d455448267473796d733d555344a2646970667358221220918e446eb2f134b4a94767c69cc9709889132b37e5fec957ec05c5b46ceafdf264736f6c63430008070033",
  "linkReferences": {},
  "deployedLinkReferences": {}
}