{
  "_format": "hh-sol-artifact-1",
  "contractName": "KeepersCounter",
  "sourceName": "contracts/KeepersCounter.sol",
  "abi": [
    {
      "inputs": [
        {
          "internalType": "uint256",
          "name": "updateInterval",
          "type": "uint256"
        }
      ],
      "stateMutability": "nonpayable",
      "type": "constructor"
    },
    {
      "inputs": [
        {
          "internalType": "bytes",
          "name": "",
          "type": "bytes"
        }
      ],
      "name": "checkUpkeep",
      "outputs": [
        {
          "internalType": "bool",
          "name": "upkeepNeeded",
          "type": "bool"
        },
        {
          "internalType": "bytes",
          "name": "",
          "type": "bytes"
        }
      ],
      "stateMutability": "view",
      "type": "function"
    },
    {
      "inputs": [],
      "name": "counter",
      "outputs": [
        {
          "internalType": "uint256",
          "name": "",
          "type": "uint256"
        }
      ],
      "stateMutability": "view",
      "type": "function"
    },
    {
      "inputs": [],
      "name": "interval",
      "outputs": [
        {
          "internalType": "uint256",
          "name": "",
          "type": "uint256"
        }
      ],
      "stateMutability": "view",
      "type": "function"
    },
    {
      "inputs": [],
      "name": "lastTimeStamp",
      "outputs": [
        {
          "internalType": "uint256",
          "name": "",
          "type": "uint256"
        }
      ],
      "stateMutability": "view",
      "type": "function"
    },
    {
      "inputs": [
        {
          "internalType": "bytes",
          "name": "",
          "type": "bytes"
        }
      ],
      "name": "performUpkeep",
      "outputs": [],
      "stateMutability": "nonpayable",
      "type": "function"
    }
  ],
  "bytecode": "0x60a060405234801561001057600080fd5b5060405161056838038061056883398181016040528101906100329190610063565b80608081815250504260018190555060008081905550506100b6565b60008151905061005d8161009f565b92915050565b6000602082840312156100795761007861009a565b5b60006100878482850161004e565b91505092915050565b6000819050919050565b600080fd5b6100a881610090565b81146100b357600080fd5b50565b6080516104896100df6000396000818161010b0152818161016b01526101a401526104896000f3fe608060405234801561001057600080fd5b50600436106100575760003560e01c80633f3b3b271461005c5780634585e33b1461007a57806361bc221a146100965780636e04ff0d146100b4578063947a36fb146100e5575b600080fd5b610064610103565b60405161007191906102f0565b60405180910390f35b610094600480360381019061008f919061021c565b610109565b005b61009e61015f565b6040516100ab91906102f0565b60405180910390f35b6100ce60048036038101906100c9919061021c565b610165565b6040516100dc9291906102c0565b60405180910390f35b6100ed6101a2565b6040516100fa91906102f0565b60405180910390f35b60015481565b7f000000000000000000000000000000000000000000000000000000000000000060015442610138919061037d565b111561015b574260018190555060016000546101549190610327565b6000819055505b5050565b60005481565b600060607f000000000000000000000000000000000000000000000000000000000000000060015442610198919061037d565b1191509250929050565b7f000000000000000000000000000000000000000000000000000000000000000081565b60008083601f8401126101dc576101db61042e565b5b8235905067ffffffffffffffff8111156101f9576101f8610429565b5b60208301915083600182028301111561021557610214610433565b5b9250929050565b600080602083850312156102335761023261043d565b5b600083013567ffffffffffffffff81111561025157610250610438565b5b61025d858286016101c6565b92509250509250929050565b610272816103b1565b82525050565b60006102838261030b565b61028d8185610316565b935061029d8185602086016103c7565b6102a681610442565b840191505092915050565b6102ba816103bd565b82525050565b60006040820190506102d56000830185610269565b81810360208301526102e78184610278565b90509392505050565b600060208201905061030560008301846102b1565b92915050565b600081519050919050565b600082825260208201905092915050565b6000610332826103bd565b915061033d836103bd565b9250827fffffffffffffffffffffffffffffffffffffffffffffffffffffffffffffffff03821115610372576103716103fa565b5b828201905092915050565b6000610388826103bd565b9150610393836103bd565b9250828210156103a6576103a56103fa565b5b828203905092915050565b60008115159050919050565b6000819050919050565b60005b838110156103e55780820151818401526020810190506103ca565b838111156103f4576000848401525b50505050565b7f4e487b7100000000000000000000000000000000000000000000000000000000600052601160045260246000fd5b600080fd5b600080fd5b600080fd5b600080fd5b600080fd5b6000601f19601f830116905091905056fea264697066735822122034c251f6879e0163de26124175678212658eb8eed2ea5f1b8145d98c05c495ff64736f6c63430008070033",
  "linkReferences": {},
  "deployedLinkReferences": {}
}