{
  "_format": "hh-sol-artifact-1",
  "contractName": "EquitiesPriceFeed",
  "sourceName": "contracts/EquitiesPriceFeed.sol",
  "abi": [
    {
      "inputs": [],
      "stateMutability": "nonpayable",
      "type": "constructor"
    },
    {
      "anonymous": false,
      "inputs": [
        {
          "indexed": true,
          "internalType": "bytes32",
          "name": "id",
          "type": "bytes32"
        }
      ],
      "name": "ChainlinkCancelled",
      "type": "event"
    },
    {
      "anonymous": false,
      "inputs": [
        {
          "indexed": true,
          "internalType": "bytes32",
          "name": "id",
          "type": "bytes32"
        }
      ],
      "name": "ChainlinkFulfilled",
      "type": "event"
    },
    {
      "anonymous": false,
      "inputs": [
        {
          "indexed": true,
          "internalType": "bytes32",
          "name": "id",
          "type": "bytes32"
        }
      ],
      "name": "ChainlinkRequested",
      "type": "event"
    },
    {
      "anonymous": false,
      "inputs": [
        {
          "indexed": true,
          "internalType": "address",
          "name": "previousOwner",
          "type": "address"
        },
        {
          "indexed": true,
          "internalType": "address",
          "name": "newOwner",
          "type": "address"
        }
      ],
      "name": "OwnershipTransferred",
      "type": "event"
    },
    {
      "inputs": [
        {
          "internalType": "string",
          "name": "",
          "type": "string"
        }
      ],
      "name": "blocks",
      "outputs": [
        {
          "internalType": "uint256",
          "name": "",
          "type": "uint256"
        }
      ],
      "stateMutability": "view",
      "type": "function"
    },
    {
      "inputs": [],
      "name": "fee",
      "outputs": [
        {
          "internalType": "uint256",
          "name": "",
          "type": "uint256"
        }
      ],
      "stateMutability": "view",
      "type": "function"
    },
    {
      "inputs": [
        {
          "internalType": "bytes32",
          "name": "_requestId",
          "type": "bytes32"
        },
        {
          "internalType": "uint256",
          "name": "_returnedPrice",
          "type": "uint256"
        }
      ],
      "name": "fulfill",
      "outputs": [],
      "stateMutability": "nonpayable",
      "type": "function"
    },
    {
      "inputs": [
        {
          "internalType": "string",
          "name": "_symbol",
          "type": "string"
        }
      ],
      "name": "getPriceandBlock",
      "outputs": [
        {
          "internalType": "uint256",
          "name": "",
          "type": "uint256"
        },
        {
          "internalType": "uint256",
          "name": "",
          "type": "uint256"
        }
      ],
      "stateMutability": "view",
      "type": "function"
    },
    {
      "inputs": [
        {
          "internalType": "address",
          "name": "_requester",
          "type": "address"
        }
      ],
      "name": "isRequester",
      "outputs": [
        {
          "internalType": "bool",
          "name": "",
          "type": "bool"
        }
      ],
      "stateMutability": "view",
      "type": "function"
    },
    {
      "inputs": [],
      "name": "owner",
      "outputs": [
        {
          "internalType": "address",
          "name": "",
          "type": "address"
        }
      ],
      "stateMutability": "view",
      "type": "function"
    },
    {
      "inputs": [],
      "name": "priceJobId",
      "outputs": [
        {
          "internalType": "bytes32",
          "name": "",
          "type": "bytes32"
        }
      ],
      "stateMutability": "view",
      "type": "function"
    },
    {
      "inputs": [
        {
          "internalType": "string",
          "name": "",
          "type": "string"
        }
      ],
      "name": "prices",
      "outputs": [
        {
          "internalType": "uint256",
          "name": "",
          "type": "uint256"
        }
      ],
      "stateMutability": "view",
      "type": "function"
    },
    {
      "inputs": [],
      "name": "renounceOwnership",
      "outputs": [],
      "stateMutability": "nonpayable",
      "type": "function"
    },
    {
      "inputs": [
        {
          "internalType": "string",
          "name": "_symbol",
          "type": "string"
        }
      ],
      "name": "requestPrice",
      "outputs": [
        {
          "internalType": "bytes32",
          "name": "requestId",
          "type": "bytes32"
        }
      ],
      "stateMutability": "nonpayable",
      "type": "function"
    },
    {
      "inputs": [
        {
          "internalType": "uint256",
          "name": "_fee",
          "type": "uint256"
        }
      ],
      "name": "setFee",
      "outputs": [],
      "stateMutability": "nonpayable",
      "type": "function"
    },
    {
      "inputs": [
        {
          "internalType": "bytes32",
          "name": "_jobId",
          "type": "bytes32"
        }
      ],
      "name": "setJobId",
      "outputs": [],
      "stateMutability": "nonpayable",
      "type": "function"
    },
    {
      "inputs": [
        {
          "internalType": "address",
          "name": "_oracle",
          "type": "address"
        }
      ],
      "name": "setOracle",
      "outputs": [],
      "stateMutability": "nonpayable",
      "type": "function"
    },
    {
      "inputs": [
        {
          "internalType": "address",
          "name": "_requester",
          "type": "address"
        }
      ],
      "name": "setRequester",
      "outputs": [],
      "stateMutability": "nonpayable",
      "type": "function"
    },
    {
      "inputs": [
        {
          "internalType": "address",
          "name": "newOwner",
          "type": "address"
        }
      ],
      "name": "transferOwnership",
      "outputs": [],
      "stateMutability": "nonpayable",
      "type": "function"
    }
  ],
  "bytecode": "0x608060405260016004553480156200001657600080fd5b50620000376200002b6200014560201b60201c565b6200014d60201b60201c565b6001600d60003373ffffffffffffffffffffffffffffffffffffffff1673ffffffffffffffffffffffffffffffffffffffff16815260200190815260200160002060006101000a81548160ff021916908315150217905550620000b473326c977e6efc84e512bb9c30f76e30c160ed06fb6200021360201b60201c565b73e3a98d9faab4a4b338b40a6df6273ab520152b8c600760006101000a81548173ffffffffffffffffffffffffffffffffffffffff021916908373ffffffffffffffffffffffffffffffffffffffff1602179055507f65393463633265363238313534353035386434353437306262336139616531366008819055506704c9afac0f82800060098190555062000257565b600033905090565b6000600660009054906101000a900473ffffffffffffffffffffffffffffffffffffffff16905081600660006101000a81548173ffffffffffffffffffffffffffffffffffffffff021916908373ffffffffffffffffffffffffffffffffffffffff1602179055508173ffffffffffffffffffffffffffffffffffffffff168173ffffffffffffffffffffffffffffffffffffffff167f8be0079c531659141344cd1fd0a4f28419497f9722a3daafe3b4186f6b6457e060405160405180910390a35050565b80600260006101000a81548173ffffffffffffffffffffffffffffffffffffffff021916908373ffffffffffffffffffffffffffffffffffffffff16021790555050565b61238a80620002676000396000f3fe608060405234801561001057600080fd5b50600436106100f55760003560e01c8063715018a611610097578063c3825f4b11610066578063c3825f4b1461025d578063d4fe6bd01461028d578063ddca3f43146102bd578063f2fde38b146102db576100f5565b8063715018a6146101e95780637adbf973146101f35780638da5cb5b1461020f578063b312ded31461022d576100f5565b8063227a30c5116100d3578063227a30c5146101795780634357855e14610195578063508954f8146101b157806369fe0e2d146101cd576100f5565b80630191b9e4146100fa578063025291771461012b57806302cde1801461015b575b600080fd5b610114600480360381019061010f9190611704565b6102f7565b604051610122929190611bb4565b60405180910390f35b6101456004803603810190610140919061163d565b610341565b6040516101529190611ac3565b60405180910390f35b610163610397565b6040516101709190611ade565b60405180910390f35b610193600480360381019061018e919061163d565b61039d565b005b6101af60048036038101906101aa91906116c4565b610474565b005b6101cb60048036038101906101c69190611697565b6105dc565b005b6101e760048036038101906101e2919061174d565b610680565b005b6101f1610724565b005b61020d6004803603810190610208919061163d565b6107ac565b005b61021761088a565b60405161022491906119e5565b60405180910390f35b61024760048036038101906102429190611704565b6108b4565b6040516102549190611b99565b60405180910390f35b61027760048036038101906102729190611704565b6108e2565b6040516102849190611b99565b60405180910390f35b6102a760048036038101906102a29190611704565b610910565b6040516102b49190611ade565b60405180910390f35b6102c5610a73565b6040516102d29190611b99565b60405180910390f35b6102f560048036038101906102f0919061163d565b610a79565b005b600080600a8360405161030a91906119b7565b908152602001604051809103902054600b8460405161032991906119b7565b90815260200160405180910390205491509150915091565b6000600d60008373ffffffffffffffffffffffffffffffffffffffff1673ffffffffffffffffffffffffffffffffffffffff16815260200190815260200160002060009054906101000a900460ff169050919050565b60085481565b6103a5610b71565b73ffffffffffffffffffffffffffffffffffffffff166103c361088a565b73ffffffffffffffffffffffffffffffffffffffff1614610419576040517f08c379a000000000000000000000000000000000000000000000000000000000815260040161041090611b59565b60405180910390fd5b6001600d60008373ffffffffffffffffffffffffffffffffffffffff1673ffffffffffffffffffffffffffffffffffffffff16815260200190815260200160002060006101000a81548160ff02191690831515021790555050565b816005600082815260200190815260200160002060009054906101000a900473ffffffffffffffffffffffffffffffffffffffff1673ffffffffffffffffffffffffffffffffffffffff163373ffffffffffffffffffffffffffffffffffffffff1614610516576040517f08c379a000000000000000000000000000000000000000000000000000000000815260040161050d90611b79565b60405180910390fd5b6005600082815260200190815260200160002060006101000a81549073ffffffffffffffffffffffffffffffffffffffff0219169055807f7cc135e0cebb02c3480ae5d74d377283180a2601f8f644edf7987b009316c63a60405160405180910390a26000600c6000858152602001908152602001600020905082600a826040516105a191906119ce565b90815260200160405180910390208190555043600b826040516105c491906119ce565b90815260200160405180910390208190555050505050565b60011515600d60006105ec610b71565b73ffffffffffffffffffffffffffffffffffffffff1673ffffffffffffffffffffffffffffffffffffffff16815260200190815260200160002060009054906101000a900460ff16151514610676576040517f08c379a000000000000000000000000000000000000000000000000000000000815260040161066d90611af9565b60405180910390fd5b8060088190555050565b60011515600d6000610690610b71565b73ffffffffffffffffffffffffffffffffffffffff1673ffffffffffffffffffffffffffffffffffffffff16815260200190815260200160002060009054906101000a900460ff1615151461071a576040517f08c379a000000000000000000000000000000000000000000000000000000000815260040161071190611af9565b60405180910390fd5b8060098190555050565b61072c610b71565b73ffffffffffffffffffffffffffffffffffffffff1661074a61088a565b73ffffffffffffffffffffffffffffffffffffffff16146107a0576040517f08c379a000000000000000000000000000000000000000000000000000000000815260040161079790611b59565b60405180910390fd5b6107aa6000610b79565b565b60011515600d60006107bc610b71565b73ffffffffffffffffffffffffffffffffffffffff1673ffffffffffffffffffffffffffffffffffffffff16815260200190815260200160002060009054906101000a900460ff16151514610846576040517f08c379a000000000000000000000000000000000000000000000000000000000815260040161083d90611af9565b60405180910390fd5b80600760006101000a81548173ffffffffffffffffffffffffffffffffffffffff021916908373ffffffffffffffffffffffffffffffffffffffff16021790555050565b6000600660009054906101000a900473ffffffffffffffffffffffffffffffffffffffff16905090565b600b818051602081018201805184825260208301602085012081835280955050505050506000915090505481565b600a818051602081018201805184825260208301602085012081835280955050505050506000915090505481565b600060011515600d6000610922610b71565b73ffffffffffffffffffffffffffffffffffffffff1673ffffffffffffffffffffffffffffffffffffffff16815260200190815260200160002060009054906101000a900460ff161515146109ac576040517f08c379a00000000000000000000000000000000000000000000000000000000081526004016109a390611af9565b60405180910390fd5b60006109c260085430634357855e60e01b610c3f565b9050610a0e6040518060400160405280600681526020017f7469636b657200000000000000000000000000000000000000000000000000008152508483610c709092919063ffffffff16565b6000610a3f600760009054906101000a900473ffffffffffffffffffffffffffffffffffffffff1683600954610ca3565b905083600c60008381526020019081526020016000209080519060200190610a6892919061144f565b508092505050919050565b60095481565b610a81610b71565b73ffffffffffffffffffffffffffffffffffffffff16610a9f61088a565b73ffffffffffffffffffffffffffffffffffffffff1614610af5576040517f08c379a0000000000000000000000000000000000000000000000000000000008152600401610aec90611b59565b60405180910390fd5b600073ffffffffffffffffffffffffffffffffffffffff168173ffffffffffffffffffffffffffffffffffffffff161415610b65576040517f08c379a0000000000000000000000000000000000000000000000000000000008152600401610b5c90611b19565b60405180910390fd5b610b6e81610b79565b50565b600033905090565b6000600660009054906101000a900473ffffffffffffffffffffffffffffffffffffffff16905081600660006101000a81548173ffffffffffffffffffffffffffffffffffffffff021916908373ffffffffffffffffffffffffffffffffffffffff1602179055508173ffffffffffffffffffffffffffffffffffffffff168173ffffffffffffffffffffffffffffffffffffffff167f8be0079c531659141344cd1fd0a4f28419497f9722a3daafe3b4186f6b6457e060405160405180910390a35050565b610c476114d5565b610c4f6114d5565b610c6685858584610d6f909392919063ffffffff16565b9150509392505050565b610c87828460800151610e1f90919063ffffffff16565b610c9e818460800151610e1f90919063ffffffff16565b505050565b6000806004549050600181610cb89190611c8b565b6004819055506000634042994660e01b60008087600001513089604001518760018c6080015160000151604051602401610cf9989796959493929190611a00565b604051602081830303815290604052907bffffffffffffffffffffffffffffffffffffffffffffffffffffffff19166020820180517bffffffffffffffffffffffffffffffffffffffffffffffffffffffff83818316178352505050509050610d6486838684610e44565b925050509392505050565b610d776114d5565b610d878560800151610100610fe8565b508385600001818152505082856020019073ffffffffffffffffffffffffffffffffffffffff16908173ffffffffffffffffffffffffffffffffffffffff16815250508185604001907bffffffffffffffffffffffffffffffffffffffffffffffffffffffff191690817bffffffffffffffffffffffffffffffffffffffffffffffffffffffff191681525050849050949350505050565b610e2c8260038351611052565b610e3f81836111d790919063ffffffff16565b505050565b60003084604051602001610e5992919061198b565b604051602081830303815290604052805190602001209050846005600083815260200190815260200160002060006101000a81548173ffffffffffffffffffffffffffffffffffffffff021916908373ffffffffffffffffffffffffffffffffffffffff160217905550807fb5e6e01e79f91267dc17b4e6314d5d4d03593d2ceee0fbb452b750bd70ea5af960405160405180910390a2600260009054906101000a900473ffffffffffffffffffffffffffffffffffffffff1673ffffffffffffffffffffffffffffffffffffffff16634000aea08685856040518463ffffffff1660e01b8152600401610f4f93929190611a85565b602060405180830381600087803b158015610f6957600080fd5b505af1158015610f7d573d6000803e3d6000fd5b505050506040513d601f19601f82011682018060405250810190610fa1919061166a565b610fe0576040517f08c379a0000000000000000000000000000000000000000000000000000000008152600401610fd790611b39565b60405180910390fd5b949350505050565b610ff0611542565b6000602083610fff9190612067565b1461102b576020826110119190612067565b602061101d9190611eac565b826110289190611c8b565b91505b81836020018181525050604051808452600081528281016020016040525082905092915050565b60178167ffffffffffffffff1611611089576110838160058460ff16901b60ff1617846111f990919063ffffffff16565b506111d2565b60ff8167ffffffffffffffff16116110df576110b8601860058460ff16901b17846111f990919063ffffffff16565b506110d98167ffffffffffffffff166001856112199092919063ffffffff16565b506111d1565b61ffff8167ffffffffffffffff16116111365761110f601960058460ff16901b17846111f990919063ffffffff16565b506111308167ffffffffffffffff166002856112199092919063ffffffff16565b506111d0565b63ffffffff8167ffffffffffffffff161161118f57611168601a60058460ff16901b17846111f990919063ffffffff16565b506111898167ffffffffffffffff166004856112199092919063ffffffff16565b506111cf565b6111ac601b60058460ff16901b17846111f990919063ffffffff16565b506111cd8167ffffffffffffffff166008856112199092919063ffffffff16565b505b5b5b5b505050565b6111df611542565b6111f18384600001515184855161123b565b905092915050565b611201611542565b611211838460000151518461132a565b905092915050565b611221611542565b611232848560000151518585611381565b90509392505050565b611243611542565b825182111561125157600080fd5b846020015182856112629190611c8b565b111561129757611296856002611287886020015188876112829190611c8b565b61140f565b6112919190611e52565b61142b565b5b6000808651805187602083010193508088870111156112b65787860182525b60208701925050505b602084106112fd57805182526020826112d89190611c8b565b91506020816112e79190611c8b565b90506020846112f69190611eac565b93506112bf565b60006001856020036101000a03905080198251168184511681811785525050508692505050949350505050565b611332611542565b836020015183106113585761135784600286602001516113529190611e52565b61142b565b5b8351805160208583010184815381861415611374576001820183525b5050508390509392505050565b611389611542565b8460200151848361139a9190611c8b565b11156113c2576113c185600286856113b29190611c8b565b6113bc9190611e52565b61142b565b5b60006001836101006113d49190611d34565b6113de9190611eac565b905085518386820101858319825116178152815185880111156114015784870182525b505085915050949350505050565b60008183111561142157829050611425565b8190505b92915050565b60008260000151905061143e8383610fe8565b5061144983826111d7565b50505050565b82805461145b90611fd6565b90600052602060002090601f01602090048101928261147d57600085556114c4565b82601f1061149657805160ff19168380011785556114c4565b828001600101855582156114c4579182015b828111156114c35782518255916020019190600101906114a8565b5b5090506114d1919061155c565b5090565b6040518060a0016040528060008019168152602001600073ffffffffffffffffffffffffffffffffffffffff16815260200160007bffffffffffffffffffffffffffffffffffffffffffffffffffffffff191681526020016000815260200161153c611542565b81525090565b604051806040016040528060608152602001600081525090565b5b8082111561157557600081600090555060010161155d565b5090565b600061158c61158784611c02565b611bdd565b9050828152602081018484840111156115a8576115a7612159565b5b6115b3848285611f94565b509392505050565b6000813590506115ca816122f8565b92915050565b6000815190506115df8161230f565b92915050565b6000813590506115f481612326565b92915050565b600082601f83011261160f5761160e612154565b5b813561161f848260208601611579565b91505092915050565b6000813590506116378161233d565b92915050565b60006020828403121561165357611652612163565b5b6000611661848285016115bb565b91505092915050565b6000602082840312156116805761167f612163565b5b600061168e848285016115d0565b91505092915050565b6000602082840312156116ad576116ac612163565b5b60006116bb848285016115e5565b91505092915050565b600080604083850312156116db576116da612163565b5b60006116e9858286016115e5565b92505060206116fa85828601611628565b9150509250929050565b60006020828403121561171a57611719612163565b5b600082013567ffffffffffffffff8111156117385761173761215e565b5b611744848285016115fa565b91505092915050565b60006020828403121561176357611762612163565b5b600061177184828501611628565b91505092915050565b61178381611ee0565b82525050565b61179281611ef2565b82525050565b6117a181611efe565b82525050565b6117b081611f08565b82525050565b60006117c182611c48565b6117cb8185611c5e565b93506117db818560208601611fa3565b6117e481612168565b840191505092915050565b6118006117fb82611f5e565b612039565b82525050565b600061181182611c53565b61181b8185611c80565b935061182b818560208601611fa3565b80840191505092915050565b6000815461184481611fd6565b61184e8186611c80565b94506001821660008114611869576001811461187a576118ad565b60ff198316865281860193506118ad565b61188385611c33565b60005b838110156118a557815481890152600182019150602081019050611886565b838801955050505b50505092915050565b60006118c3602983611c6f565b91506118ce82612193565b604082019050919050565b60006118e6602683611c6f565b91506118f1826121e2565b604082019050919050565b6000611909602383611c6f565b915061191482612231565b604082019050919050565b600061192c602083611c6f565b915061193782612280565b602082019050919050565b600061194f602883611c6f565b915061195a826122a9565b604082019050919050565b61196e81611f54565b82525050565b61198561198082611f54565b61205d565b82525050565b600061199782856117ef565b6014820191506119a78284611974565b6020820191508190509392505050565b60006119c38284611806565b915081905092915050565b60006119da8284611837565b915081905092915050565b60006020820190506119fa600083018461177a565b92915050565b600061010082019050611a16600083018b61177a565b611a23602083018a611965565b611a306040830189611798565b611a3d606083018861177a565b611a4a60808301876117a7565b611a5760a0830186611965565b611a6460c0830185611965565b81810360e0830152611a7681846117b6565b90509998505050505050505050565b6000606082019050611a9a600083018661177a565b611aa76020830185611965565b8181036040830152611ab981846117b6565b9050949350505050565b6000602082019050611ad86000830184611789565b92915050565b6000602082019050611af36000830184611798565b92915050565b60006020820190508181036000830152611b12816118b6565b9050919050565b60006020820190508181036000830152611b32816118d9565b9050919050565b60006020820190508181036000830152611b52816118fc565b9050919050565b60006020820190508181036000830152611b728161191f565b9050919050565b60006020820190508181036000830152611b9281611942565b9050919050565b6000602082019050611bae6000830184611965565b92915050565b6000604082019050611bc96000830185611965565b611bd66020830184611965565b9392505050565b6000611be7611bf8565b9050611bf38282612008565b919050565b6000604051905090565b600067ffffffffffffffff821115611c1d57611c1c612125565b5b611c2682612168565b9050602081019050919050565b60008190508160005260206000209050919050565b600081519050919050565b600081519050919050565b600082825260208201905092915050565b600082825260208201905092915050565b600081905092915050565b6000611c9682611f54565b9150611ca183611f54565b9250827fffffffffffffffffffffffffffffffffffffffffffffffffffffffffffffffff03821115611cd657611cd5612098565b5b828201905092915050565b6000808291508390505b6001851115611d2b57808604811115611d0757611d06612098565b5b6001851615611d165780820291505b8081029050611d2485612186565b9450611ceb565b94509492505050565b6000611d3f82611f54565b9150611d4a83611f54565b9250611d777fffffffffffffffffffffffffffffffffffffffffffffffffffffffffffffffff8484611d7f565b905092915050565b600082611d8f5760019050611e4b565b81611d9d5760009050611e4b565b8160018114611db35760028114611dbd57611dec565b6001915050611e4b565b60ff841115611dcf57611dce612098565b5b8360020a915084821115611de657611de5612098565b5b50611e4b565b5060208310610133831016604e8410600b8410161715611e215782820a905083811115611e1c57611e1b612098565b5b611e4b565b611e2e8484846001611ce1565b92509050818404811115611e4557611e44612098565b5b81810290505b9392505050565b6000611e5d82611f54565b9150611e6883611f54565b9250817fffffffffffffffffffffffffffffffffffffffffffffffffffffffffffffffff0483118215151615611ea157611ea0612098565b5b828202905092915050565b6000611eb782611f54565b9150611ec283611f54565b925082821015611ed557611ed4612098565b5b828203905092915050565b6000611eeb82611f34565b9050919050565b60008115159050919050565b6000819050919050565b60007fffffffff0000000000000000000000000000000000000000000000000000000082169050919050565b600073ffffffffffffffffffffffffffffffffffffffff82169050919050565b6000819050919050565b6000611f6982611f70565b9050919050565b6000611f7b82611f82565b9050919050565b6000611f8d82611f34565b9050919050565b82818337600083830152505050565b60005b83811015611fc1578082015181840152602081019050611fa6565b83811115611fd0576000848401525b50505050565b60006002820490506001821680611fee57607f821691505b60208210811415612002576120016120f6565b5b50919050565b61201182612168565b810181811067ffffffffffffffff821117156120305761202f612125565b5b80604052505050565b60006120448261204b565b9050919050565b600061205682612179565b9050919050565b6000819050919050565b600061207282611f54565b915061207d83611f54565b92508261208d5761208c6120c7565b5b828206905092915050565b7f4e487b7100000000000000000000000000000000000000000000000000000000600052601160045260246000fd5b7f4e487b7100000000000000000000000000000000000000000000000000000000600052601260045260246000fd5b7f4e487b7100000000000000000000000000000000000000000000000000000000600052602260045260246000fd5b7f4e487b7100000000000000000000000000000000000000000000000000000000600052604160045260246000fd5b600080fd5b600080fd5b600080fd5b600080fd5b6000601f19601f8301169050919050565b60008160601b9050919050565b60008160011c9050919050565b7f4f6e6c79205265717565737465723a2043616c6c6572206973206e6f7420612060008201527f7265717565737465720000000000000000000000000000000000000000000000602082015250565b7f4f776e61626c653a206e6577206f776e657220697320746865207a65726f206160008201527f6464726573730000000000000000000000000000000000000000000000000000602082015250565b7f756e61626c6520746f207472616e73666572416e6443616c6c20746f206f726160008201527f636c650000000000000000000000000000000000000000000000000000000000602082015250565b7f4f776e61626c653a2063616c6c6572206973206e6f7420746865206f776e6572600082015250565b7f536f75726365206d75737420626520746865206f7261636c65206f662074686560008201527f2072657175657374000000000000000000000000000000000000000000000000602082015250565b61230181611ee0565b811461230c57600080fd5b50565b61231881611ef2565b811461232357600080fd5b50565b61232f81611efe565b811461233a57600080fd5b50565b61234681611f54565b811461235157600080fd5b5056fea2646970667358221220ccbea6e88ff9a71576c876dd2b5e3191824885917da0a13d0f1c6a5a0cfcd48164736f6c63430008070033",
  "linkReferences": {},
  "deployedLinkReferences": {}
}