{
  "_format": "hh-sol-artifact-1",
  "contractName": "EquitiesPriceFeed",
  "sourceName": "contracts/EquitiesPriceFeed.sol",
  "abi": [
    {
      "inputs": [],
      "stateMutability": "nonpayable",
      "type": "constructor"
    },
    {
      "anonymous": false,
      "inputs": [
        {
          "indexed": true,
          "internalType": "bytes32",
          "name": "id",
          "type": "bytes32"
        }
      ],
      "name": "ChainlinkCancelled",
      "type": "event"
    },
    {
      "anonymous": false,
      "inputs": [
        {
          "indexed": true,
          "internalType": "bytes32",
          "name": "id",
          "type": "bytes32"
        }
      ],
      "name": "ChainlinkFulfilled",
      "type": "event"
    },
    {
      "anonymous": false,
      "inputs": [
        {
          "indexed": true,
          "internalType": "bytes32",
          "name": "id",
          "type": "bytes32"
        }
      ],
      "name": "ChainlinkRequested",
      "type": "event"
    },
    {
      "anonymous": false,
      "inputs": [
        {
          "indexed": true,
          "internalType": "address",
          "name": "previousOwner",
          "type": "address"
        },
        {
          "indexed": true,
          "internalType": "address",
          "name": "newOwner",
          "type": "address"
        }
      ],
      "name": "OwnershipTransferred",
      "type": "event"
    },
    {
      "inputs": [
        {
          "internalType": "string",
          "name": "",
          "type": "string"
        }
      ],
      "name": "blocks",
      "outputs": [
        {
          "internalType": "uint256",
          "name": "",
          "type": "uint256"
        }
      ],
      "stateMutability": "view",
      "type": "function"
    },
    {
      "inputs": [],
      "name": "fee",
      "outputs": [
        {
          "internalType": "uint256",
          "name": "",
          "type": "uint256"
        }
      ],
      "stateMutability": "view",
      "type": "function"
    },
    {
      "inputs": [
        {
          "internalType": "bytes32",
          "name": "_requestId",
          "type": "bytes32"
        },
        {
          "internalType": "uint256",
          "name": "_returnedPrice",
          "type": "uint256"
        }
      ],
      "name": "fulfill",
      "outputs": [],
      "stateMutability": "nonpayable",
      "type": "function"
    },
    {
      "inputs": [
        {
          "internalType": "string",
          "name": "_symbol",
          "type": "string"
        }
      ],
      "name": "getPriceandBlock",
      "outputs": [
        {
          "internalType": "uint256",
          "name": "",
          "type": "uint256"
        },
        {
          "internalType": "uint256",
          "name": "",
          "type": "uint256"
        }
      ],
      "stateMutability": "view",
      "type": "function"
    },
    {
      "inputs": [
        {
          "internalType": "address",
          "name": "_requester",
          "type": "address"
        }
      ],
      "name": "isRequester",
      "outputs": [
        {
          "internalType": "bool",
          "name": "",
          "type": "bool"
        }
      ],
      "stateMutability": "view",
      "type": "function"
    },
    {
      "inputs": [],
      "name": "oracle",
      "outputs": [
        {
          "internalType": "address",
          "name": "",
          "type": "address"
        }
      ],
      "stateMutability": "view",
      "type": "function"
    },
    {
      "inputs": [],
      "name": "owner",
      "outputs": [
        {
          "internalType": "address",
          "name": "",
          "type": "address"
        }
      ],
      "stateMutability": "view",
      "type": "function"
    },
    {
      "inputs": [],
      "name": "priceJobId",
      "outputs": [
        {
          "internalType": "bytes32",
          "name": "",
          "type": "bytes32"
        }
      ],
      "stateMutability": "view",
      "type": "function"
    },
    {
      "inputs": [
        {
          "internalType": "string",
          "name": "",
          "type": "string"
        }
      ],
      "name": "prices",
      "outputs": [
        {
          "internalType": "uint256",
          "name": "",
          "type": "uint256"
        }
      ],
      "stateMutability": "view",
      "type": "function"
    },
    {
      "inputs": [],
      "name": "renounceOwnership",
      "outputs": [],
      "stateMutability": "nonpayable",
      "type": "function"
    },
    {
      "inputs": [
        {
          "internalType": "string",
          "name": "_symbol",
          "type": "string"
        }
      ],
      "name": "requestPrice",
      "outputs": [
        {
          "internalType": "bytes32",
          "name": "requestId",
          "type": "bytes32"
        }
      ],
      "stateMutability": "nonpayable",
      "type": "function"
    },
    {
      "inputs": [
        {
          "internalType": "uint256",
          "name": "_fee",
          "type": "uint256"
        }
      ],
      "name": "setFee",
      "outputs": [],
      "stateMutability": "nonpayable",
      "type": "function"
    },
    {
      "inputs": [
        {
          "internalType": "bytes32",
          "name": "_jobId",
          "type": "bytes32"
        }
      ],
      "name": "setJobId",
      "outputs": [],
      "stateMutability": "nonpayable",
      "type": "function"
    },
    {
      "inputs": [
        {
          "internalType": "address",
          "name": "_oracle",
          "type": "address"
        }
      ],
      "name": "setOracle",
      "outputs": [],
      "stateMutability": "nonpayable",
      "type": "function"
    },
    {
      "inputs": [
        {
          "internalType": "address",
          "name": "_requester",
          "type": "address"
        }
      ],
      "name": "setRequester",
      "outputs": [],
      "stateMutability": "nonpayable",
      "type": "function"
    },
    {
      "inputs": [
        {
          "internalType": "address",
          "name": "newOwner",
          "type": "address"
        }
      ],
      "name": "transferOwnership",
      "outputs": [],
      "stateMutability": "nonpayable",
      "type": "function"
    }
  ],
  "bytecode": "0x608060405260016004553480156200001657600080fd5b50620000376200002b6200014560201b60201c565b6200014d60201b60201c565b6001600d60003373ffffffffffffffffffffffffffffffffffffffff1673ffffffffffffffffffffffffffffffffffffffff16815260200190815260200160002060006101000a81548160ff021916908315150217905550620000b473326c977e6efc84e512bb9c30f76e30c160ed06fb6200021360201b60201c565b73e3a98d9faab4a4b338b40a6df6273ab520152b8c600760006101000a81548173ffffffffffffffffffffffffffffffffffffffff021916908373ffffffffffffffffffffffffffffffffffffffff1602179055507f63376662623736363766663634303764396330653665336138343565666161616008819055506704c9afac0f82800060098190555062000257565b600033905090565b6000600660009054906101000a900473ffffffffffffffffffffffffffffffffffffffff16905081600660006101000a81548173ffffffffffffffffffffffffffffffffffffffff021916908373ffffffffffffffffffffffffffffffffffffffff1602179055508173ffffffffffffffffffffffffffffffffffffffff168173ffffffffffffffffffffffffffffffffffffffff167f8be0079c531659141344cd1fd0a4f28419497f9722a3daafe3b4186f6b6457e060405160405180910390a35050565b80600260006101000a81548173ffffffffffffffffffffffffffffffffffffffff021916908373ffffffffffffffffffffffffffffffffffffffff16021790555050565b6123d980620002676000396000f3fe608060405234801561001057600080fd5b50600436106101005760003560e01c80637adbf97311610097578063c3825f4b11610066578063c3825f4b14610286578063d4fe6bd0146102b6578063ddca3f43146102e6578063f2fde38b1461030457610100565b80637adbf973146101fe5780637dc0d1d01461021a5780638da5cb5b14610238578063b312ded31461025657610100565b80634357855e116100d35780634357855e146101a0578063508954f8146101bc57806369fe0e2d146101d8578063715018a6146101f457610100565b80630191b9e414610105578063025291771461013657806302cde18014610166578063227a30c514610184575b600080fd5b61011f600480360381019061011a9190611753565b610320565b60405161012d929190611c03565b60405180910390f35b610150600480360381019061014b919061168c565b61036a565b60405161015d9190611b12565b60405180910390f35b61016e6103c0565b60405161017b9190611b2d565b60405180910390f35b61019e6004803603810190610199919061168c565b6103c6565b005b6101ba60048036038101906101b59190611713565b61049d565b005b6101d660048036038101906101d191906116e6565b610605565b005b6101f260048036038101906101ed919061179c565b6106a9565b005b6101fc61074d565b005b6102186004803603810190610213919061168c565b6107d5565b005b6102226108b3565b60405161022f9190611a34565b60405180910390f35b6102406108d9565b60405161024d9190611a34565b60405180910390f35b610270600480360381019061026b9190611753565b610903565b60405161027d9190611be8565b60405180910390f35b6102a0600480360381019061029b9190611753565b610931565b6040516102ad9190611be8565b60405180910390f35b6102d060048036038101906102cb9190611753565b61095f565b6040516102dd9190611b2d565b60405180910390f35b6102ee610ac2565b6040516102fb9190611be8565b60405180910390f35b61031e6004803603810190610319919061168c565b610ac8565b005b600080600a836040516103339190611a06565b908152602001604051809103902054600b846040516103529190611a06565b90815260200160405180910390205491509150915091565b6000600d60008373ffffffffffffffffffffffffffffffffffffffff1673ffffffffffffffffffffffffffffffffffffffff16815260200190815260200160002060009054906101000a900460ff169050919050565b60085481565b6103ce610bc0565b73ffffffffffffffffffffffffffffffffffffffff166103ec6108d9565b73ffffffffffffffffffffffffffffffffffffffff1614610442576040517f08c379a000000000000000000000000000000000000000000000000000000000815260040161043990611ba8565b60405180910390fd5b6001600d60008373ffffffffffffffffffffffffffffffffffffffff1673ffffffffffffffffffffffffffffffffffffffff16815260200190815260200160002060006101000a81548160ff02191690831515021790555050565b816005600082815260200190815260200160002060009054906101000a900473ffffffffffffffffffffffffffffffffffffffff1673ffffffffffffffffffffffffffffffffffffffff163373ffffffffffffffffffffffffffffffffffffffff161461053f576040517f08c379a000000000000000000000000000000000000000000000000000000000815260040161053690611bc8565b60405180910390fd5b6005600082815260200190815260200160002060006101000a81549073ffffffffffffffffffffffffffffffffffffffff0219169055807f7cc135e0cebb02c3480ae5d74d377283180a2601f8f644edf7987b009316c63a60405160405180910390a26000600c6000858152602001908152602001600020905082600a826040516105ca9190611a1d565b90815260200160405180910390208190555043600b826040516105ed9190611a1d565b90815260200160405180910390208190555050505050565b60011515600d6000610615610bc0565b73ffffffffffffffffffffffffffffffffffffffff1673ffffffffffffffffffffffffffffffffffffffff16815260200190815260200160002060009054906101000a900460ff1615151461069f576040517f08c379a000000000000000000000000000000000000000000000000000000000815260040161069690611b48565b60405180910390fd5b8060088190555050565b60011515600d60006106b9610bc0565b73ffffffffffffffffffffffffffffffffffffffff1673ffffffffffffffffffffffffffffffffffffffff16815260200190815260200160002060009054906101000a900460ff16151514610743576040517f08c379a000000000000000000000000000000000000000000000000000000000815260040161073a90611b48565b60405180910390fd5b8060098190555050565b610755610bc0565b73ffffffffffffffffffffffffffffffffffffffff166107736108d9565b73ffffffffffffffffffffffffffffffffffffffff16146107c9576040517f08c379a00000000000000000000000000000000000000000000000000000000081526004016107c090611ba8565b60405180910390fd5b6107d36000610bc8565b565b60011515600d60006107e5610bc0565b73ffffffffffffffffffffffffffffffffffffffff1673ffffffffffffffffffffffffffffffffffffffff16815260200190815260200160002060009054906101000a900460ff1615151461086f576040517f08c379a000000000000000000000000000000000000000000000000000000000815260040161086690611b48565b60405180910390fd5b80600760006101000a81548173ffffffffffffffffffffffffffffffffffffffff021916908373ffffffffffffffffffffffffffffffffffffffff16021790555050565b600760009054906101000a900473ffffffffffffffffffffffffffffffffffffffff1681565b6000600660009054906101000a900473ffffffffffffffffffffffffffffffffffffffff16905090565b600b818051602081018201805184825260208301602085012081835280955050505050506000915090505481565b600a818051602081018201805184825260208301602085012081835280955050505050506000915090505481565b600060011515600d6000610971610bc0565b73ffffffffffffffffffffffffffffffffffffffff1673ffffffffffffffffffffffffffffffffffffffff16815260200190815260200160002060009054906101000a900460ff161515146109fb576040517f08c379a00000000000000000000000000000000000000000000000000000000081526004016109f290611b48565b60405180910390fd5b6000610a1160085430634357855e60e01b610c8e565b9050610a5d6040518060400160405280600681526020017f73796d626f6c00000000000000000000000000000000000000000000000000008152508483610cbf9092919063ffffffff16565b6000610a8e600760009054906101000a900473ffffffffffffffffffffffffffffffffffffffff1683600954610cf2565b905083600c60008381526020019081526020016000209080519060200190610ab792919061149e565b508092505050919050565b60095481565b610ad0610bc0565b73ffffffffffffffffffffffffffffffffffffffff16610aee6108d9565b73ffffffffffffffffffffffffffffffffffffffff1614610b44576040517f08c379a0000000000000000000000000000000000000000000000000000000008152600401610b3b90611ba8565b60405180910390fd5b600073ffffffffffffffffffffffffffffffffffffffff168173ffffffffffffffffffffffffffffffffffffffff161415610bb4576040517f08c379a0000000000000000000000000000000000000000000000000000000008152600401610bab90611b68565b60405180910390fd5b610bbd81610bc8565b50565b600033905090565b6000600660009054906101000a900473ffffffffffffffffffffffffffffffffffffffff16905081600660006101000a81548173ffffffffffffffffffffffffffffffffffffffff021916908373ffffffffffffffffffffffffffffffffffffffff1602179055508173ffffffffffffffffffffffffffffffffffffffff168173ffffffffffffffffffffffffffffffffffffffff167f8be0079c531659141344cd1fd0a4f28419497f9722a3daafe3b4186f6b6457e060405160405180910390a35050565b610c96611524565b610c9e611524565b610cb585858584610dbe909392919063ffffffff16565b9150509392505050565b610cd6828460800151610e6e90919063ffffffff16565b610ced818460800151610e6e90919063ffffffff16565b505050565b6000806004549050600181610d079190611cda565b6004819055506000634042994660e01b60008087600001513089604001518760018c6080015160000151604051602401610d48989796959493929190611a4f565b604051602081830303815290604052907bffffffffffffffffffffffffffffffffffffffffffffffffffffffff19166020820180517bffffffffffffffffffffffffffffffffffffffffffffffffffffffff83818316178352505050509050610db386838684610e93565b925050509392505050565b610dc6611524565b610dd68560800151610100611037565b508385600001818152505082856020019073ffffffffffffffffffffffffffffffffffffffff16908173ffffffffffffffffffffffffffffffffffffffff16815250508185604001907bffffffffffffffffffffffffffffffffffffffffffffffffffffffff191690817bffffffffffffffffffffffffffffffffffffffffffffffffffffffff191681525050849050949350505050565b610e7b82600383516110a1565b610e8e818361122690919063ffffffff16565b505050565b60003084604051602001610ea89291906119da565b604051602081830303815290604052805190602001209050846005600083815260200190815260200160002060006101000a81548173ffffffffffffffffffffffffffffffffffffffff021916908373ffffffffffffffffffffffffffffffffffffffff160217905550807fb5e6e01e79f91267dc17b4e6314d5d4d03593d2ceee0fbb452b750bd70ea5af960405160405180910390a2600260009054906101000a900473ffffffffffffffffffffffffffffffffffffffff1673ffffffffffffffffffffffffffffffffffffffff16634000aea08685856040518463ffffffff1660e01b8152600401610f9e93929190611ad4565b602060405180830381600087803b158015610fb857600080fd5b505af1158015610fcc573d6000803e3d6000fd5b505050506040513d601f19601f82011682018060405250810190610ff091906116b9565b61102f576040517f08c379a000000000000000000000000000000000000000000000000000000000815260040161102690611b88565b60405180910390fd5b949350505050565b61103f611591565b600060208361104e91906120b6565b1461107a5760208261106091906120b6565b602061106c9190611efb565b826110779190611cda565b91505b81836020018181525050604051808452600081528281016020016040525082905092915050565b60178167ffffffffffffffff16116110d8576110d28160058460ff16901b60ff16178461124890919063ffffffff16565b50611221565b60ff8167ffffffffffffffff161161112e57611107601860058460ff16901b178461124890919063ffffffff16565b506111288167ffffffffffffffff166001856112689092919063ffffffff16565b50611220565b61ffff8167ffffffffffffffff16116111855761115e601960058460ff16901b178461124890919063ffffffff16565b5061117f8167ffffffffffffffff166002856112689092919063ffffffff16565b5061121f565b63ffffffff8167ffffffffffffffff16116111de576111b7601a60058460ff16901b178461124890919063ffffffff16565b506111d88167ffffffffffffffff166004856112689092919063ffffffff16565b5061121e565b6111fb601b60058460ff16901b178461124890919063ffffffff16565b5061121c8167ffffffffffffffff166008856112689092919063ffffffff16565b505b5b5b5b505050565b61122e611591565b6112408384600001515184855161128a565b905092915050565b611250611591565b6112608384600001515184611379565b905092915050565b611270611591565b6112818485600001515185856113d0565b90509392505050565b611292611591565b82518211156112a057600080fd5b846020015182856112b19190611cda565b11156112e6576112e58560026112d6886020015188876112d19190611cda565b61145e565b6112e09190611ea1565b61147a565b5b6000808651805187602083010193508088870111156113055787860182525b60208701925050505b6020841061134c57805182526020826113279190611cda565b91506020816113369190611cda565b90506020846113459190611efb565b935061130e565b60006001856020036101000a03905080198251168184511681811785525050508692505050949350505050565b611381611591565b836020015183106113a7576113a684600286602001516113a19190611ea1565b61147a565b5b83518051602085830101848153818614156113c3576001820183525b5050508390509392505050565b6113d8611591565b846020015184836113e99190611cda565b11156114115761141085600286856114019190611cda565b61140b9190611ea1565b61147a565b5b60006001836101006114239190611d83565b61142d9190611efb565b905085518386820101858319825116178152815185880111156114505784870182525b505085915050949350505050565b60008183111561147057829050611474565b8190505b92915050565b60008260000151905061148d8383611037565b506114988382611226565b50505050565b8280546114aa90612025565b90600052602060002090601f0160209004810192826114cc5760008555611513565b82601f106114e557805160ff1916838001178555611513565b82800160010185558215611513579182015b828111156115125782518255916020019190600101906114f7565b5b50905061152091906115ab565b5090565b6040518060a0016040528060008019168152602001600073ffffffffffffffffffffffffffffffffffffffff16815260200160007bffffffffffffffffffffffffffffffffffffffffffffffffffffffff191681526020016000815260200161158b611591565b81525090565b604051806040016040528060608152602001600081525090565b5b808211156115c45760008160009055506001016115ac565b5090565b60006115db6115d684611c51565b611c2c565b9050828152602081018484840111156115f7576115f66121a8565b5b611602848285611fe3565b509392505050565b60008135905061161981612347565b92915050565b60008151905061162e8161235e565b92915050565b60008135905061164381612375565b92915050565b600082601f83011261165e5761165d6121a3565b5b813561166e8482602086016115c8565b91505092915050565b6000813590506116868161238c565b92915050565b6000602082840312156116a2576116a16121b2565b5b60006116b08482850161160a565b91505092915050565b6000602082840312156116cf576116ce6121b2565b5b60006116dd8482850161161f565b91505092915050565b6000602082840312156116fc576116fb6121b2565b5b600061170a84828501611634565b91505092915050565b6000806040838503121561172a576117296121b2565b5b600061173885828601611634565b925050602061174985828601611677565b9150509250929050565b600060208284031215611769576117686121b2565b5b600082013567ffffffffffffffff811115611787576117866121ad565b5b61179384828501611649565b91505092915050565b6000602082840312156117b2576117b16121b2565b5b60006117c084828501611677565b91505092915050565b6117d281611f2f565b82525050565b6117e181611f41565b82525050565b6117f081611f4d565b82525050565b6117ff81611f57565b82525050565b600061181082611c97565b61181a8185611cad565b935061182a818560208601611ff2565b611833816121b7565b840191505092915050565b61184f61184a82611fad565b612088565b82525050565b600061186082611ca2565b61186a8185611ccf565b935061187a818560208601611ff2565b80840191505092915050565b6000815461189381612025565b61189d8186611ccf565b945060018216600081146118b857600181146118c9576118fc565b60ff198316865281860193506118fc565b6118d285611c82565b60005b838110156118f4578154818901526001820191506020810190506118d5565b838801955050505b50505092915050565b6000611912602983611cbe565b915061191d826121e2565b604082019050919050565b6000611935602683611cbe565b915061194082612231565b604082019050919050565b6000611958602383611cbe565b915061196382612280565b604082019050919050565b600061197b602083611cbe565b9150611986826122cf565b602082019050919050565b600061199e602883611cbe565b91506119a9826122f8565b604082019050919050565b6119bd81611fa3565b82525050565b6119d46119cf82611fa3565b6120ac565b82525050565b60006119e6828561183e565b6014820191506119f682846119c3565b6020820191508190509392505050565b6000611a128284611855565b915081905092915050565b6000611a298284611886565b915081905092915050565b6000602082019050611a4960008301846117c9565b92915050565b600061010082019050611a65600083018b6117c9565b611a72602083018a6119b4565b611a7f60408301896117e7565b611a8c60608301886117c9565b611a9960808301876117f6565b611aa660a08301866119b4565b611ab360c08301856119b4565b81810360e0830152611ac58184611805565b90509998505050505050505050565b6000606082019050611ae960008301866117c9565b611af660208301856119b4565b8181036040830152611b088184611805565b9050949350505050565b6000602082019050611b2760008301846117d8565b92915050565b6000602082019050611b4260008301846117e7565b92915050565b60006020820190508181036000830152611b6181611905565b9050919050565b60006020820190508181036000830152611b8181611928565b9050919050565b60006020820190508181036000830152611ba18161194b565b9050919050565b60006020820190508181036000830152611bc18161196e565b9050919050565b60006020820190508181036000830152611be181611991565b9050919050565b6000602082019050611bfd60008301846119b4565b92915050565b6000604082019050611c1860008301856119b4565b611c2560208301846119b4565b9392505050565b6000611c36611c47565b9050611c428282612057565b919050565b6000604051905090565b600067ffffffffffffffff821115611c6c57611c6b612174565b5b611c75826121b7565b9050602081019050919050565b60008190508160005260206000209050919050565b600081519050919050565b600081519050919050565b600082825260208201905092915050565b600082825260208201905092915050565b600081905092915050565b6000611ce582611fa3565b9150611cf083611fa3565b9250827fffffffffffffffffffffffffffffffffffffffffffffffffffffffffffffffff03821115611d2557611d246120e7565b5b828201905092915050565b6000808291508390505b6001851115611d7a57808604811115611d5657611d556120e7565b5b6001851615611d655780820291505b8081029050611d73856121d5565b9450611d3a565b94509492505050565b6000611d8e82611fa3565b9150611d9983611fa3565b9250611dc67fffffffffffffffffffffffffffffffffffffffffffffffffffffffffffffffff8484611dce565b905092915050565b600082611dde5760019050611e9a565b81611dec5760009050611e9a565b8160018114611e025760028114611e0c57611e3b565b6001915050611e9a565b60ff841115611e1e57611e1d6120e7565b5b8360020a915084821115611e3557611e346120e7565b5b50611e9a565b5060208310610133831016604e8410600b8410161715611e705782820a905083811115611e6b57611e6a6120e7565b5b611e9a565b611e7d8484846001611d30565b92509050818404811115611e9457611e936120e7565b5b81810290505b9392505050565b6000611eac82611fa3565b9150611eb783611fa3565b9250817fffffffffffffffffffffffffffffffffffffffffffffffffffffffffffffffff0483118215151615611ef057611eef6120e7565b5b828202905092915050565b6000611f0682611fa3565b9150611f1183611fa3565b925082821015611f2457611f236120e7565b5b828203905092915050565b6000611f3a82611f83565b9050919050565b60008115159050919050565b6000819050919050565b60007fffffffff0000000000000000000000000000000000000000000000000000000082169050919050565b600073ffffffffffffffffffffffffffffffffffffffff82169050919050565b6000819050919050565b6000611fb882611fbf565b9050919050565b6000611fca82611fd1565b9050919050565b6000611fdc82611f83565b9050919050565b82818337600083830152505050565b60005b83811015612010578082015181840152602081019050611ff5565b8381111561201f576000848401525b50505050565b6000600282049050600182168061203d57607f821691505b6020821081141561205157612050612145565b5b50919050565b612060826121b7565b810181811067ffffffffffffffff8211171561207f5761207e612174565b5b80604052505050565b60006120938261209a565b9050919050565b60006120a5826121c8565b9050919050565b6000819050919050565b60006120c182611fa3565b91506120cc83611fa3565b9250826120dc576120db612116565b5b828206905092915050565b7f4e487b7100000000000000000000000000000000000000000000000000000000600052601160045260246000fd5b7f4e487b7100000000000000000000000000000000000000000000000000000000600052601260045260246000fd5b7f4e487b7100000000000000000000000000000000000000000000000000000000600052602260045260246000fd5b7f4e487b7100000000000000000000000000000000000000000000000000000000600052604160045260246000fd5b600080fd5b600080fd5b600080fd5b600080fd5b6000601f19601f8301169050919050565b60008160601b9050919050565b60008160011c9050919050565b7f4f6e6c79205265717565737465723a2043616c6c6572206973206e6f7420612060008201527f7265717565737465720000000000000000000000000000000000000000000000602082015250565b7f4f776e61626c653a206e6577206f776e657220697320746865207a65726f206160008201527f6464726573730000000000000000000000000000000000000000000000000000602082015250565b7f756e61626c6520746f207472616e73666572416e6443616c6c20746f206f726160008201527f636c650000000000000000000000000000000000000000000000000000000000602082015250565b7f4f776e61626c653a2063616c6c6572206973206e6f7420746865206f776e6572600082015250565b7f536f75726365206d75737420626520746865206f7261636c65206f662074686560008201527f2072657175657374000000000000000000000000000000000000000000000000602082015250565b61235081611f2f565b811461235b57600080fd5b50565b61236781611f41565b811461237257600080fd5b50565b61237e81611f4d565b811461238957600080fd5b50565b61239581611fa3565b81146123a057600080fd5b5056fea2646970667358221220af439240334172bfe49d7297a5b3e19fae9b7d6ac7e26788f005d8fd2cb0d22364736f6c63430008070033",
  "linkReferences": {},
  "deployedLinkReferences": {}
}