{
  "_format": "hh-sol-artifact-1",
  "contractName": "EquitiesKeeper",
  "sourceName": "contracts/EquitiesKeeper.sol",
  "abi": [
    {
      "inputs": [],
      "stateMutability": "nonpayable",
      "type": "constructor"
    },
    {
      "anonymous": false,
      "inputs": [
        {
          "indexed": true,
          "internalType": "bytes32",
          "name": "id",
          "type": "bytes32"
        }
      ],
      "name": "ChainlinkCancelled",
      "type": "event"
    },
    {
      "anonymous": false,
      "inputs": [
        {
          "indexed": true,
          "internalType": "bytes32",
          "name": "id",
          "type": "bytes32"
        }
      ],
      "name": "ChainlinkFulfilled",
      "type": "event"
    },
    {
      "anonymous": false,
      "inputs": [
        {
          "indexed": true,
          "internalType": "bytes32",
          "name": "id",
          "type": "bytes32"
        }
      ],
      "name": "ChainlinkRequested",
      "type": "event"
    },
    {
      "anonymous": false,
      "inputs": [
        {
          "indexed": true,
          "internalType": "address",
          "name": "previousOwner",
          "type": "address"
        },
        {
          "indexed": true,
          "internalType": "address",
          "name": "newOwner",
          "type": "address"
        }
      ],
      "name": "OwnershipTransferred",
      "type": "event"
    },
    {
      "inputs": [],
      "name": "EquityFee",
      "outputs": [
        {
          "internalType": "uint256",
          "name": "",
          "type": "uint256"
        }
      ],
      "stateMutability": "view",
      "type": "function"
    },
    {
      "inputs": [
        {
          "internalType": "string",
          "name": "_equity",
          "type": "string"
        }
      ],
      "name": "addEquity",
      "outputs": [],
      "stateMutability": "payable",
      "type": "function"
    },
    {
      "inputs": [
        {
          "internalType": "string",
          "name": "_equity",
          "type": "string"
        }
      ],
      "name": "adminAddEquity",
      "outputs": [],
      "stateMutability": "nonpayable",
      "type": "function"
    },
    {
      "inputs": [
        {
          "internalType": "bytes",
          "name": "",
          "type": "bytes"
        }
      ],
      "name": "checkUpkeep",
      "outputs": [
        {
          "internalType": "bool",
          "name": "upkeepNeeded",
          "type": "bool"
        },
        {
          "internalType": "bytes",
          "name": "",
          "type": "bytes"
        }
      ],
      "stateMutability": "view",
      "type": "function"
    },
    {
      "inputs": [],
      "name": "counter",
      "outputs": [
        {
          "internalType": "uint256",
          "name": "",
          "type": "uint256"
        }
      ],
      "stateMutability": "view",
      "type": "function"
    },
    {
      "inputs": [
        {
          "internalType": "uint256",
          "name": "",
          "type": "uint256"
        }
      ],
      "name": "equities",
      "outputs": [
        {
          "internalType": "string",
          "name": "",
          "type": "string"
        }
      ],
      "stateMutability": "view",
      "type": "function"
    },
    {
      "inputs": [],
      "name": "interval",
      "outputs": [
        {
          "internalType": "uint256",
          "name": "",
          "type": "uint256"
        }
      ],
      "stateMutability": "view",
      "type": "function"
    },
    {
      "inputs": [],
      "name": "isActive",
      "outputs": [
        {
          "internalType": "bool",
          "name": "",
          "type": "bool"
        }
      ],
      "stateMutability": "view",
      "type": "function"
    },
    {
      "inputs": [
        {
          "internalType": "address",
          "name": "_requester",
          "type": "address"
        }
      ],
      "name": "isRequester",
      "outputs": [
        {
          "internalType": "bool",
          "name": "",
          "type": "bool"
        }
      ],
      "stateMutability": "view",
      "type": "function"
    },
    {
      "inputs": [],
      "name": "lastTimeStamp",
      "outputs": [
        {
          "internalType": "uint256",
          "name": "",
          "type": "uint256"
        }
      ],
      "stateMutability": "view",
      "type": "function"
    },
    {
      "inputs": [],
      "name": "numEquities",
      "outputs": [
        {
          "internalType": "uint256",
          "name": "",
          "type": "uint256"
        }
      ],
      "stateMutability": "view",
      "type": "function"
    },
    {
      "inputs": [],
      "name": "owner",
      "outputs": [
        {
          "internalType": "address",
          "name": "",
          "type": "address"
        }
      ],
      "stateMutability": "view",
      "type": "function"
    },
    {
      "inputs": [
        {
          "internalType": "bytes",
          "name": "",
          "type": "bytes"
        }
      ],
      "name": "performUpkeep",
      "outputs": [],
      "stateMutability": "nonpayable",
      "type": "function"
    },
    {
      "inputs": [],
      "name": "renounceOwnership",
      "outputs": [],
      "stateMutability": "nonpayable",
      "type": "function"
    },
    {
      "inputs": [
        {
          "internalType": "bool",
          "name": "newValue",
          "type": "bool"
        }
      ],
      "name": "setActive",
      "outputs": [],
      "stateMutability": "nonpayable",
      "type": "function"
    },
    {
      "inputs": [
        {
          "internalType": "uint256",
          "name": "_EquityFee",
          "type": "uint256"
        }
      ],
      "name": "setEquityFee",
      "outputs": [],
      "stateMutability": "nonpayable",
      "type": "function"
    },
    {
      "inputs": [
        {
          "internalType": "uint256",
          "name": "_interval",
          "type": "uint256"
        }
      ],
      "name": "setInterval",
      "outputs": [],
      "stateMutability": "nonpayable",
      "type": "function"
    },
    {
      "inputs": [
        {
          "internalType": "address",
          "name": "_priceFeedContract",
          "type": "address"
        }
      ],
      "name": "setPriceFeedContract",
      "outputs": [],
      "stateMutability": "nonpayable",
      "type": "function"
    },
    {
      "inputs": [
        {
          "internalType": "address",
          "name": "_requester",
          "type": "address"
        }
      ],
      "name": "setRequester",
      "outputs": [],
      "stateMutability": "nonpayable",
      "type": "function"
    },
    {
      "inputs": [
        {
          "internalType": "address",
          "name": "newOwner",
          "type": "address"
        }
      ],
      "name": "transferOwnership",
      "outputs": [],
      "stateMutability": "nonpayable",
      "type": "function"
    },
    {
      "inputs": [],
      "name": "volume",
      "outputs": [
        {
          "internalType": "uint256",
          "name": "",
          "type": "uint256"
        }
      ],
      "stateMutability": "view",
      "type": "function"
    },
    {
      "inputs": [],
      "name": "withdrawLink",
      "outputs": [],
      "stateMutability": "nonpayable",
      "type": "function"
    }
  ],
  "bytecode": "0x608060405260016004556000600e55671bc16d674ec80000600f5561025860125534801561002c57600080fd5b5061004961003e6100a660201b60201c565b6100ae60201b60201c565b6001600c60003373ffffffffffffffffffffffffffffffffffffffff1673ffffffffffffffffffffffffffffffffffffffff16815260200190815260200160002060006101000a81548160ff021916908315150217905550610174565b600033905090565b6000600660009054906101000a900473ffffffffffffffffffffffffffffffffffffffff16905081600660006101000a81548173ffffffffffffffffffffffffffffffffffffffff021916908373ffffffffffffffffffffffffffffffffffffffff1602179055508173ffffffffffffffffffffffffffffffffffffffff168173ffffffffffffffffffffffffffffffffffffffff167f8be0079c531659141344cd1fd0a4f28419497f9722a3daafe3b4186f6b6457e060405160405180910390a35050565b611d58806101836000396000f3fe6080604052600436106101355760003560e01c8063715018a6116100ab578063acec338a1161006f578063acec338a146103ce578063c618a1e4146103f7578063d10fc6f814610422578063d7457f8c1461045f578063e9add9071461048a578063f2fde38b146104b357610135565b8063715018a61461032157806374626404146103385780638da5cb5b146103615780638dc654a21461038c578063947a36fb146103a357610135565b80633f067679116100fd5780633f0676791461021d5780633f3b3b27146102395780634585e33b146102645780634d9f8b741461028d57806361bc221a146102b85780636e04ff0d146102e357610135565b8063025291771461013a578063227a30c51461017757806322a90082146101a057806322f3e2d4146101c9578063331e049a146101f4575b600080fd5b34801561014657600080fd5b50610161600480360381019061015c91906113c1565b6104dc565b60405161016e9190611754565b60405180910390f35b34801561018357600080fd5b5061019e600480360381019061019991906113c1565b610532565b005b3480156101ac57600080fd5b506101c760048036038101906101c2919061150b565b610609565b005b3480156101d557600080fd5b506101de61068f565b6040516101eb9190611754565b60405180910390f35b34801561020057600080fd5b5061021b6004803603810190610216919061150b565b6106a2565b005b610237600480360381019061023291906114c2565b610728565b005b34801561024557600080fd5b5061024e61089f565b60405161025b9190611863565b60405180910390f35b34801561027057600080fd5b5061028b60048036038101906102869190611475565b6108a5565b005b34801561029957600080fd5b506102a2610a84565b6040516102af9190611863565b60405180910390f35b3480156102c457600080fd5b506102cd610a8a565b6040516102da9190611863565b60405180910390f35b3480156102ef57600080fd5b5061030a60048036038101906103059190611475565b610a90565b60405161031892919061176f565b60405180910390f35b34801561032d57600080fd5b50610336610ac7565b005b34801561034457600080fd5b5061035f600480360381019061035a91906113c1565b610b4f565b005b34801561036d57600080fd5b50610376610c0f565b6040516103839190611710565b60405180910390f35b34801561039857600080fd5b506103a1610c39565b005b3480156103af57600080fd5b506103b8610ded565b6040516103c59190611863565b60405180910390f35b3480156103da57600080fd5b506103f560048036038101906103f091906113ee565b610df3565b005b34801561040357600080fd5b5061040c610e8c565b6040516104199190611863565b60405180910390f35b34801561042e57600080fd5b506104496004803603810190610444919061150b565b610e92565b604051610456919061179f565b60405180910390f35b34801561046b57600080fd5b50610474610f3e565b6040516104819190611863565b60405180910390f35b34801561049657600080fd5b506104b160048036038101906104ac91906114c2565b610f44565b005b3480156104bf57600080fd5b506104da60048036038101906104d591906113c1565b611014565b005b6000600c60008373ffffffffffffffffffffffffffffffffffffffff1673ffffffffffffffffffffffffffffffffffffffff16815260200190815260200160002060009054906101000a900460ff169050919050565b61053a61110c565b73ffffffffffffffffffffffffffffffffffffffff16610558610c0f565b73ffffffffffffffffffffffffffffffffffffffff16146105ae576040517f08c379a00000000000000000000000000000000000000000000000000000000081526004016105a590611823565b60405180910390fd5b6001600c60008373ffffffffffffffffffffffffffffffffffffffff1673ffffffffffffffffffffffffffffffffffffffff16815260200190815260200160002060006101000a81548160ff02191690831515021790555050565b61061161110c565b73ffffffffffffffffffffffffffffffffffffffff1661062f610c0f565b73ffffffffffffffffffffffffffffffffffffffff1614610685576040517f08c379a000000000000000000000000000000000000000000000000000000000815260040161067c90611823565b60405180910390fd5b8060128190555050565b600b60009054906101000a900460ff1681565b6106aa61110c565b73ffffffffffffffffffffffffffffffffffffffff166106c8610c0f565b73ffffffffffffffffffffffffffffffffffffffff161461071e576040517f08c379a000000000000000000000000000000000000000000000000000000000815260040161071590611823565b60405180910390fd5b80600f8190555050565b600f54341461076c576040517f08c379a000000000000000000000000000000000000000000000000000000000815260040161076390611843565b60405180910390fd5b600d819080600181540180825580915050600190039060005260206000200160009091909190915090805190602001906107a79291906111da565b506001600e546107b79190611921565b600e819055506000601160009054906101000a900473ffffffffffffffffffffffffffffffffffffffff1690508073ffffffffffffffffffffffffffffffffffffffff1663d4fe6bd0600d6001600e546108119190611977565b8154811061082257610821611b49565b5b906000526020600020016040518263ffffffff1660e01b815260040161084891906117c1565b602060405180830381600087803b15801561086257600080fd5b505af1158015610876573d6000803e3d6000fd5b505050506040513d601f19601f8201168201806040525081019061089a9190611448565b505050565b60135481565b60011515600c60006108b561110c565b73ffffffffffffffffffffffffffffffffffffffff1673ffffffffffffffffffffffffffffffffffffffff16815260200190815260200160002060009054906101000a900460ff1615151461093f576040517f08c379a0000000000000000000000000000000000000000000000000000000008152600401610936906117e3565b60405180910390fd5b600b60009054906101000a900460ff1680156109695750601254601354426109679190611977565b115b15610a80574260138190555060016010546109849190611921565b6010819055506000601160009054906101000a900473ffffffffffffffffffffffffffffffffffffffff16905060005b600d80549050811015610a7d578173ffffffffffffffffffffffffffffffffffffffff1663d4fe6bd0600d83815481106109f1576109f0611b49565b5b906000526020600020016040518263ffffffff1660e01b8152600401610a1791906117c1565b602060405180830381600087803b158015610a3157600080fd5b505af1158015610a45573d6000803e3d6000fd5b505050506040513d601f19601f82011682018060405250810190610a699190611448565b508080610a7590611aa2565b9150506109b4565b50505b5050565b600e5481565b60105481565b60006060600b60009054906101000a900460ff168015610abe575060125460135442610abc9190611977565b115b91509250929050565b610acf61110c565b73ffffffffffffffffffffffffffffffffffffffff16610aed610c0f565b73ffffffffffffffffffffffffffffffffffffffff1614610b43576040517f08c379a0000000000000000000000000000000000000000000000000000000008152600401610b3a90611823565b60405180910390fd5b610b4d6000611114565b565b610b5761110c565b73ffffffffffffffffffffffffffffffffffffffff16610b75610c0f565b73ffffffffffffffffffffffffffffffffffffffff1614610bcb576040517f08c379a0000000000000000000000000000000000000000000000000000000008152600401610bc290611823565b60405180910390fd5b80601160006101000a81548173ffffffffffffffffffffffffffffffffffffffff021916908373ffffffffffffffffffffffffffffffffffffffff16021790555050565b6000600660009054906101000a900473ffffffffffffffffffffffffffffffffffffffff16905090565b610c4161110c565b73ffffffffffffffffffffffffffffffffffffffff16610c5f610c0f565b73ffffffffffffffffffffffffffffffffffffffff1614610cb5576040517f08c379a0000000000000000000000000000000000000000000000000000000008152600401610cac90611823565b60405180910390fd5b600073326c977e6efc84e512bb9c30f76e30c160ed06fb905060008173ffffffffffffffffffffffffffffffffffffffff166370a08231306040518263ffffffff1660e01b8152600401610d099190611710565b60206040518083038186803b158015610d2157600080fd5b505afa158015610d35573d6000803e3d6000fd5b505050506040513d601f19601f82011682018060405250810190610d599190611538565b90508173ffffffffffffffffffffffffffffffffffffffff1663a9059cbb33836040518363ffffffff1660e01b8152600401610d9692919061172b565b602060405180830381600087803b158015610db057600080fd5b505af1158015610dc4573d6000803e3d6000fd5b505050506040513d601f19601f82011682018060405250810190610de8919061141b565b505050565b60125481565b610dfb61110c565b73ffffffffffffffffffffffffffffffffffffffff16610e19610c0f565b73ffffffffffffffffffffffffffffffffffffffff1614610e6f576040517f08c379a0000000000000000000000000000000000000000000000000000000008152600401610e6690611823565b60405180910390fd5b80600b60006101000a81548160ff02191690831515021790555050565b60075481565b600d8181548110610ea257600080fd5b906000526020600020016000915090508054610ebd90611a3f565b80601f0160208091040260200160405190810160405280929190818152602001828054610ee990611a3f565b8015610f365780601f10610f0b57610100808354040283529160200191610f36565b820191906000526020600020905b815481529060010190602001808311610f1957829003601f168201915b505050505081565b600f5481565b610f4c61110c565b73ffffffffffffffffffffffffffffffffffffffff16610f6a610c0f565b73ffffffffffffffffffffffffffffffffffffffff1614610fc0576040517f08c379a0000000000000000000000000000000000000000000000000000000008152600401610fb790611823565b60405180910390fd5b600d81908060018154018082558091505060019003906000526020600020016000909190919091509080519060200190610ffb9291906111da565b506001600e5461100b9190611921565b600e8190555050565b61101c61110c565b73ffffffffffffffffffffffffffffffffffffffff1661103a610c0f565b73ffffffffffffffffffffffffffffffffffffffff1614611090576040517f08c379a000000000000000000000000000000000000000000000000000000000815260040161108790611823565b60405180910390fd5b600073ffffffffffffffffffffffffffffffffffffffff168173ffffffffffffffffffffffffffffffffffffffff161415611100576040517f08c379a00000000000000000000000000000000000000000000000000000000081526004016110f790611803565b60405180910390fd5b61110981611114565b50565b600033905090565b6000600660009054906101000a900473ffffffffffffffffffffffffffffffffffffffff16905081600660006101000a81548173ffffffffffffffffffffffffffffffffffffffff021916908373ffffffffffffffffffffffffffffffffffffffff1602179055508173ffffffffffffffffffffffffffffffffffffffff168173ffffffffffffffffffffffffffffffffffffffff167f8be0079c531659141344cd1fd0a4f28419497f9722a3daafe3b4186f6b6457e060405160405180910390a35050565b8280546111e690611a3f565b90600052602060002090601f016020900481019282611208576000855561124f565b82601f1061122157805160ff191683800117855561124f565b8280016001018555821561124f579182015b8281111561124e578251825591602001919060010190611233565b5b50905061125c9190611260565b5090565b5b80821115611279576000816000905550600101611261565b5090565b600061129061128b846118a3565b61187e565b9050828152602081018484840111156112ac576112ab611bb6565b5b6112b78482856119fd565b509392505050565b6000813590506112ce81611cc6565b92915050565b6000813590506112e381611cdd565b92915050565b6000815190506112f881611cdd565b92915050565b60008151905061130d81611cf4565b92915050565b60008083601f84011261132957611328611bac565b5b8235905067ffffffffffffffff81111561134657611345611ba7565b5b60208301915083600182028301111561136257611361611bb1565b5b9250929050565b600082601f83011261137e5761137d611bac565b5b813561138e84826020860161127d565b91505092915050565b6000813590506113a681611d0b565b92915050565b6000815190506113bb81611d0b565b92915050565b6000602082840312156113d7576113d6611bc0565b5b60006113e5848285016112bf565b91505092915050565b60006020828403121561140457611403611bc0565b5b6000611412848285016112d4565b91505092915050565b60006020828403121561143157611430611bc0565b5b600061143f848285016112e9565b91505092915050565b60006020828403121561145e5761145d611bc0565b5b600061146c848285016112fe565b91505092915050565b6000806020838503121561148c5761148b611bc0565b5b600083013567ffffffffffffffff8111156114aa576114a9611bbb565b5b6114b685828601611313565b92509250509250929050565b6000602082840312156114d8576114d7611bc0565b5b600082013567ffffffffffffffff8111156114f6576114f5611bbb565b5b61150284828501611369565b91505092915050565b60006020828403121561152157611520611bc0565b5b600061152f84828501611397565b91505092915050565b60006020828403121561154e5761154d611bc0565b5b600061155c848285016113ac565b91505092915050565b61156e816119ab565b82525050565b61157d816119bd565b82525050565b600061158e826118e9565b61159881856118ff565b93506115a8818560208601611a0c565b6115b181611bc5565b840191505092915050565b60006115c7826118f4565b6115d18185611910565b93506115e1818560208601611a0c565b6115ea81611bc5565b840191505092915050565b6000815461160281611a3f565b61160c8186611910565b9450600182166000811461162757600181146116395761166c565b60ff198316865260208601935061166c565b611642856118d4565b60005b8381101561166457815481890152600182019150602081019050611645565b808801955050505b50505092915050565b6000611682602983611910565b915061168d82611bd6565b604082019050919050565b60006116a5602683611910565b91506116b082611c25565b604082019050919050565b60006116c8602083611910565b91506116d382611c74565b602082019050919050565b60006116eb601683611910565b91506116f682611c9d565b602082019050919050565b61170a816119f3565b82525050565b60006020820190506117256000830184611565565b92915050565b60006040820190506117406000830185611565565b61174d6020830184611701565b9392505050565b60006020820190506117696000830184611574565b92915050565b60006040820190506117846000830185611574565b81810360208301526117968184611583565b90509392505050565b600060208201905081810360008301526117b981846115bc565b905092915050565b600060208201905081810360008301526117db81846115f5565b905092915050565b600060208201905081810360008301526117fc81611675565b9050919050565b6000602082019050818103600083015261181c81611698565b9050919050565b6000602082019050818103600083015261183c816116bb565b9050919050565b6000602082019050818103600083015261185c816116de565b9050919050565b60006020820190506118786000830184611701565b92915050565b6000611888611899565b90506118948282611a71565b919050565b6000604051905090565b600067ffffffffffffffff8211156118be576118bd611b78565b5b6118c782611bc5565b9050602081019050919050565b60008190508160005260206000209050919050565b600081519050919050565b600081519050919050565b600082825260208201905092915050565b600082825260208201905092915050565b600061192c826119f3565b9150611937836119f3565b9250827fffffffffffffffffffffffffffffffffffffffffffffffffffffffffffffffff0382111561196c5761196b611aeb565b5b828201905092915050565b6000611982826119f3565b915061198d836119f3565b9250828210156119a05761199f611aeb565b5b828203905092915050565b60006119b6826119d3565b9050919050565b60008115159050919050565b6000819050919050565b600073ffffffffffffffffffffffffffffffffffffffff82169050919050565b6000819050919050565b82818337600083830152505050565b60005b83811015611a2a578082015181840152602081019050611a0f565b83811115611a39576000848401525b50505050565b60006002820490506001821680611a5757607f821691505b60208210811415611a6b57611a6a611b1a565b5b50919050565b611a7a82611bc5565b810181811067ffffffffffffffff82111715611a9957611a98611b78565b5b80604052505050565b6000611aad826119f3565b91507fffffffffffffffffffffffffffffffffffffffffffffffffffffffffffffffff821415611ae057611adf611aeb565b5b600182019050919050565b7f4e487b7100000000000000000000000000000000000000000000000000000000600052601160045260246000fd5b7f4e487b7100000000000000000000000000000000000000000000000000000000600052602260045260246000fd5b7f4e487b7100000000000000000000000000000000000000000000000000000000600052603260045260246000fd5b7f4e487b7100000000000000000000000000000000000000000000000000000000600052604160045260246000fd5b600080fd5b600080fd5b600080fd5b600080fd5b600080fd5b600080fd5b6000601f19601f8301169050919050565b7f4f6e6c79205265717565737465723a2043616c6c6572206973206e6f7420612060008201527f7265717565737465720000000000000000000000000000000000000000000000602082015250565b7f4f776e61626c653a206e6577206f776e657220697320746865207a65726f206160008201527f6464726573730000000000000000000000000000000000000000000000000000602082015250565b7f4f776e61626c653a2063616c6c6572206973206e6f7420746865206f776e6572600082015250565b7f45717569747920466565206973206e6f74207061696400000000000000000000600082015250565b611ccf816119ab565b8114611cda57600080fd5b50565b611ce6816119bd565b8114611cf157600080fd5b50565b611cfd816119c9565b8114611d0857600080fd5b50565b611d14816119f3565b8114611d1f57600080fd5b5056fea2646970667358221220af6c6e91d8205cca561ea108101f7caea829bef977911768e475868e9ee3d03264736f6c63430008070033",
  "linkReferences": {},
  "deployedLinkReferences": {}
}