{
  "_format": "hh-sol-artifact-1",
  "contractName": "CryptoPriceFeed",
  "sourceName": "contracts/CryptoPriceFeed.sol",
  "abi": [
    {
      "inputs": [],
      "stateMutability": "nonpayable",
      "type": "constructor"
    },
    {
      "anonymous": false,
      "inputs": [
        {
          "indexed": true,
          "internalType": "bytes32",
          "name": "id",
          "type": "bytes32"
        }
      ],
      "name": "ChainlinkCancelled",
      "type": "event"
    },
    {
      "anonymous": false,
      "inputs": [
        {
          "indexed": true,
          "internalType": "bytes32",
          "name": "id",
          "type": "bytes32"
        }
      ],
      "name": "ChainlinkFulfilled",
      "type": "event"
    },
    {
      "anonymous": false,
      "inputs": [
        {
          "indexed": true,
          "internalType": "bytes32",
          "name": "id",
          "type": "bytes32"
        }
      ],
      "name": "ChainlinkRequested",
      "type": "event"
    },
    {
      "anonymous": false,
      "inputs": [
        {
          "indexed": true,
          "internalType": "address",
          "name": "previousOwner",
          "type": "address"
        },
        {
          "indexed": true,
          "internalType": "address",
          "name": "newOwner",
          "type": "address"
        }
      ],
      "name": "OwnershipTransferred",
      "type": "event"
    },
    {
      "inputs": [
        {
          "internalType": "string",
          "name": "",
          "type": "string"
        }
      ],
      "name": "blocks",
      "outputs": [
        {
          "internalType": "uint256",
          "name": "",
          "type": "uint256"
        }
      ],
      "stateMutability": "view",
      "type": "function"
    },
    {
      "inputs": [
        {
          "internalType": "bytes32",
          "name": "_requestId",
          "type": "bytes32"
        },
        {
          "internalType": "uint256",
          "name": "_returnedPrice",
          "type": "uint256"
        }
      ],
      "name": "fulfill",
      "outputs": [],
      "stateMutability": "nonpayable",
      "type": "function"
    },
    {
      "inputs": [
        {
          "internalType": "string",
          "name": "_symbol",
          "type": "string"
        }
      ],
      "name": "getPriceandBlock",
      "outputs": [
        {
          "internalType": "uint256",
          "name": "",
          "type": "uint256"
        },
        {
          "internalType": "uint256",
          "name": "",
          "type": "uint256"
        }
      ],
      "stateMutability": "view",
      "type": "function"
    },
    {
      "inputs": [
        {
          "internalType": "address",
          "name": "_requester",
          "type": "address"
        }
      ],
      "name": "isRequester",
      "outputs": [
        {
          "internalType": "bool",
          "name": "",
          "type": "bool"
        }
      ],
      "stateMutability": "view",
      "type": "function"
    },
    {
      "inputs": [],
      "name": "owner",
      "outputs": [
        {
          "internalType": "address",
          "name": "",
          "type": "address"
        }
      ],
      "stateMutability": "view",
      "type": "function"
    },
    {
      "inputs": [
        {
          "internalType": "string",
          "name": "",
          "type": "string"
        }
      ],
      "name": "prices",
      "outputs": [
        {
          "internalType": "uint256",
          "name": "",
          "type": "uint256"
        }
      ],
      "stateMutability": "view",
      "type": "function"
    },
    {
      "inputs": [],
      "name": "renounceOwnership",
      "outputs": [],
      "stateMutability": "nonpayable",
      "type": "function"
    },
    {
      "inputs": [
        {
          "internalType": "string",
          "name": "_symbol",
          "type": "string"
        },
        {
          "internalType": "string",
          "name": "_exchange",
          "type": "string"
        }
      ],
      "name": "requestPrice",
      "outputs": [
        {
          "internalType": "bytes32",
          "name": "requestId",
          "type": "bytes32"
        }
      ],
      "stateMutability": "nonpayable",
      "type": "function"
    },
    {
      "inputs": [
        {
          "internalType": "address",
          "name": "_requester",
          "type": "address"
        }
      ],
      "name": "setRequester",
      "outputs": [],
      "stateMutability": "nonpayable",
      "type": "function"
    },
    {
      "inputs": [
        {
          "internalType": "address",
          "name": "newOwner",
          "type": "address"
        }
      ],
      "name": "transferOwnership",
      "outputs": [],
      "stateMutability": "nonpayable",
      "type": "function"
    }
  ],
  "bytecode": "0x608060405260016004553480156200001657600080fd5b50620000376200002b6200014560201b60201c565b6200014d60201b60201c565b6001600d60003373ffffffffffffffffffffffffffffffffffffffff1673ffffffffffffffffffffffffffffffffffffffff16815260200190815260200160002060006101000a81548160ff021916908315150217905550620000b473326c977e6efc84e512bb9c30f76e30c160ed06fb6200021360201b60201c565b73e3a98d9faab4a4b338b40a6df6273ab520152b8c600760006101000a81548173ffffffffffffffffffffffffffffffffffffffff021916908373ffffffffffffffffffffffffffffffffffffffff1602179055507f663264333766353562373232343531323865663264346561343231636437363660088190555067016345785d8a000060098190555062000257565b600033905090565b6000600660009054906101000a900473ffffffffffffffffffffffffffffffffffffffff16905081600660006101000a81548173ffffffffffffffffffffffffffffffffffffffff021916908373ffffffffffffffffffffffffffffffffffffffff1602179055508173ffffffffffffffffffffffffffffffffffffffff168173ffffffffffffffffffffffffffffffffffffffff167f8be0079c531659141344cd1fd0a4f28419497f9722a3daafe3b4186f6b6457e060405160405180910390a35050565b80600260006101000a81548173ffffffffffffffffffffffffffffffffffffffff021916908373ffffffffffffffffffffffffffffffffffffffff16021790555050565b6120da80620002676000396000f3fe608060405234801561001057600080fd5b506004361061009e5760003560e01c8063715018a611610066578063715018a61461016c5780638da5cb5b14610176578063b312ded314610194578063c3825f4b146101c4578063f2fde38b146101f45761009e565b80630191b9e4146100a357806302529177146100d4578063227a30c5146101045780632faffd8d146101205780634357855e14610150575b600080fd5b6100bd60048036038101906100b89190611409565b610210565b6040516100cb929190611904565b60405180910390f35b6100ee60048036038101906100e9919061136f565b61025a565b6040516100fb9190611813565b60405180910390f35b61011e6004803603810190610119919061136f565b6102b0565b005b61013a60048036038101906101359190611452565b610387565b604051610147919061182e565b60405180910390f35b61016a600480360381019061016591906113c9565b610535565b005b61017461069d565b005b61017e610725565b60405161018b9190611735565b60405180910390f35b6101ae60048036038101906101a99190611409565b61074f565b6040516101bb91906118e9565b60405180910390f35b6101de60048036038101906101d99190611409565b61077d565b6040516101eb91906118e9565b60405180910390f35b61020e6004803603810190610209919061136f565b6107ab565b005b600080600a836040516102239190611707565b908152602001604051809103902054600b846040516102429190611707565b90815260200160405180910390205491509150915091565b6000600d60008373ffffffffffffffffffffffffffffffffffffffff1673ffffffffffffffffffffffffffffffffffffffff16815260200190815260200160002060009054906101000a900460ff169050919050565b6102b86108a3565b73ffffffffffffffffffffffffffffffffffffffff166102d6610725565b73ffffffffffffffffffffffffffffffffffffffff161461032c576040517f08c379a0000000000000000000000000000000000000000000000000000000008152600401610323906118a9565b60405180910390fd5b6001600d60008373ffffffffffffffffffffffffffffffffffffffff1673ffffffffffffffffffffffffffffffffffffffff16815260200190815260200160002060006101000a81548160ff02191690831515021790555050565b600060011515600d60006103996108a3565b73ffffffffffffffffffffffffffffffffffffffff1673ffffffffffffffffffffffffffffffffffffffff16815260200190815260200160002060009054906101000a900460ff16151514610423576040517f08c379a000000000000000000000000000000000000000000000000000000000815260040161041a90611849565b60405180910390fd5b600061043960085430634357855e60e01b6108ab565b90506104856040518060400160405280600681526020017f73796d626f6c000000000000000000000000000000000000000000000000000081525085836108dc9092919063ffffffff16565b6104cf6040518060400160405280600881526020017f65786368616e676500000000000000000000000000000000000000000000000081525084836108dc9092919063ffffffff16565b6000610500600760009054906101000a900473ffffffffffffffffffffffffffffffffffffffff168360095461090f565b905084600c60008381526020019081526020016000209080519060200190610529929190611181565b50809250505092915050565b816005600082815260200190815260200160002060009054906101000a900473ffffffffffffffffffffffffffffffffffffffff1673ffffffffffffffffffffffffffffffffffffffff163373ffffffffffffffffffffffffffffffffffffffff16146105d7576040517f08c379a00000000000000000000000000000000000000000000000000000000081526004016105ce906118c9565b60405180910390fd5b6005600082815260200190815260200160002060006101000a81549073ffffffffffffffffffffffffffffffffffffffff0219169055807f7cc135e0cebb02c3480ae5d74d377283180a2601f8f644edf7987b009316c63a60405160405180910390a26000600c6000858152602001908152602001600020905082600a82604051610662919061171e565b90815260200160405180910390208190555043600b82604051610685919061171e565b90815260200160405180910390208190555050505050565b6106a56108a3565b73ffffffffffffffffffffffffffffffffffffffff166106c3610725565b73ffffffffffffffffffffffffffffffffffffffff1614610719576040517f08c379a0000000000000000000000000000000000000000000000000000000008152600401610710906118a9565b60405180910390fd5b61072360006109db565b565b6000600660009054906101000a900473ffffffffffffffffffffffffffffffffffffffff16905090565b600b818051602081018201805184825260208301602085012081835280955050505050506000915090505481565b600a818051602081018201805184825260208301602085012081835280955050505050506000915090505481565b6107b36108a3565b73ffffffffffffffffffffffffffffffffffffffff166107d1610725565b73ffffffffffffffffffffffffffffffffffffffff1614610827576040517f08c379a000000000000000000000000000000000000000000000000000000000815260040161081e906118a9565b60405180910390fd5b600073ffffffffffffffffffffffffffffffffffffffff168173ffffffffffffffffffffffffffffffffffffffff161415610897576040517f08c379a000000000000000000000000000000000000000000000000000000000815260040161088e90611869565b60405180910390fd5b6108a0816109db565b50565b600033905090565b6108b3611207565b6108bb611207565b6108d285858584610aa1909392919063ffffffff16565b9150509392505050565b6108f3828460800151610b5190919063ffffffff16565b61090a818460800151610b5190919063ffffffff16565b505050565b600080600454905060018161092491906119db565b6004819055506000634042994660e01b60008087600001513089604001518760018c6080015160000151604051602401610965989796959493929190611750565b604051602081830303815290604052907bffffffffffffffffffffffffffffffffffffffffffffffffffffffff19166020820180517bffffffffffffffffffffffffffffffffffffffffffffffffffffffff838183161783525050505090506109d086838684610b76565b925050509392505050565b6000600660009054906101000a900473ffffffffffffffffffffffffffffffffffffffff16905081600660006101000a81548173ffffffffffffffffffffffffffffffffffffffff021916908373ffffffffffffffffffffffffffffffffffffffff1602179055508173ffffffffffffffffffffffffffffffffffffffff168173ffffffffffffffffffffffffffffffffffffffff167f8be0079c531659141344cd1fd0a4f28419497f9722a3daafe3b4186f6b6457e060405160405180910390a35050565b610aa9611207565b610ab98560800151610100610d1a565b508385600001818152505082856020019073ffffffffffffffffffffffffffffffffffffffff16908173ffffffffffffffffffffffffffffffffffffffff16815250508185604001907bffffffffffffffffffffffffffffffffffffffffffffffffffffffff191690817bffffffffffffffffffffffffffffffffffffffffffffffffffffffff191681525050849050949350505050565b610b5e8260038351610d84565b610b718183610f0990919063ffffffff16565b505050565b60003084604051602001610b8b9291906116db565b604051602081830303815290604052805190602001209050846005600083815260200190815260200160002060006101000a81548173ffffffffffffffffffffffffffffffffffffffff021916908373ffffffffffffffffffffffffffffffffffffffff160217905550807fb5e6e01e79f91267dc17b4e6314d5d4d03593d2ceee0fbb452b750bd70ea5af960405160405180910390a2600260009054906101000a900473ffffffffffffffffffffffffffffffffffffffff1673ffffffffffffffffffffffffffffffffffffffff16634000aea08685856040518463ffffffff1660e01b8152600401610c81939291906117d5565b602060405180830381600087803b158015610c9b57600080fd5b505af1158015610caf573d6000803e3d6000fd5b505050506040513d601f19601f82011682018060405250810190610cd3919061139c565b610d12576040517f08c379a0000000000000000000000000000000000000000000000000000000008152600401610d0990611889565b60405180910390fd5b949350505050565b610d22611274565b6000602083610d319190611db7565b14610d5d57602082610d439190611db7565b6020610d4f9190611bfc565b82610d5a91906119db565b91505b81836020018181525050604051808452600081528281016020016040525082905092915050565b60178167ffffffffffffffff1611610dbb57610db58160058460ff16901b60ff161784610f2b90919063ffffffff16565b50610f04565b60ff8167ffffffffffffffff1611610e1157610dea601860058460ff16901b1784610f2b90919063ffffffff16565b50610e0b8167ffffffffffffffff16600185610f4b9092919063ffffffff16565b50610f03565b61ffff8167ffffffffffffffff1611610e6857610e41601960058460ff16901b1784610f2b90919063ffffffff16565b50610e628167ffffffffffffffff16600285610f4b9092919063ffffffff16565b50610f02565b63ffffffff8167ffffffffffffffff1611610ec157610e9a601a60058460ff16901b1784610f2b90919063ffffffff16565b50610ebb8167ffffffffffffffff16600485610f4b9092919063ffffffff16565b50610f01565b610ede601b60058460ff16901b1784610f2b90919063ffffffff16565b50610eff8167ffffffffffffffff16600885610f4b9092919063ffffffff16565b505b5b5b5b505050565b610f11611274565b610f2383846000015151848551610f6d565b905092915050565b610f33611274565b610f43838460000151518461105c565b905092915050565b610f53611274565b610f648485600001515185856110b3565b90509392505050565b610f75611274565b8251821115610f8357600080fd5b84602001518285610f9491906119db565b1115610fc957610fc8856002610fb988602001518887610fb491906119db565b611141565b610fc39190611ba2565b61115d565b5b600080865180518760208301019350808887011115610fe85787860182525b60208701925050505b6020841061102f578051825260208261100a91906119db565b915060208161101991906119db565b90506020846110289190611bfc565b9350610ff1565b60006001856020036101000a03905080198251168184511681811785525050508692505050949350505050565b611064611274565b8360200151831061108a5761108984600286602001516110849190611ba2565b61115d565b5b83518051602085830101848153818614156110a6576001820183525b5050508390509392505050565b6110bb611274565b846020015184836110cc91906119db565b11156110f4576110f385600286856110e491906119db565b6110ee9190611ba2565b61115d565b5b60006001836101006111069190611a84565b6111109190611bfc565b905085518386820101858319825116178152815185880111156111335784870182525b505085915050949350505050565b60008183111561115357829050611157565b8190505b92915050565b6000826000015190506111708383610d1a565b5061117b8382610f09565b50505050565b82805461118d90611d26565b90600052602060002090601f0160209004810192826111af57600085556111f6565b82601f106111c857805160ff19168380011785556111f6565b828001600101855582156111f6579182015b828111156111f55782518255916020019190600101906111da565b5b509050611203919061128e565b5090565b6040518060a0016040528060008019168152602001600073ffffffffffffffffffffffffffffffffffffffff16815260200160007bffffffffffffffffffffffffffffffffffffffffffffffffffffffff191681526020016000815260200161126e611274565b81525090565b604051806040016040528060608152602001600081525090565b5b808211156112a757600081600090555060010161128f565b5090565b60006112be6112b984611952565b61192d565b9050828152602081018484840111156112da576112d9611ea9565b5b6112e5848285611ce4565b509392505050565b6000813590506112fc81612048565b92915050565b6000815190506113118161205f565b92915050565b60008135905061132681612076565b92915050565b600082601f83011261134157611340611ea4565b5b81356113518482602086016112ab565b91505092915050565b6000813590506113698161208d565b92915050565b60006020828403121561138557611384611eb3565b5b6000611393848285016112ed565b91505092915050565b6000602082840312156113b2576113b1611eb3565b5b60006113c084828501611302565b91505092915050565b600080604083850312156113e0576113df611eb3565b5b60006113ee85828601611317565b92505060206113ff8582860161135a565b9150509250929050565b60006020828403121561141f5761141e611eb3565b5b600082013567ffffffffffffffff81111561143d5761143c611eae565b5b6114498482850161132c565b91505092915050565b6000806040838503121561146957611468611eb3565b5b600083013567ffffffffffffffff81111561148757611486611eae565b5b6114938582860161132c565b925050602083013567ffffffffffffffff8111156114b4576114b3611eae565b5b6114c08582860161132c565b9150509250929050565b6114d381611c30565b82525050565b6114e281611c42565b82525050565b6114f181611c4e565b82525050565b61150081611c58565b82525050565b600061151182611998565b61151b81856119ae565b935061152b818560208601611cf3565b61153481611eb8565b840191505092915050565b61155061154b82611cae565b611d89565b82525050565b6000611561826119a3565b61156b81856119d0565b935061157b818560208601611cf3565b80840191505092915050565b6000815461159481611d26565b61159e81866119d0565b945060018216600081146115b957600181146115ca576115fd565b60ff198316865281860193506115fd565b6115d385611983565b60005b838110156115f5578154818901526001820191506020810190506115d6565b838801955050505b50505092915050565b60006116136029836119bf565b915061161e82611ee3565b604082019050919050565b60006116366026836119bf565b915061164182611f32565b604082019050919050565b60006116596023836119bf565b915061166482611f81565b604082019050919050565b600061167c6020836119bf565b915061168782611fd0565b602082019050919050565b600061169f6028836119bf565b91506116aa82611ff9565b604082019050919050565b6116be81611ca4565b82525050565b6116d56116d082611ca4565b611dad565b82525050565b60006116e7828561153f565b6014820191506116f782846116c4565b6020820191508190509392505050565b60006117138284611556565b915081905092915050565b600061172a8284611587565b915081905092915050565b600060208201905061174a60008301846114ca565b92915050565b600061010082019050611766600083018b6114ca565b611773602083018a6116b5565b61178060408301896114e8565b61178d60608301886114ca565b61179a60808301876114f7565b6117a760a08301866116b5565b6117b460c08301856116b5565b81810360e08301526117c68184611506565b90509998505050505050505050565b60006060820190506117ea60008301866114ca565b6117f760208301856116b5565b81810360408301526118098184611506565b9050949350505050565b600060208201905061182860008301846114d9565b92915050565b600060208201905061184360008301846114e8565b92915050565b6000602082019050818103600083015261186281611606565b9050919050565b6000602082019050818103600083015261188281611629565b9050919050565b600060208201905081810360008301526118a28161164c565b9050919050565b600060208201905081810360008301526118c28161166f565b9050919050565b600060208201905081810360008301526118e281611692565b9050919050565b60006020820190506118fe60008301846116b5565b92915050565b600060408201905061191960008301856116b5565b61192660208301846116b5565b9392505050565b6000611937611948565b90506119438282611d58565b919050565b6000604051905090565b600067ffffffffffffffff82111561196d5761196c611e75565b5b61197682611eb8565b9050602081019050919050565b60008190508160005260206000209050919050565b600081519050919050565b600081519050919050565b600082825260208201905092915050565b600082825260208201905092915050565b600081905092915050565b60006119e682611ca4565b91506119f183611ca4565b9250827fffffffffffffffffffffffffffffffffffffffffffffffffffffffffffffffff03821115611a2657611a25611de8565b5b828201905092915050565b6000808291508390505b6001851115611a7b57808604811115611a5757611a56611de8565b5b6001851615611a665780820291505b8081029050611a7485611ed6565b9450611a3b565b94509492505050565b6000611a8f82611ca4565b9150611a9a83611ca4565b9250611ac77fffffffffffffffffffffffffffffffffffffffffffffffffffffffffffffffff8484611acf565b905092915050565b600082611adf5760019050611b9b565b81611aed5760009050611b9b565b8160018114611b035760028114611b0d57611b3c565b6001915050611b9b565b60ff841115611b1f57611b1e611de8565b5b8360020a915084821115611b3657611b35611de8565b5b50611b9b565b5060208310610133831016604e8410600b8410161715611b715782820a905083811115611b6c57611b6b611de8565b5b611b9b565b611b7e8484846001611a31565b92509050818404811115611b9557611b94611de8565b5b81810290505b9392505050565b6000611bad82611ca4565b9150611bb883611ca4565b9250817fffffffffffffffffffffffffffffffffffffffffffffffffffffffffffffffff0483118215151615611bf157611bf0611de8565b5b828202905092915050565b6000611c0782611ca4565b9150611c1283611ca4565b925082821015611c2557611c24611de8565b5b828203905092915050565b6000611c3b82611c84565b9050919050565b60008115159050919050565b6000819050919050565b60007fffffffff0000000000000000000000000000000000000000000000000000000082169050919050565b600073ffffffffffffffffffffffffffffffffffffffff82169050919050565b6000819050919050565b6000611cb982611cc0565b9050919050565b6000611ccb82611cd2565b9050919050565b6000611cdd82611c84565b9050919050565b82818337600083830152505050565b60005b83811015611d11578082015181840152602081019050611cf6565b83811115611d20576000848401525b50505050565b60006002820490506001821680611d3e57607f821691505b60208210811415611d5257611d51611e46565b5b50919050565b611d6182611eb8565b810181811067ffffffffffffffff82111715611d8057611d7f611e75565b5b80604052505050565b6000611d9482611d9b565b9050919050565b6000611da682611ec9565b9050919050565b6000819050919050565b6000611dc282611ca4565b9150611dcd83611ca4565b925082611ddd57611ddc611e17565b5b828206905092915050565b7f4e487b7100000000000000000000000000000000000000000000000000000000600052601160045260246000fd5b7f4e487b7100000000000000000000000000000000000000000000000000000000600052601260045260246000fd5b7f4e487b7100000000000000000000000000000000000000000000000000000000600052602260045260246000fd5b7f4e487b7100000000000000000000000000000000000000000000000000000000600052604160045260246000fd5b600080fd5b600080fd5b600080fd5b600080fd5b6000601f19601f8301169050919050565b60008160601b9050919050565b60008160011c9050919050565b7f4f6e6c79205265717565737465723a2043616c6c6572206973206e6f7420612060008201527f7265717565737465720000000000000000000000000000000000000000000000602082015250565b7f4f776e61626c653a206e6577206f776e657220697320746865207a65726f206160008201527f6464726573730000000000000000000000000000000000000000000000000000602082015250565b7f756e61626c6520746f207472616e73666572416e6443616c6c20746f206f726160008201527f636c650000000000000000000000000000000000000000000000000000000000602082015250565b7f4f776e61626c653a2063616c6c6572206973206e6f7420746865206f776e6572600082015250565b7f536f75726365206d75737420626520746865206f7261636c65206f662074686560008201527f2072657175657374000000000000000000000000000000000000000000000000602082015250565b61205181611c30565b811461205c57600080fd5b50565b61206881611c42565b811461207357600080fd5b50565b61207f81611c4e565b811461208a57600080fd5b50565b61209681611ca4565b81146120a157600080fd5b5056fea2646970667358221220dd5c9c728f9334baa32a5de6142ac0b4901b2291ec595207f1930ee13cded25464736f6c63430008070033",
  "linkReferences": {},
  "deployedLinkReferences": {}
}